{
	"BeggingContract.sol": {
		"BeggingContract": {
			"abi": [
				{
					"inputs": [],
					"stateMutability": "nonpayable",
					"type": "constructor"
				},
				{
					"inputs": [
						{
							"internalType": "address",
							"name": "owner",
							"type": "address"
						}
					],
					"name": "OwnableInvalidOwner",
					"type": "error"
				},
				{
					"inputs": [
						{
							"internalType": "address",
							"name": "account",
							"type": "address"
						}
					],
					"name": "OwnableUnauthorizedAccount",
					"type": "error"
				},
				{
					"anonymous": false,
					"inputs": [
						{
							"indexed": true,
							"internalType": "address",
							"name": "from",
							"type": "address"
						},
						{
							"indexed": false,
							"internalType": "uint256",
							"name": "value",
							"type": "uint256"
						}
					],
					"name": "Donation",
					"type": "event"
				},
				{
					"anonymous": false,
					"inputs": [
						{
							"indexed": true,
							"internalType": "address",
							"name": "previousOwner",
							"type": "address"
						},
						{
							"indexed": true,
							"internalType": "address",
							"name": "newOwner",
							"type": "address"
						}
					],
					"name": "OwnershipTransferred",
					"type": "event"
				},
				{
					"inputs": [],
					"name": "donate",
					"outputs": [],
					"stateMutability": "payable",
					"type": "function"
				},
				{
					"inputs": [
						{
							"internalType": "address",
							"name": "addr",
							"type": "address"
						}
					],
					"name": "getDonation",
					"outputs": [
						{
							"internalType": "uint256",
							"name": "",
							"type": "uint256"
						}
					],
					"stateMutability": "view",
					"type": "function"
				},
				{
					"inputs": [],
					"name": "getTopDonors",
					"outputs": [
						{
							"internalType": "address[3]",
							"name": "",
							"type": "address[3]"
						},
						{
							"internalType": "uint256[3]",
							"name": "",
							"type": "uint256[3]"
						}
					],
					"stateMutability": "view",
					"type": "function"
				},
				{
					"inputs": [],
					"name": "owner",
					"outputs": [
						{
							"internalType": "address",
							"name": "",
							"type": "address"
						}
					],
					"stateMutability": "view",
					"type": "function"
				},
				{
					"inputs": [],
					"name": "renounceOwnership",
					"outputs": [],
					"stateMutability": "nonpayable",
					"type": "function"
				},
				{
					"inputs": [
						{
							"internalType": "address",
							"name": "newOwner",
							"type": "address"
						}
					],
					"name": "transferOwnership",
					"outputs": [],
					"stateMutability": "nonpayable",
					"type": "function"
				},
				{
					"inputs": [],
					"name": "withdraw",
					"outputs": [],
					"stateMutability": "nonpayable",
					"type": "function"
				}
			],
			"devdoc": {
				"errors": {
					"OwnableInvalidOwner(address)": [
						{
							"details": "The owner is not a valid owner account. (eg. `address(0)`)"
						}
					],
					"OwnableUnauthorizedAccount(address)": [
						{
							"details": "The caller account is not authorized to perform an operation."
						}
					]
				},
				"kind": "dev",
				"methods": {
					"owner()": {
						"details": "Returns the address of the current owner."
					},
					"renounceOwnership()": {
						"details": "Leaves the contract without owner. It will not be possible to call `onlyOwner` functions. Can only be called by the current owner. NOTE: Renouncing ownership will leave the contract without an owner, thereby disabling any functionality that is only available to the owner."
					},
					"transferOwnership(address)": {
						"details": "Transfers ownership of the contract to a new account (`newOwner`). Can only be called by the current owner."
					}
				},
				"version": 1
			},
			"evm": {
				"assembly": "    /* \"BeggingContract.sol\":2362:5217  contract BeggingContract is Ownable {... */\n  mstore(0x40, 0x80)\n    /* \"BeggingContract.sol\":2928:2964  constructor() Ownable(msg.sender) {} */\n  callvalue\n  dup1\n  iszero\n  tag_1\n  jumpi\n  revert(0x00, 0x00)\ntag_1:\n  pop\n    /* \"BeggingContract.sol\":2950:2960  msg.sender */\n  caller\n    /* \"@openzeppelin/contracts/access/Ownable.sol\":1297:1298  0 */\n  0x00\n    /* \"@openzeppelin/contracts/access/Ownable.sol\":1273:1299  initialOwner == address(0) */\n  0xffffffffffffffffffffffffffffffffffffffff\n  and\n    /* \"@openzeppelin/contracts/access/Ownable.sol\":1273:1285  initialOwner */\n  dup2\n    /* \"@openzeppelin/contracts/access/Ownable.sol\":1273:1299  initialOwner == address(0) */\n  0xffffffffffffffffffffffffffffffffffffffff\n  and\n  sub\n    /* \"@openzeppelin/contracts/access/Ownable.sol\":1269:1364  if (initialOwner == address(0)) {... */\n  tag_5\n  jumpi\n    /* \"@openzeppelin/contracts/access/Ownable.sol\":1350:1351  0 */\n  0x00\n    /* \"@openzeppelin/contracts/access/Ownable.sol\":1322:1353  OwnableInvalidOwner(address(0)) */\n  mload(0x40)\n  0x1e4fbdf700000000000000000000000000000000000000000000000000000000\n  dup2\n  mstore\n  0x04\n  add\n  tag_6\n  swap2\n  swap1\n  tag_7\n  jump\t// in\ntag_6:\n  mload(0x40)\n  dup1\n  swap2\n  sub\n  swap1\n  revert\n    /* \"@openzeppelin/contracts/access/Ownable.sol\":1269:1364  if (initialOwner == address(0)) {... */\ntag_5:\n    /* \"@openzeppelin/contracts/access/Ownable.sol\":1373:1405  _transferOwnership(initialOwner) */\n  tag_8\n    /* \"@openzeppelin/contracts/access/Ownable.sol\":1392:1404  initialOwner */\n  dup2\n    /* \"@openzeppelin/contracts/access/Ownable.sol\":1373:1391  _transferOwnership */\n  shl(0x20, tag_9)\n    /* \"@openzeppelin/contracts/access/Ownable.sol\":1373:1405  _transferOwnership(initialOwner) */\n  0x20\n  shr\n  jump\t// in\ntag_8:\n    /* \"@openzeppelin/contracts/access/Ownable.sol\":1225:1412  constructor(address initialOwner) {... */\n  pop\n    /* \"BeggingContract.sol\":2362:5217  contract BeggingContract is Ownable {... */\n  jump(tag_11)\n    /* \"@openzeppelin/contracts/access/Ownable.sol\":2912:3099  function _transferOwnership(address newOwner) internal virtual {... */\ntag_9:\n    /* \"@openzeppelin/contracts/access/Ownable.sol\":2985:3001  address oldOwner */\n  0x00\n    /* \"@openzeppelin/contracts/access/Ownable.sol\":3004:3010  _owner */\n  0x00\n  0x00\n  swap1\n  sload\n  swap1\n  0x0100\n  exp\n  swap1\n  div\n  0xffffffffffffffffffffffffffffffffffffffff\n  and\n    /* \"@openzeppelin/contracts/access/Ownable.sol\":2985:3010  address oldOwner = _owner */\n  swap1\n  pop\n    /* \"@openzeppelin/contracts/access/Ownable.sol\":3029:3037  newOwner */\n  dup2\n    /* \"@openzeppelin/contracts/access/Ownable.sol\":3020:3026  _owner */\n  0x00\n  0x00\n    /* \"@openzeppelin/contracts/access/Ownable.sol\":3020:3037  _owner = newOwner */\n  0x0100\n  exp\n  dup2\n  sload\n  dup2\n  0xffffffffffffffffffffffffffffffffffffffff\n  mul\n  not\n  and\n  swap1\n  dup4\n  0xffffffffffffffffffffffffffffffffffffffff\n  and\n  mul\n  or\n  swap1\n  sstore\n  pop\n    /* \"@openzeppelin/contracts/access/Ownable.sol\":3083:3091  newOwner */\n  dup2\n    /* \"@openzeppelin/contracts/access/Ownable.sol\":3052:3092  OwnershipTransferred(oldOwner, newOwner) */\n  0xffffffffffffffffffffffffffffffffffffffff\n  and\n    /* \"@openzeppelin/contracts/access/Ownable.sol\":3073:3081  oldOwner */\n  dup2\n    /* \"@openzeppelin/contracts/access/Ownable.sol\":3052:3092  OwnershipTransferred(oldOwner, newOwner) */\n  0xffffffffffffffffffffffffffffffffffffffff\n  and\n  0x8be0079c531659141344cd1fd0a4f28419497f9722a3daafe3b4186f6b6457e0\n  mload(0x40)\n  mload(0x40)\n  dup1\n  swap2\n  sub\n  swap1\n  log3\n    /* \"@openzeppelin/contracts/access/Ownable.sol\":2975:3099  {... */\n  pop\n    /* \"@openzeppelin/contracts/access/Ownable.sol\":2912:3099  function _transferOwnership(address newOwner) internal virtual {... */\n  pop\n  jump\t// out\n    /* \"#utility.yul\":7:133   */\ntag_13:\n    /* \"#utility.yul\":44:51   */\n  0x00\n    /* \"#utility.yul\":84:126   */\n  0xffffffffffffffffffffffffffffffffffffffff\n    /* \"#utility.yul\":77:82   */\n  dup3\n    /* \"#utility.yul\":73:127   */\n  and\n    /* \"#utility.yul\":62:127   */\n  swap1\n  pop\n    /* \"#utility.yul\":7:133   */\n  swap2\n  swap1\n  pop\n  jump\t// out\n    /* \"#utility.yul\":139:235   */\ntag_14:\n    /* \"#utility.yul\":176:183   */\n  0x00\n    /* \"#utility.yul\":205:229   */\n  tag_19\n    /* \"#utility.yul\":223:228   */\n  dup3\n    /* \"#utility.yul\":205:229   */\n  tag_13\n  jump\t// in\ntag_19:\n    /* \"#utility.yul\":194:229   */\n  swap1\n  pop\n    /* \"#utility.yul\":139:235   */\n  swap2\n  swap1\n  pop\n  jump\t// out\n    /* \"#utility.yul\":241:359   */\ntag_15:\n    /* \"#utility.yul\":328:352   */\n  tag_21\n    /* \"#utility.yul\":346:351   */\n  dup2\n    /* \"#utility.yul\":328:352   */\n  tag_14\n  jump\t// in\ntag_21:\n    /* \"#utility.yul\":323:326   */\n  dup3\n    /* \"#utility.yul\":316:353   */\n  mstore\n    /* \"#utility.yul\":241:359   */\n  pop\n  pop\n  jump\t// out\n    /* \"#utility.yul\":365:587   */\ntag_7:\n    /* \"#utility.yul\":458:462   */\n  0x00\n    /* \"#utility.yul\":496:498   */\n  0x20\n    /* \"#utility.yul\":485:494   */\n  dup3\n    /* \"#utility.yul\":481:499   */\n  add\n    /* \"#utility.yul\":473:499   */\n  swap1\n  pop\n    /* \"#utility.yul\":509:580   */\n  tag_23\n    /* \"#utility.yul\":577:578   */\n  0x00\n    /* \"#utility.yul\":566:575   */\n  dup4\n    /* \"#utility.yul\":562:579   */\n  add\n    /* \"#utility.yul\":553:559   */\n  dup5\n    /* \"#utility.yul\":509:580   */\n  tag_15\n  jump\t// in\ntag_23:\n    /* \"#utility.yul\":365:587   */\n  swap3\n  swap2\n  pop\n  pop\n  jump\t// out\n    /* \"BeggingContract.sol\":2362:5217  contract BeggingContract is Ownable {... */\ntag_11:\n  dataSize(sub_0)\n  dup1\n  dataOffset(sub_0)\n  0x00\n  codecopy\n  0x00\n  return\nstop\n\nsub_0: assembly {\n        /* \"BeggingContract.sol\":2362:5217  contract BeggingContract is Ownable {... */\n      mstore(0x40, 0x80)\n      jumpi(tag_1, lt(calldatasize, 0x04))\n      shr(0xe0, calldataload(0x00))\n      dup1\n      0x8da5cb5b\n      gt\n      tag_9\n      jumpi\n      dup1\n      0x8da5cb5b\n      eq\n      tag_5\n      jumpi\n      dup1\n      0xd6387ed8\n      eq\n      tag_6\n      jumpi\n      dup1\n      0xed88c68e\n      eq\n      tag_7\n      jumpi\n      dup1\n      0xf2fde38b\n      eq\n      tag_8\n      jumpi\n      jump(tag_1)\n    tag_9:\n      dup1\n      0x3ccfd60b\n      eq\n      tag_2\n      jumpi\n      dup1\n      0x410a1d32\n      eq\n      tag_3\n      jumpi\n      dup1\n      0x715018a6\n      eq\n      tag_4\n      jumpi\n    tag_1:\n      revert(0x00, 0x00)\n        /* \"BeggingContract.sol\":3269:3544  function withdraw() external onlyOwner noReentrancy {... */\n    tag_2:\n      callvalue\n      dup1\n      iszero\n      tag_10\n      jumpi\n      revert(0x00, 0x00)\n    tag_10:\n      pop\n      tag_11\n      tag_12\n      jump\t// in\n    tag_11:\n      stop\n        /* \"BeggingContract.sol\":3593:3700  function getDonation(address addr) external view returns(uint256) {... */\n    tag_3:\n      callvalue\n      dup1\n      iszero\n      tag_13\n      jumpi\n      revert(0x00, 0x00)\n    tag_13:\n      pop\n      tag_14\n      0x04\n      dup1\n      calldatasize\n      sub\n      dup2\n      add\n      swap1\n      tag_15\n      swap2\n      swap1\n      tag_16\n      jump\t// in\n    tag_15:\n      tag_17\n      jump\t// in\n    tag_14:\n      mload(0x40)\n      tag_18\n      swap2\n      swap1\n      tag_19\n      jump\t// in\n    tag_18:\n      mload(0x40)\n      dup1\n      swap2\n      sub\n      swap1\n      return\n        /* \"@openzeppelin/contracts/access/Ownable.sol\":2293:2394  function renounceOwnership() public virtual onlyOwner {... */\n    tag_4:\n      callvalue\n      dup1\n      iszero\n      tag_20\n      jumpi\n      revert(0x00, 0x00)\n    tag_20:\n      pop\n      tag_21\n      tag_22\n      jump\t// in\n    tag_21:\n      stop\n        /* \"@openzeppelin/contracts/access/Ownable.sol\":1638:1723  function owner() public view virtual returns (address) {... */\n    tag_5:\n      callvalue\n      dup1\n      iszero\n      tag_23\n      jumpi\n      revert(0x00, 0x00)\n    tag_23:\n      pop\n      tag_24\n      tag_25\n      jump\t// in\n    tag_24:\n      mload(0x40)\n      tag_26\n      swap2\n      swap1\n      tag_27\n      jump\t// in\n    tag_26:\n      mload(0x40)\n      dup1\n      swap2\n      sub\n      swap1\n      return\n        /* \"BeggingContract.sol\":3740:4095  function getTopDonors() external view returns (address[3] memory, uint256[3] memory) {... */\n    tag_6:\n      callvalue\n      dup1\n      iszero\n      tag_28\n      jumpi\n      revert(0x00, 0x00)\n    tag_28:\n      pop\n      tag_29\n      tag_30\n      jump\t// in\n    tag_29:\n      mload(0x40)\n      tag_31\n      swap3\n      swap2\n      swap1\n      tag_32\n      jump\t// in\n    tag_31:\n      mload(0x40)\n      dup1\n      swap2\n      sub\n      swap1\n      return\n        /* \"BeggingContract.sol\":2992:3220  function donate() external payable {... */\n    tag_7:\n      tag_33\n      tag_34\n      jump\t// in\n    tag_33:\n      stop\n        /* \"@openzeppelin/contracts/access/Ownable.sol\":2543:2758  function transferOwnership(address newOwner) public virtual onlyOwner {... */\n    tag_8:\n      callvalue\n      dup1\n      iszero\n      tag_35\n      jumpi\n      revert(0x00, 0x00)\n    tag_35:\n      pop\n      tag_36\n      0x04\n      dup1\n      calldatasize\n      sub\n      dup2\n      add\n      swap1\n      tag_37\n      swap2\n      swap1\n      tag_16\n      jump\t// in\n    tag_37:\n      tag_38\n      jump\t// in\n    tag_36:\n      stop\n        /* \"BeggingContract.sol\":3269:3544  function withdraw() external onlyOwner noReentrancy {... */\n    tag_12:\n        /* \"@openzeppelin/contracts/access/Ownable.sol\":1531:1544  _checkOwner() */\n      tag_40\n        /* \"@openzeppelin/contracts/access/Ownable.sol\":1531:1542  _checkOwner */\n      tag_41\n        /* \"@openzeppelin/contracts/access/Ownable.sol\":1531:1544  _checkOwner() */\n      jump\t// in\n    tag_40:\n        /* \"BeggingContract.sol\":2818:2824  locked */\n      0x02\n      0x00\n      swap1\n      sload\n      swap1\n      0x0100\n      exp\n      swap1\n      div\n      0xff\n      and\n        /* \"BeggingContract.sol\":2817:2824  !locked */\n      iszero\n        /* \"BeggingContract.sol\":2809:2851  require(!locked, \"No reentrancy allowed!\") */\n      tag_43\n      jumpi\n      mload(0x40)\n      0x08c379a000000000000000000000000000000000000000000000000000000000\n      dup2\n      mstore\n      0x04\n      add\n      tag_44\n      swap1\n      tag_45\n      jump\t// in\n    tag_44:\n      mload(0x40)\n      dup1\n      swap2\n      sub\n      swap1\n      revert\n    tag_43:\n        /* \"BeggingContract.sol\":2871:2875  true */\n      0x01\n        /* \"BeggingContract.sol\":2862:2868  locked */\n      0x02\n      0x00\n        /* \"BeggingContract.sol\":2862:2875  locked = true */\n      0x0100\n      exp\n      dup2\n      sload\n      dup2\n      0xff\n      mul\n      not\n      and\n      swap1\n      dup4\n      iszero\n      iszero\n      mul\n      or\n      swap1\n      sstore\n      pop\n        /* \"BeggingContract.sol\":3374:3389  uint256 balance */\n      0x00\n        /* \"BeggingContract.sol\":3392:3413  address(this).balance */\n      selfbalance\n        /* \"BeggingContract.sol\":3374:3413  uint256 balance = address(this).balance */\n      swap1\n      pop\n        /* \"BeggingContract.sol\":3442:3443  0 */\n      0x00\n        /* \"BeggingContract.sol\":3432:3439  balance */\n      dup2\n        /* \"BeggingContract.sol\":3432:3443  balance > 0 */\n      gt\n        /* \"BeggingContract.sol\":3424:3470  require(balance > 0, \"No balance to withdraw\") */\n      tag_47\n      jumpi\n      mload(0x40)\n      0x08c379a000000000000000000000000000000000000000000000000000000000\n      dup2\n      mstore\n      0x04\n      add\n      tag_48\n      swap1\n      tag_49\n      jump\t// in\n    tag_48:\n      mload(0x40)\n      dup1\n      swap2\n      sub\n      swap1\n      revert\n    tag_47:\n        /* \"BeggingContract.sol\":3507:3517  msg.sender */\n      caller\n        /* \"BeggingContract.sol\":3499:3527  payable(msg.sender).transfer */\n      0xffffffffffffffffffffffffffffffffffffffff\n      and\n        /* \"BeggingContract.sol\":3499:3536  payable(msg.sender).transfer(balance) */\n      0x08fc\n        /* \"BeggingContract.sol\":3528:3535  balance */\n      dup3\n        /* \"BeggingContract.sol\":3499:3536  payable(msg.sender).transfer(balance) */\n      swap1\n      dup2\n      iszero\n      mul\n      swap1\n      mload(0x40)\n      0x00\n      mload(0x40)\n      dup1\n      dup4\n      sub\n      dup2\n      dup6\n      dup9\n      dup9\n      call\n      swap4\n      pop\n      pop\n      pop\n      pop\n      iszero\n      dup1\n      iszero\n      tag_51\n      jumpi\n      returndatacopy(0x00, 0x00, returndatasize)\n      revert(0x00, returndatasize)\n    tag_51:\n      pop\n        /* \"BeggingContract.sol\":3321:3544  {... */\n      pop\n        /* \"BeggingContract.sol\":2907:2912  false */\n      0x00\n        /* \"BeggingContract.sol\":2898:2904  locked */\n      0x02\n      0x00\n        /* \"BeggingContract.sol\":2898:2912  locked = false */\n      0x0100\n      exp\n      dup2\n      sload\n      dup2\n      0xff\n      mul\n      not\n      and\n      swap1\n      dup4\n      iszero\n      iszero\n      mul\n      or\n      swap1\n      sstore\n      pop\n        /* \"BeggingContract.sol\":3269:3544  function withdraw() external onlyOwner noReentrancy {... */\n      jump\t// out\n        /* \"BeggingContract.sol\":3593:3700  function getDonation(address addr) external view returns(uint256) {... */\n    tag_17:\n        /* \"BeggingContract.sol\":3650:3657  uint256 */\n      0x00\n        /* \"BeggingContract.sol\":3677:3686  _balances */\n      0x01\n        /* \"BeggingContract.sol\":3677:3692  _balances[addr] */\n      0x00\n        /* \"BeggingContract.sol\":3687:3691  addr */\n      dup4\n        /* \"BeggingContract.sol\":3677:3692  _balances[addr] */\n      0xffffffffffffffffffffffffffffffffffffffff\n      and\n      0xffffffffffffffffffffffffffffffffffffffff\n      and\n      dup2\n      mstore\n      0x20\n      add\n      swap1\n      dup2\n      mstore\n      0x20\n      add\n      0x00\n      keccak256\n      sload\n        /* \"BeggingContract.sol\":3670:3692  return _balances[addr] */\n      swap1\n      pop\n        /* \"BeggingContract.sol\":3593:3700  function getDonation(address addr) external view returns(uint256) {... */\n      swap2\n      swap1\n      pop\n      jump\t// out\n        /* \"@openzeppelin/contracts/access/Ownable.sol\":2293:2394  function renounceOwnership() public virtual onlyOwner {... */\n    tag_22:\n        /* \"@openzeppelin/contracts/access/Ownable.sol\":1531:1544  _checkOwner() */\n      tag_54\n        /* \"@openzeppelin/contracts/access/Ownable.sol\":1531:1542  _checkOwner */\n      tag_41\n        /* \"@openzeppelin/contracts/access/Ownable.sol\":1531:1544  _checkOwner() */\n      jump\t// in\n    tag_54:\n        /* \"@openzeppelin/contracts/access/Ownable.sol\":2357:2387  _transferOwnership(address(0)) */\n      tag_56\n        /* \"@openzeppelin/contracts/access/Ownable.sol\":2384:2385  0 */\n      0x00\n        /* \"@openzeppelin/contracts/access/Ownable.sol\":2357:2375  _transferOwnership */\n      tag_57\n        /* \"@openzeppelin/contracts/access/Ownable.sol\":2357:2387  _transferOwnership(address(0)) */\n      jump\t// in\n    tag_56:\n        /* \"@openzeppelin/contracts/access/Ownable.sol\":2293:2394  function renounceOwnership() public virtual onlyOwner {... */\n      jump\t// out\n        /* \"@openzeppelin/contracts/access/Ownable.sol\":1638:1723  function owner() public view virtual returns (address) {... */\n    tag_25:\n        /* \"@openzeppelin/contracts/access/Ownable.sol\":1684:1691  address */\n      0x00\n        /* \"@openzeppelin/contracts/access/Ownable.sol\":1710:1716  _owner */\n      0x00\n      0x00\n      swap1\n      sload\n      swap1\n      0x0100\n      exp\n      swap1\n      div\n      0xffffffffffffffffffffffffffffffffffffffff\n      and\n        /* \"@openzeppelin/contracts/access/Ownable.sol\":1703:1716  return _owner */\n      swap1\n      pop\n        /* \"@openzeppelin/contracts/access/Ownable.sol\":1638:1723  function owner() public view virtual returns (address) {... */\n      swap1\n      jump\t// out\n        /* \"BeggingContract.sol\":3740:4095  function getTopDonors() external view returns (address[3] memory, uint256[3] memory) {... */\n    tag_30:\n        /* \"BeggingContract.sol\":3787:3804  address[3] memory */\n      tag_59\n      tag_60\n      jump\t// in\n    tag_59:\n        /* \"BeggingContract.sol\":3806:3823  uint256[3] memory */\n      tag_61\n      tag_62\n      jump\t// in\n    tag_61:\n        /* \"BeggingContract.sol\":3836:3860  address[3] memory donors */\n      tag_64\n      tag_60\n      jump\t// in\n    tag_64:\n        /* \"BeggingContract.sol\":3871:3896  uint256[3] memory amounts */\n      tag_65\n      tag_62\n      jump\t// in\n    tag_65:\n        /* \"BeggingContract.sol\":3912:3918  uint i */\n      0x00\n        /* \"BeggingContract.sol\":3921:3922  0 */\n      0x00\n        /* \"BeggingContract.sol\":3912:3922  uint i = 0 */\n      swap1\n      pop\n        /* \"BeggingContract.sol\":3907:4053  for (uint i = 0; i < topDonors.length; i++) {... */\n    tag_66:\n        /* \"BeggingContract.sol\":3928:3944  topDonors.length */\n      0x03\n        /* \"BeggingContract.sol\":3924:3925  i */\n      dup2\n        /* \"BeggingContract.sol\":3924:3944  i < topDonors.length */\n      lt\n        /* \"BeggingContract.sol\":3907:4053  for (uint i = 0; i < topDonors.length; i++) {... */\n      iszero\n      tag_67\n      jumpi\n        /* \"BeggingContract.sol\":3978:3987  topDonors */\n      0x03\n        /* \"BeggingContract.sol\":3988:3989  i */\n      dup2\n        /* \"BeggingContract.sol\":3978:3990  topDonors[i] */\n      0x03\n      dup2\n      lt\n      tag_69\n      jumpi\n      tag_70\n      tag_71\n      jump\t// in\n    tag_70:\n    tag_69:\n      add\n      0x00\n      swap1\n      sload\n      swap1\n      0x0100\n      exp\n      swap1\n      div\n      0xffffffffffffffffffffffffffffffffffffffff\n      and\n        /* \"BeggingContract.sol\":3966:3972  donors */\n      dup4\n        /* \"BeggingContract.sol\":3973:3974  i */\n      dup3\n        /* \"BeggingContract.sol\":3966:3975  donors[i] */\n      0x03\n      dup2\n      lt\n      tag_73\n      jumpi\n      tag_74\n      tag_71\n      jump\t// in\n    tag_74:\n    tag_73:\n      0x20\n      mul\n      add\n        /* \"BeggingContract.sol\":3966:3990  donors[i] = topDonors[i] */\n      swap1\n      0xffffffffffffffffffffffffffffffffffffffff\n      and\n      swap1\n      dup2\n      0xffffffffffffffffffffffffffffffffffffffff\n      and\n      dup2\n      mstore\n      pop\n      pop\n        /* \"BeggingContract.sol\":4018:4027  _balances */\n      0x01\n        /* \"BeggingContract.sol\":4018:4041  _balances[topDonors[i]] */\n      0x00\n        /* \"BeggingContract.sol\":4028:4037  topDonors */\n      0x03\n        /* \"BeggingContract.sol\":4038:4039  i */\n      dup4\n        /* \"BeggingContract.sol\":4028:4040  topDonors[i] */\n      0x03\n      dup2\n      lt\n      tag_75\n      jumpi\n      tag_76\n      tag_71\n      jump\t// in\n    tag_76:\n    tag_75:\n      add\n      0x00\n      swap1\n      sload\n      swap1\n      0x0100\n      exp\n      swap1\n      div\n      0xffffffffffffffffffffffffffffffffffffffff\n      and\n        /* \"BeggingContract.sol\":4018:4041  _balances[topDonors[i]] */\n      0xffffffffffffffffffffffffffffffffffffffff\n      and\n      0xffffffffffffffffffffffffffffffffffffffff\n      and\n      dup2\n      mstore\n      0x20\n      add\n      swap1\n      dup2\n      mstore\n      0x20\n      add\n      0x00\n      keccak256\n      sload\n        /* \"BeggingContract.sol\":4005:4012  amounts */\n      dup3\n        /* \"BeggingContract.sol\":4013:4014  i */\n      dup3\n        /* \"BeggingContract.sol\":4005:4015  amounts[i] */\n      0x03\n      dup2\n      lt\n      tag_78\n      jumpi\n      tag_79\n      tag_71\n      jump\t// in\n    tag_79:\n    tag_78:\n      0x20\n      mul\n      add\n        /* \"BeggingContract.sol\":4005:4041  amounts[i] = _balances[topDonors[i]] */\n      dup2\n      dup2\n      mstore\n      pop\n      pop\n        /* \"BeggingContract.sol\":3946:3949  i++ */\n      dup1\n      dup1\n      0x01\n      add\n      swap2\n      pop\n      pop\n        /* \"BeggingContract.sol\":3907:4053  for (uint i = 0; i < topDonors.length; i++) {... */\n      jump(tag_66)\n    tag_67:\n      pop\n        /* \"BeggingContract.sol\":4071:4077  donors */\n      dup2\n        /* \"BeggingContract.sol\":4079:4086  amounts */\n      dup2\n        /* \"BeggingContract.sol\":4063:4087  return (donors, amounts) */\n      swap4\n      pop\n      swap4\n      pop\n      pop\n      pop\n        /* \"BeggingContract.sol\":3740:4095  function getTopDonors() external view returns (address[3] memory, uint256[3] memory) {... */\n      swap1\n      swap2\n      jump\t// out\n        /* \"BeggingContract.sol\":2992:3220  function donate() external payable {... */\n    tag_34:\n        /* \"BeggingContract.sol\":3058:3059  0 */\n      0x00\n        /* \"BeggingContract.sol\":3046:3055  msg.value */\n      callvalue\n        /* \"BeggingContract.sol\":3046:3059  msg.value > 0 */\n      gt\n        /* \"BeggingContract.sol\":3038:3085  require(msg.value > 0, \"donate value must > 0\") */\n      tag_81\n      jumpi\n      mload(0x40)\n      0x08c379a000000000000000000000000000000000000000000000000000000000\n      dup2\n      mstore\n      0x04\n      add\n      tag_82\n      swap1\n      tag_83\n      jump\t// in\n    tag_82:\n      mload(0x40)\n      dup1\n      swap2\n      sub\n      swap1\n      revert\n    tag_81:\n        /* \"BeggingContract.sol\":3121:3130  msg.value */\n      callvalue\n        /* \"BeggingContract.sol\":3096:3105  _balances */\n      0x01\n        /* \"BeggingContract.sol\":3096:3117  _balances[msg.sender] */\n      0x00\n        /* \"BeggingContract.sol\":3106:3116  msg.sender */\n      caller\n        /* \"BeggingContract.sol\":3096:3117  _balances[msg.sender] */\n      0xffffffffffffffffffffffffffffffffffffffff\n      and\n      0xffffffffffffffffffffffffffffffffffffffff\n      and\n      dup2\n      mstore\n      0x20\n      add\n      swap1\n      dup2\n      mstore\n      0x20\n      add\n      0x00\n      keccak256\n      0x00\n        /* \"BeggingContract.sol\":3096:3130  _balances[msg.sender] += msg.value */\n      dup3\n      dup3\n      sload\n      tag_84\n      swap2\n      swap1\n      tag_85\n      jump\t// in\n    tag_84:\n      swap3\n      pop\n      pop\n      dup2\n      swap1\n      sstore\n      pop\n        /* \"BeggingContract.sol\":3141:3165  updateDonors(msg.sender) */\n      tag_86\n        /* \"BeggingContract.sol\":3154:3164  msg.sender */\n      caller\n        /* \"BeggingContract.sol\":3141:3153  updateDonors */\n      tag_87\n        /* \"BeggingContract.sol\":3141:3165  updateDonors(msg.sender) */\n      jump\t// in\n    tag_86:\n        /* \"BeggingContract.sol\":3190:3200  msg.sender */\n      caller\n        /* \"BeggingContract.sol\":3181:3212  Donation(msg.sender, msg.value) */\n      0xffffffffffffffffffffffffffffffffffffffff\n      and\n      0x5d8bc849764969eb1bcc6d0a2f55999d0167c1ccec240a4f39cf664ca9c4148e\n        /* \"BeggingContract.sol\":3202:3211  msg.value */\n      callvalue\n        /* \"BeggingContract.sol\":3181:3212  Donation(msg.sender, msg.value) */\n      mload(0x40)\n      tag_88\n      swap2\n      swap1\n      tag_19\n      jump\t// in\n    tag_88:\n      mload(0x40)\n      dup1\n      swap2\n      sub\n      swap1\n      log2\n        /* \"BeggingContract.sol\":2992:3220  function donate() external payable {... */\n      jump\t// out\n        /* \"@openzeppelin/contracts/access/Ownable.sol\":2543:2758  function transferOwnership(address newOwner) public virtual onlyOwner {... */\n    tag_38:\n        /* \"@openzeppelin/contracts/access/Ownable.sol\":1531:1544  _checkOwner() */\n      tag_90\n        /* \"@openzeppelin/contracts/access/Ownable.sol\":1531:1542  _checkOwner */\n      tag_41\n        /* \"@openzeppelin/contracts/access/Ownable.sol\":1531:1544  _checkOwner() */\n      jump\t// in\n    tag_90:\n        /* \"@openzeppelin/contracts/access/Ownable.sol\":2647:2648  0 */\n      0x00\n        /* \"@openzeppelin/contracts/access/Ownable.sol\":2627:2649  newOwner == address(0) */\n      0xffffffffffffffffffffffffffffffffffffffff\n      and\n        /* \"@openzeppelin/contracts/access/Ownable.sol\":2627:2635  newOwner */\n      dup2\n        /* \"@openzeppelin/contracts/access/Ownable.sol\":2627:2649  newOwner == address(0) */\n      0xffffffffffffffffffffffffffffffffffffffff\n      and\n      sub\n        /* \"@openzeppelin/contracts/access/Ownable.sol\":2623:2714  if (newOwner == address(0)) {... */\n      tag_92\n      jumpi\n        /* \"@openzeppelin/contracts/access/Ownable.sol\":2700:2701  0 */\n      0x00\n        /* \"@openzeppelin/contracts/access/Ownable.sol\":2672:2703  OwnableInvalidOwner(address(0)) */\n      mload(0x40)\n      0x1e4fbdf700000000000000000000000000000000000000000000000000000000\n      dup2\n      mstore\n      0x04\n      add\n      tag_93\n      swap2\n      swap1\n      tag_27\n      jump\t// in\n    tag_93:\n      mload(0x40)\n      dup1\n      swap2\n      sub\n      swap1\n      revert\n        /* \"@openzeppelin/contracts/access/Ownable.sol\":2623:2714  if (newOwner == address(0)) {... */\n    tag_92:\n        /* \"@openzeppelin/contracts/access/Ownable.sol\":2723:2751  _transferOwnership(newOwner) */\n      tag_94\n        /* \"@openzeppelin/contracts/access/Ownable.sol\":2742:2750  newOwner */\n      dup2\n        /* \"@openzeppelin/contracts/access/Ownable.sol\":2723:2741  _transferOwnership */\n      tag_57\n        /* \"@openzeppelin/contracts/access/Ownable.sol\":2723:2751  _transferOwnership(newOwner) */\n      jump\t// in\n    tag_94:\n        /* \"@openzeppelin/contracts/access/Ownable.sol\":2543:2758  function transferOwnership(address newOwner) public virtual onlyOwner {... */\n      pop\n      jump\t// out\n        /* \"@openzeppelin/contracts/access/Ownable.sol\":1796:1958  function _checkOwner() internal view virtual {... */\n    tag_41:\n        /* \"@openzeppelin/contracts/access/Ownable.sol\":1866:1878  _msgSender() */\n      tag_96\n        /* \"@openzeppelin/contracts/access/Ownable.sol\":1866:1876  _msgSender */\n      tag_97\n        /* \"@openzeppelin/contracts/access/Ownable.sol\":1866:1878  _msgSender() */\n      jump\t// in\n    tag_96:\n        /* \"@openzeppelin/contracts/access/Ownable.sol\":1855:1878  owner() != _msgSender() */\n      0xffffffffffffffffffffffffffffffffffffffff\n      and\n        /* \"@openzeppelin/contracts/access/Ownable.sol\":1855:1862  owner() */\n      tag_98\n        /* \"@openzeppelin/contracts/access/Ownable.sol\":1855:1860  owner */\n      tag_25\n        /* \"@openzeppelin/contracts/access/Ownable.sol\":1855:1862  owner() */\n      jump\t// in\n    tag_98:\n        /* \"@openzeppelin/contracts/access/Ownable.sol\":1855:1878  owner() != _msgSender() */\n      0xffffffffffffffffffffffffffffffffffffffff\n      and\n      eq\n        /* \"@openzeppelin/contracts/access/Ownable.sol\":1851:1952  if (owner() != _msgSender()) {... */\n      tag_99\n      jumpi\n        /* \"@openzeppelin/contracts/access/Ownable.sol\":1928:1940  _msgSender() */\n      tag_100\n        /* \"@openzeppelin/contracts/access/Ownable.sol\":1928:1938  _msgSender */\n      tag_97\n        /* \"@openzeppelin/contracts/access/Ownable.sol\":1928:1940  _msgSender() */\n      jump\t// in\n    tag_100:\n        /* \"@openzeppelin/contracts/access/Ownable.sol\":1901:1941  OwnableUnauthorizedAccount(_msgSender()) */\n      mload(0x40)\n      0x118cdaa700000000000000000000000000000000000000000000000000000000\n      dup2\n      mstore\n      0x04\n      add\n      tag_101\n      swap2\n      swap1\n      tag_27\n      jump\t// in\n    tag_101:\n      mload(0x40)\n      dup1\n      swap2\n      sub\n      swap1\n      revert\n        /* \"@openzeppelin/contracts/access/Ownable.sol\":1851:1952  if (owner() != _msgSender()) {... */\n    tag_99:\n        /* \"@openzeppelin/contracts/access/Ownable.sol\":1796:1958  function _checkOwner() internal view virtual {... */\n      jump\t// out\n        /* \"@openzeppelin/contracts/access/Ownable.sol\":2912:3099  function _transferOwnership(address newOwner) internal virtual {... */\n    tag_57:\n        /* \"@openzeppelin/contracts/access/Ownable.sol\":2985:3001  address oldOwner */\n      0x00\n        /* \"@openzeppelin/contracts/access/Ownable.sol\":3004:3010  _owner */\n      0x00\n      0x00\n      swap1\n      sload\n      swap1\n      0x0100\n      exp\n      swap1\n      div\n      0xffffffffffffffffffffffffffffffffffffffff\n      and\n        /* \"@openzeppelin/contracts/access/Ownable.sol\":2985:3010  address oldOwner = _owner */\n      swap1\n      pop\n        /* \"@openzeppelin/contracts/access/Ownable.sol\":3029:3037  newOwner */\n      dup2\n        /* \"@openzeppelin/contracts/access/Ownable.sol\":3020:3026  _owner */\n      0x00\n      0x00\n        /* \"@openzeppelin/contracts/access/Ownable.sol\":3020:3037  _owner = newOwner */\n      0x0100\n      exp\n      dup2\n      sload\n      dup2\n      0xffffffffffffffffffffffffffffffffffffffff\n      mul\n      not\n      and\n      swap1\n      dup4\n      0xffffffffffffffffffffffffffffffffffffffff\n      and\n      mul\n      or\n      swap1\n      sstore\n      pop\n        /* \"@openzeppelin/contracts/access/Ownable.sol\":3083:3091  newOwner */\n      dup2\n        /* \"@openzeppelin/contracts/access/Ownable.sol\":3052:3092  OwnershipTransferred(oldOwner, newOwner) */\n      0xffffffffffffffffffffffffffffffffffffffff\n      and\n        /* \"@openzeppelin/contracts/access/Ownable.sol\":3073:3081  oldOwner */\n      dup2\n        /* \"@openzeppelin/contracts/access/Ownable.sol\":3052:3092  OwnershipTransferred(oldOwner, newOwner) */\n      0xffffffffffffffffffffffffffffffffffffffff\n      and\n      0x8be0079c531659141344cd1fd0a4f28419497f9722a3daafe3b4186f6b6457e0\n      mload(0x40)\n      mload(0x40)\n      dup1\n      swap2\n      sub\n      swap1\n      log3\n        /* \"@openzeppelin/contracts/access/Ownable.sol\":2975:3099  {... */\n      pop\n        /* \"@openzeppelin/contracts/access/Ownable.sol\":2912:3099  function _transferOwnership(address newOwner) internal virtual {... */\n      pop\n      jump\t// out\n        /* \"BeggingContract.sol\":4126:4754  function updateDonors(address donorAddr) internal {... */\n    tag_87:\n        /* \"BeggingContract.sol\":4213:4214  0 */\n      0x00\n        /* \"BeggingContract.sol\":4193:4209  topDonors.length */\n      0x03\n        /* \"BeggingContract.sol\":4193:4214  topDonors.length == 0 */\n      sub\n        /* \"BeggingContract.sol\":4189:4747  if (topDonors.length == 0) {... */\n      tag_104\n      jumpi\n        /* \"BeggingContract.sol\":4246:4255  donorAddr */\n      dup1\n        /* \"BeggingContract.sol\":4231:4240  topDonors */\n      0x03\n        /* \"BeggingContract.sol\":4241:4242  0 */\n      0x00\n        /* \"BeggingContract.sol\":4231:4243  topDonors[0] */\n      0x03\n      dup2\n      lt\n      tag_105\n      jumpi\n      tag_106\n      tag_71\n      jump\t// in\n    tag_106:\n    tag_105:\n      add\n      0x00\n        /* \"BeggingContract.sol\":4231:4255  topDonors[0] = donorAddr */\n      0x0100\n      exp\n      dup2\n      sload\n      dup2\n      0xffffffffffffffffffffffffffffffffffffffff\n      mul\n      not\n      and\n      swap1\n      dup4\n      0xffffffffffffffffffffffffffffffffffffffff\n      and\n      mul\n      or\n      swap1\n      sstore\n      pop\n        /* \"BeggingContract.sol\":4189:4747  if (topDonors.length == 0) {... */\n      jump(tag_108)\n    tag_104:\n        /* \"BeggingContract.sol\":4297:4298  1 */\n      0x01\n        /* \"BeggingContract.sol\":4277:4293  topDonors.length */\n      0x03\n        /* \"BeggingContract.sol\":4277:4298  topDonors.length == 1 */\n      sub\n        /* \"BeggingContract.sol\":4273:4747  if (topDonors.length == 1) {... */\n      tag_109\n      jumpi\n        /* \"BeggingContract.sol\":4330:4339  donorAddr */\n      dup1\n        /* \"BeggingContract.sol\":4315:4324  topDonors */\n      0x03\n        /* \"BeggingContract.sol\":4325:4326  1 */\n      0x01\n        /* \"BeggingContract.sol\":4315:4327  topDonors[1] */\n      0x03\n      dup2\n      lt\n      tag_110\n      jumpi\n      tag_111\n      tag_71\n      jump\t// in\n    tag_111:\n    tag_110:\n      add\n      0x00\n        /* \"BeggingContract.sol\":4315:4339  topDonors[1] = donorAddr */\n      0x0100\n      exp\n      dup2\n      sload\n      dup2\n      0xffffffffffffffffffffffffffffffffffffffff\n      mul\n      not\n      and\n      swap1\n      dup4\n      0xffffffffffffffffffffffffffffffffffffffff\n      and\n      mul\n      or\n      swap1\n      sstore\n      pop\n        /* \"BeggingContract.sol\":4354:4368  sortedDonors() */\n      tag_113\n        /* \"BeggingContract.sol\":4354:4366  sortedDonors */\n      tag_114\n        /* \"BeggingContract.sol\":4354:4368  sortedDonors() */\n      jump\t// in\n    tag_113:\n        /* \"BeggingContract.sol\":4273:4747  if (topDonors.length == 1) {... */\n      jump(tag_115)\n    tag_109:\n        /* \"BeggingContract.sol\":4410:4411  2 */\n      0x02\n        /* \"BeggingContract.sol\":4390:4406  topDonors.length */\n      0x03\n        /* \"BeggingContract.sol\":4390:4411  topDonors.length == 2 */\n      sub\n        /* \"BeggingContract.sol\":4386:4747  if (topDonors.length == 2) {... */\n      tag_116\n      jumpi\n        /* \"BeggingContract.sol\":4443:4452  donorAddr */\n      dup1\n        /* \"BeggingContract.sol\":4428:4437  topDonors */\n      0x03\n        /* \"BeggingContract.sol\":4438:4439  2 */\n      0x02\n        /* \"BeggingContract.sol\":4428:4440  topDonors[2] */\n      0x03\n      dup2\n      lt\n      tag_117\n      jumpi\n      tag_118\n      tag_71\n      jump\t// in\n    tag_118:\n    tag_117:\n      add\n      0x00\n        /* \"BeggingContract.sol\":4428:4452  topDonors[2] = donorAddr */\n      0x0100\n      exp\n      dup2\n      sload\n      dup2\n      0xffffffffffffffffffffffffffffffffffffffff\n      mul\n      not\n      and\n      swap1\n      dup4\n      0xffffffffffffffffffffffffffffffffffffffff\n      and\n      mul\n      or\n      swap1\n      sstore\n      pop\n        /* \"BeggingContract.sol\":4467:4481  sortedDonors() */\n      tag_120\n        /* \"BeggingContract.sol\":4467:4479  sortedDonors */\n      tag_114\n        /* \"BeggingContract.sol\":4467:4481  sortedDonors() */\n      jump\t// in\n    tag_120:\n        /* \"BeggingContract.sol\":4386:4747  if (topDonors.length == 2) {... */\n      jump(tag_121)\n    tag_116:\n        /* \"BeggingContract.sol\":4523:4524  3 */\n      0x03\n        /* \"BeggingContract.sol\":4503:4519  topDonors.length */\n      dup1\n        /* \"BeggingContract.sol\":4503:4524  topDonors.length == 3 */\n      sub\n        /* \"BeggingContract.sol\":4499:4747  if (topDonors.length == 3) {... */\n      tag_122\n      jumpi\n        /* \"BeggingContract.sol\":4541:4561  uint256 donorBalance */\n      0x00\n        /* \"BeggingContract.sol\":4564:4573  _balances */\n      0x01\n        /* \"BeggingContract.sol\":4564:4584  _balances[donorAddr] */\n      0x00\n        /* \"BeggingContract.sol\":4574:4583  donorAddr */\n      dup4\n        /* \"BeggingContract.sol\":4564:4584  _balances[donorAddr] */\n      0xffffffffffffffffffffffffffffffffffffffff\n      and\n      0xffffffffffffffffffffffffffffffffffffffff\n      and\n      dup2\n      mstore\n      0x20\n      add\n      swap1\n      dup2\n      mstore\n      0x20\n      add\n      0x00\n      keccak256\n      sload\n        /* \"BeggingContract.sol\":4541:4584  uint256 donorBalance = _balances[donorAddr] */\n      swap1\n      pop\n        /* \"BeggingContract.sol\":4619:4628  _balances */\n      0x01\n        /* \"BeggingContract.sol\":4619:4642  _balances[topDonors[2]] */\n      0x00\n        /* \"BeggingContract.sol\":4629:4638  topDonors */\n      0x03\n        /* \"BeggingContract.sol\":4639:4640  2 */\n      0x02\n        /* \"BeggingContract.sol\":4629:4641  topDonors[2] */\n      0x03\n      dup2\n      lt\n      tag_123\n      jumpi\n      tag_124\n      tag_71\n      jump\t// in\n    tag_124:\n    tag_123:\n      add\n      0x00\n      swap1\n      sload\n      swap1\n      0x0100\n      exp\n      swap1\n      div\n      0xffffffffffffffffffffffffffffffffffffffff\n      and\n        /* \"BeggingContract.sol\":4619:4642  _balances[topDonors[2]] */\n      0xffffffffffffffffffffffffffffffffffffffff\n      and\n      0xffffffffffffffffffffffffffffffffffffffff\n      and\n      dup2\n      mstore\n      0x20\n      add\n      swap1\n      dup2\n      mstore\n      0x20\n      add\n      0x00\n      keccak256\n      sload\n        /* \"BeggingContract.sol\":4603:4615  donorBalance */\n      dup2\n        /* \"BeggingContract.sol\":4603:4642  donorBalance >= _balances[topDonors[2]] */\n      lt\n        /* \"BeggingContract.sol\":4599:4736  if (donorBalance >= _balances[topDonors[2]]) {... */\n      tag_126\n      jumpi\n        /* \"BeggingContract.sol\":4678:4687  donorAddr */\n      dup2\n        /* \"BeggingContract.sol\":4663:4672  topDonors */\n      0x03\n        /* \"BeggingContract.sol\":4673:4674  2 */\n      0x02\n        /* \"BeggingContract.sol\":4663:4675  topDonors[2] */\n      0x03\n      dup2\n      lt\n      tag_127\n      jumpi\n      tag_128\n      tag_71\n      jump\t// in\n    tag_128:\n    tag_127:\n      add\n      0x00\n        /* \"BeggingContract.sol\":4663:4687  topDonors[2] = donorAddr */\n      0x0100\n      exp\n      dup2\n      sload\n      dup2\n      0xffffffffffffffffffffffffffffffffffffffff\n      mul\n      not\n      and\n      swap1\n      dup4\n      0xffffffffffffffffffffffffffffffffffffffff\n      and\n      mul\n      or\n      swap1\n      sstore\n      pop\n        /* \"BeggingContract.sol\":4706:4720  sortedDonors() */\n      tag_130\n        /* \"BeggingContract.sol\":4706:4718  sortedDonors */\n      tag_114\n        /* \"BeggingContract.sol\":4706:4720  sortedDonors() */\n      jump\t// in\n    tag_130:\n        /* \"BeggingContract.sol\":4599:4736  if (donorBalance >= _balances[topDonors[2]]) {... */\n    tag_126:\n        /* \"BeggingContract.sol\":4526:4747  {... */\n      pop\n        /* \"BeggingContract.sol\":4499:4747  if (topDonors.length == 3) {... */\n    tag_122:\n        /* \"BeggingContract.sol\":4386:4747  if (topDonors.length == 2) {... */\n    tag_121:\n        /* \"BeggingContract.sol\":4273:4747  if (topDonors.length == 1) {... */\n    tag_115:\n        /* \"BeggingContract.sol\":4189:4747  if (topDonors.length == 0) {... */\n    tag_108:\n        /* \"BeggingContract.sol\":4126:4754  function updateDonors(address donorAddr) internal {... */\n      pop\n      jump\t// out\n        /* \"@openzeppelin/contracts/utils/Context.sol\":656:752  function _msgSender() internal view virtual returns (address) {... */\n    tag_97:\n        /* \"@openzeppelin/contracts/utils/Context.sol\":709:716  address */\n      0x00\n        /* \"@openzeppelin/contracts/utils/Context.sol\":735:745  msg.sender */\n      caller\n        /* \"@openzeppelin/contracts/utils/Context.sol\":728:745  return msg.sender */\n      swap1\n      pop\n        /* \"@openzeppelin/contracts/utils/Context.sol\":656:752  function _msgSender() internal view virtual returns (address) {... */\n      swap1\n      jump\t// out\n        /* \"BeggingContract.sol\":4776:5214  function sortedDonors() internal {... */\n    tag_114:\n        /* \"BeggingContract.sol\":4825:4831  uint i */\n      0x00\n        /* \"BeggingContract.sol\":4834:4835  0 */\n      0x00\n        /* \"BeggingContract.sol\":4825:4835  uint i = 0 */\n      swap1\n      pop\n        /* \"BeggingContract.sol\":4820:5188  for (uint i = 0; i < topDonors.length; i++){... */\n    tag_133:\n        /* \"BeggingContract.sol\":4841:4857  topDonors.length */\n      0x03\n        /* \"BeggingContract.sol\":4837:4838  i */\n      dup2\n        /* \"BeggingContract.sol\":4837:4857  i < topDonors.length */\n      lt\n        /* \"BeggingContract.sol\":4820:5188  for (uint i = 0; i < topDonors.length; i++){... */\n      iszero\n      tag_134\n      jumpi\n        /* \"BeggingContract.sol\":4883:4889  uint j */\n      0x00\n        /* \"BeggingContract.sol\":4896:4897  1 */\n      0x01\n        /* \"BeggingContract.sol\":4892:4893  i */\n      dup3\n        /* \"BeggingContract.sol\":4892:4897  i + 1 */\n      tag_139\n      swap2\n      swap1\n      tag_85\n      jump\t// in\n    tag_139:\n        /* \"BeggingContract.sol\":4883:4897  uint j = i + 1 */\n      swap1\n      pop\n        /* \"BeggingContract.sol\":4878:5177  for (uint j = i + 1; j < topDonors.length; j++) {... */\n    tag_136:\n        /* \"BeggingContract.sol\":4903:4919  topDonors.length */\n      0x03\n        /* \"BeggingContract.sol\":4899:4900  j */\n      dup2\n        /* \"BeggingContract.sol\":4899:4919  j < topDonors.length */\n      lt\n        /* \"BeggingContract.sol\":4878:5177  for (uint j = i + 1; j < topDonors.length; j++) {... */\n      iszero\n      tag_137\n      jumpi\n        /* \"BeggingContract.sol\":4975:4984  _balances */\n      0x01\n        /* \"BeggingContract.sol\":4975:4998  _balances[topDonors[j]] */\n      0x00\n        /* \"BeggingContract.sol\":4985:4994  topDonors */\n      0x03\n        /* \"BeggingContract.sol\":4995:4996  j */\n      dup4\n        /* \"BeggingContract.sol\":4985:4997  topDonors[j] */\n      0x03\n      dup2\n      lt\n      tag_140\n      jumpi\n      tag_141\n      tag_71\n      jump\t// in\n    tag_141:\n    tag_140:\n      add\n      0x00\n      swap1\n      sload\n      swap1\n      0x0100\n      exp\n      swap1\n      div\n      0xffffffffffffffffffffffffffffffffffffffff\n      and\n        /* \"BeggingContract.sol\":4975:4998  _balances[topDonors[j]] */\n      0xffffffffffffffffffffffffffffffffffffffff\n      and\n      0xffffffffffffffffffffffffffffffffffffffff\n      and\n      dup2\n      mstore\n      0x20\n      add\n      swap1\n      dup2\n      mstore\n      0x20\n      add\n      0x00\n      keccak256\n      sload\n        /* \"BeggingContract.sol\":4949:4958  _balances */\n      0x01\n        /* \"BeggingContract.sol\":4949:4972  _balances[topDonors[i]] */\n      0x00\n        /* \"BeggingContract.sol\":4959:4968  topDonors */\n      0x03\n        /* \"BeggingContract.sol\":4969:4970  i */\n      dup6\n        /* \"BeggingContract.sol\":4959:4971  topDonors[i] */\n      0x03\n      dup2\n      lt\n      tag_143\n      jumpi\n      tag_144\n      tag_71\n      jump\t// in\n    tag_144:\n    tag_143:\n      add\n      0x00\n      swap1\n      sload\n      swap1\n      0x0100\n      exp\n      swap1\n      div\n      0xffffffffffffffffffffffffffffffffffffffff\n      and\n        /* \"BeggingContract.sol\":4949:4972  _balances[topDonors[i]] */\n      0xffffffffffffffffffffffffffffffffffffffff\n      and\n      0xffffffffffffffffffffffffffffffffffffffff\n      and\n      dup2\n      mstore\n      0x20\n      add\n      swap1\n      dup2\n      mstore\n      0x20\n      add\n      0x00\n      keccak256\n      sload\n        /* \"BeggingContract.sol\":4949:4998  _balances[topDonors[i]] < _balances[topDonors[j]] */\n      lt\n        /* \"BeggingContract.sol\":4945:5162  if (_balances[topDonors[i]] < _balances[topDonors[j]]) {... */\n      iszero\n      tag_146\n      jumpi\n        /* \"BeggingContract.sol\":5023:5035  address temp */\n      0x00\n        /* \"BeggingContract.sol\":5038:5047  topDonors */\n      0x03\n        /* \"BeggingContract.sol\":5048:5049  i */\n      dup4\n        /* \"BeggingContract.sol\":5038:5050  topDonors[i] */\n      0x03\n      dup2\n      lt\n      tag_147\n      jumpi\n      tag_148\n      tag_71\n      jump\t// in\n    tag_148:\n    tag_147:\n      add\n      0x00\n      swap1\n      sload\n      swap1\n      0x0100\n      exp\n      swap1\n      div\n      0xffffffffffffffffffffffffffffffffffffffff\n      and\n        /* \"BeggingContract.sol\":5023:5050  address temp = topDonors[i] */\n      swap1\n      pop\n        /* \"BeggingContract.sol\":5088:5097  topDonors */\n      0x03\n        /* \"BeggingContract.sol\":5098:5099  j */\n      dup3\n        /* \"BeggingContract.sol\":5088:5100  topDonors[j] */\n      0x03\n      dup2\n      lt\n      tag_150\n      jumpi\n      tag_151\n      tag_71\n      jump\t// in\n    tag_151:\n    tag_150:\n      add\n      0x00\n      swap1\n      sload\n      swap1\n      0x0100\n      exp\n      swap1\n      div\n      0xffffffffffffffffffffffffffffffffffffffff\n      and\n        /* \"BeggingContract.sol\":5073:5082  topDonors */\n      0x03\n        /* \"BeggingContract.sol\":5083:5084  i */\n      dup5\n        /* \"BeggingContract.sol\":5073:5085  topDonors[i] */\n      0x03\n      dup2\n      lt\n      tag_153\n      jumpi\n      tag_154\n      tag_71\n      jump\t// in\n    tag_154:\n    tag_153:\n      add\n      0x00\n        /* \"BeggingContract.sol\":5073:5100  topDonors[i] = topDonors[j] */\n      0x0100\n      exp\n      dup2\n      sload\n      dup2\n      0xffffffffffffffffffffffffffffffffffffffff\n      mul\n      not\n      and\n      swap1\n      dup4\n      0xffffffffffffffffffffffffffffffffffffffff\n      and\n      mul\n      or\n      swap1\n      sstore\n      pop\n        /* \"BeggingContract.sol\":5138:5142  temp */\n      dup1\n        /* \"BeggingContract.sol\":5123:5132  topDonors */\n      0x03\n        /* \"BeggingContract.sol\":5133:5134  j */\n      dup4\n        /* \"BeggingContract.sol\":5123:5135  topDonors[j] */\n      0x03\n      dup2\n      lt\n      tag_156\n      jumpi\n      tag_157\n      tag_71\n      jump\t// in\n    tag_157:\n    tag_156:\n      add\n      0x00\n        /* \"BeggingContract.sol\":5123:5142  topDonors[j] = temp */\n      0x0100\n      exp\n      dup2\n      sload\n      dup2\n      0xffffffffffffffffffffffffffffffffffffffff\n      mul\n      not\n      and\n      swap1\n      dup4\n      0xffffffffffffffffffffffffffffffffffffffff\n      and\n      mul\n      or\n      swap1\n      sstore\n      pop\n        /* \"BeggingContract.sol\":5000:5162  {... */\n      pop\n        /* \"BeggingContract.sol\":4945:5162  if (_balances[topDonors[i]] < _balances[topDonors[j]]) {... */\n    tag_146:\n        /* \"BeggingContract.sol\":4921:4924  j++ */\n      dup1\n      dup1\n      0x01\n      add\n      swap2\n      pop\n      pop\n        /* \"BeggingContract.sol\":4878:5177  for (uint j = i + 1; j < topDonors.length; j++) {... */\n      jump(tag_136)\n    tag_137:\n      pop\n        /* \"BeggingContract.sol\":4859:4862  i++ */\n      dup1\n      dup1\n      0x01\n      add\n      swap2\n      pop\n      pop\n        /* \"BeggingContract.sol\":4820:5188  for (uint i = 0; i < topDonors.length; i++){... */\n      jump(tag_133)\n    tag_134:\n      pop\n        /* \"BeggingContract.sol\":4776:5214  function sortedDonors() internal {... */\n      jump\t// out\n    tag_60:\n      mload(0x40)\n      dup1\n      0x60\n      add\n      0x40\n      mstore\n      dup1\n      0x03\n      swap1\n      0x20\n      dup3\n      mul\n      dup1\n      calldatasize\n      dup4\n      calldatacopy\n      dup1\n      dup3\n      add\n      swap2\n      pop\n      pop\n      swap1\n      pop\n      pop\n      swap1\n      jump\t// out\n    tag_62:\n      mload(0x40)\n      dup1\n      0x60\n      add\n      0x40\n      mstore\n      dup1\n      0x03\n      swap1\n      0x20\n      dup3\n      mul\n      dup1\n      calldatasize\n      dup4\n      calldatacopy\n      dup1\n      dup3\n      add\n      swap2\n      pop\n      pop\n      swap1\n      pop\n      pop\n      swap1\n      jump\t// out\n        /* \"#utility.yul\":88:205   */\n    tag_160:\n        /* \"#utility.yul\":197:198   */\n      0x00\n        /* \"#utility.yul\":194:195   */\n      0x00\n        /* \"#utility.yul\":187:199   */\n      revert\n        /* \"#utility.yul\":334:460   */\n    tag_162:\n        /* \"#utility.yul\":371:378   */\n      0x00\n        /* \"#utility.yul\":411:453   */\n      0xffffffffffffffffffffffffffffffffffffffff\n        /* \"#utility.yul\":404:409   */\n      dup3\n        /* \"#utility.yul\":400:454   */\n      and\n        /* \"#utility.yul\":389:454   */\n      swap1\n      pop\n        /* \"#utility.yul\":334:460   */\n      swap2\n      swap1\n      pop\n      jump\t// out\n        /* \"#utility.yul\":466:562   */\n    tag_163:\n        /* \"#utility.yul\":503:510   */\n      0x00\n        /* \"#utility.yul\":532:556   */\n      tag_197\n        /* \"#utility.yul\":550:555   */\n      dup3\n        /* \"#utility.yul\":532:556   */\n      tag_162\n      jump\t// in\n    tag_197:\n        /* \"#utility.yul\":521:556   */\n      swap1\n      pop\n        /* \"#utility.yul\":466:562   */\n      swap2\n      swap1\n      pop\n      jump\t// out\n        /* \"#utility.yul\":568:690   */\n    tag_164:\n        /* \"#utility.yul\":641:665   */\n      tag_199\n        /* \"#utility.yul\":659:664   */\n      dup2\n        /* \"#utility.yul\":641:665   */\n      tag_163\n      jump\t// in\n    tag_199:\n        /* \"#utility.yul\":634:639   */\n      dup2\n        /* \"#utility.yul\":631:666   */\n      eq\n        /* \"#utility.yul\":621:684   */\n      tag_200\n      jumpi\n        /* \"#utility.yul\":680:681   */\n      0x00\n        /* \"#utility.yul\":677:678   */\n      0x00\n        /* \"#utility.yul\":670:682   */\n      revert\n        /* \"#utility.yul\":621:684   */\n    tag_200:\n        /* \"#utility.yul\":568:690   */\n      pop\n      jump\t// out\n        /* \"#utility.yul\":696:835   */\n    tag_165:\n        /* \"#utility.yul\":742:747   */\n      0x00\n        /* \"#utility.yul\":780:786   */\n      dup2\n        /* \"#utility.yul\":767:787   */\n      calldataload\n        /* \"#utility.yul\":758:787   */\n      swap1\n      pop\n        /* \"#utility.yul\":796:829   */\n      tag_202\n        /* \"#utility.yul\":823:828   */\n      dup2\n        /* \"#utility.yul\":796:829   */\n      tag_164\n      jump\t// in\n    tag_202:\n        /* \"#utility.yul\":696:835   */\n      swap3\n      swap2\n      pop\n      pop\n      jump\t// out\n        /* \"#utility.yul\":841:1170   */\n    tag_16:\n        /* \"#utility.yul\":900:906   */\n      0x00\n        /* \"#utility.yul\":949:951   */\n      0x20\n        /* \"#utility.yul\":937:946   */\n      dup3\n        /* \"#utility.yul\":928:935   */\n      dup5\n        /* \"#utility.yul\":924:947   */\n      sub\n        /* \"#utility.yul\":920:952   */\n      slt\n        /* \"#utility.yul\":917:1036   */\n      iszero\n      tag_204\n      jumpi\n        /* \"#utility.yul\":955:1034   */\n      tag_205\n      tag_160\n      jump\t// in\n    tag_205:\n        /* \"#utility.yul\":917:1036   */\n    tag_204:\n        /* \"#utility.yul\":1075:1076   */\n      0x00\n        /* \"#utility.yul\":1100:1153   */\n      tag_206\n        /* \"#utility.yul\":1145:1152   */\n      dup5\n        /* \"#utility.yul\":1136:1142   */\n      dup3\n        /* \"#utility.yul\":1125:1134   */\n      dup6\n        /* \"#utility.yul\":1121:1143   */\n      add\n        /* \"#utility.yul\":1100:1153   */\n      tag_165\n      jump\t// in\n    tag_206:\n        /* \"#utility.yul\":1090:1153   */\n      swap2\n      pop\n        /* \"#utility.yul\":1046:1163   */\n      pop\n        /* \"#utility.yul\":841:1170   */\n      swap3\n      swap2\n      pop\n      pop\n      jump\t// out\n        /* \"#utility.yul\":1176:1253   */\n    tag_166:\n        /* \"#utility.yul\":1213:1220   */\n      0x00\n        /* \"#utility.yul\":1242:1247   */\n      dup2\n        /* \"#utility.yul\":1231:1247   */\n      swap1\n      pop\n        /* \"#utility.yul\":1176:1253   */\n      swap2\n      swap1\n      pop\n      jump\t// out\n        /* \"#utility.yul\":1259:1377   */\n    tag_167:\n        /* \"#utility.yul\":1346:1370   */\n      tag_209\n        /* \"#utility.yul\":1364:1369   */\n      dup2\n        /* \"#utility.yul\":1346:1370   */\n      tag_166\n      jump\t// in\n    tag_209:\n        /* \"#utility.yul\":1341:1344   */\n      dup3\n        /* \"#utility.yul\":1334:1371   */\n      mstore\n        /* \"#utility.yul\":1259:1377   */\n      pop\n      pop\n      jump\t// out\n        /* \"#utility.yul\":1383:1605   */\n    tag_19:\n        /* \"#utility.yul\":1476:1480   */\n      0x00\n        /* \"#utility.yul\":1514:1516   */\n      0x20\n        /* \"#utility.yul\":1503:1512   */\n      dup3\n        /* \"#utility.yul\":1499:1517   */\n      add\n        /* \"#utility.yul\":1491:1517   */\n      swap1\n      pop\n        /* \"#utility.yul\":1527:1598   */\n      tag_211\n        /* \"#utility.yul\":1595:1596   */\n      0x00\n        /* \"#utility.yul\":1584:1593   */\n      dup4\n        /* \"#utility.yul\":1580:1597   */\n      add\n        /* \"#utility.yul\":1571:1577   */\n      dup5\n        /* \"#utility.yul\":1527:1598   */\n      tag_167\n      jump\t// in\n    tag_211:\n        /* \"#utility.yul\":1383:1605   */\n      swap3\n      swap2\n      pop\n      pop\n      jump\t// out\n        /* \"#utility.yul\":1611:1729   */\n    tag_168:\n        /* \"#utility.yul\":1698:1722   */\n      tag_213\n        /* \"#utility.yul\":1716:1721   */\n      dup2\n        /* \"#utility.yul\":1698:1722   */\n      tag_163\n      jump\t// in\n    tag_213:\n        /* \"#utility.yul\":1693:1696   */\n      dup3\n        /* \"#utility.yul\":1686:1723   */\n      mstore\n        /* \"#utility.yul\":1611:1729   */\n      pop\n      pop\n      jump\t// out\n        /* \"#utility.yul\":1735:1957   */\n    tag_27:\n        /* \"#utility.yul\":1828:1832   */\n      0x00\n        /* \"#utility.yul\":1866:1868   */\n      0x20\n        /* \"#utility.yul\":1855:1864   */\n      dup3\n        /* \"#utility.yul\":1851:1869   */\n      add\n        /* \"#utility.yul\":1843:1869   */\n      swap1\n      pop\n        /* \"#utility.yul\":1879:1950   */\n      tag_215\n        /* \"#utility.yul\":1947:1948   */\n      0x00\n        /* \"#utility.yul\":1936:1945   */\n      dup4\n        /* \"#utility.yul\":1932:1949   */\n      add\n        /* \"#utility.yul\":1923:1929   */\n      dup5\n        /* \"#utility.yul\":1879:1950   */\n      tag_168\n      jump\t// in\n    tag_215:\n        /* \"#utility.yul\":1735:1957   */\n      swap3\n      swap2\n      pop\n      pop\n      jump\t// out\n        /* \"#utility.yul\":1963:2067   */\n    tag_169:\n        /* \"#utility.yul\":2028:2034   */\n      0x00\n        /* \"#utility.yul\":2056:2060   */\n      0x03\n        /* \"#utility.yul\":2046:2060   */\n      swap1\n      pop\n        /* \"#utility.yul\":1963:2067   */\n      swap2\n      swap1\n      pop\n      jump\t// out\n        /* \"#utility.yul\":2073:2216   */\n    tag_170:\n        /* \"#utility.yul\":2170:2181   */\n      0x00\n        /* \"#utility.yul\":2207:2210   */\n      dup2\n        /* \"#utility.yul\":2192:2210   */\n      swap1\n      pop\n        /* \"#utility.yul\":2073:2216   */\n      swap3\n      swap2\n      pop\n      pop\n      jump\t// out\n        /* \"#utility.yul\":2222:2320   */\n    tag_171:\n        /* \"#utility.yul\":2287:2291   */\n      0x00\n        /* \"#utility.yul\":2310:2313   */\n      dup2\n        /* \"#utility.yul\":2302:2313   */\n      swap1\n      pop\n        /* \"#utility.yul\":2222:2320   */\n      swap2\n      swap1\n      pop\n      jump\t// out\n        /* \"#utility.yul\":2326:2434   */\n    tag_172:\n        /* \"#utility.yul\":2403:2427   */\n      tag_220\n        /* \"#utility.yul\":2421:2426   */\n      dup2\n        /* \"#utility.yul\":2403:2427   */\n      tag_163\n      jump\t// in\n    tag_220:\n        /* \"#utility.yul\":2398:2401   */\n      dup3\n        /* \"#utility.yul\":2391:2428   */\n      mstore\n        /* \"#utility.yul\":2326:2434   */\n      pop\n      pop\n      jump\t// out\n        /* \"#utility.yul\":2440:2619   */\n    tag_173:\n        /* \"#utility.yul\":2509:2519   */\n      0x00\n        /* \"#utility.yul\":2530:2576   */\n      tag_222\n        /* \"#utility.yul\":2572:2575   */\n      dup4\n        /* \"#utility.yul\":2564:2570   */\n      dup4\n        /* \"#utility.yul\":2530:2576   */\n      tag_172\n      jump\t// in\n    tag_222:\n        /* \"#utility.yul\":2608:2612   */\n      0x20\n        /* \"#utility.yul\":2603:2606   */\n      dup4\n        /* \"#utility.yul\":2599:2613   */\n      add\n        /* \"#utility.yul\":2585:2613   */\n      swap1\n      pop\n        /* \"#utility.yul\":2440:2619   */\n      swap3\n      swap2\n      pop\n      pop\n      jump\t// out\n        /* \"#utility.yul\":2625:2736   */\n    tag_174:\n        /* \"#utility.yul\":2693:2697   */\n      0x00\n        /* \"#utility.yul\":2725:2729   */\n      0x20\n        /* \"#utility.yul\":2720:2723   */\n      dup3\n        /* \"#utility.yul\":2716:2730   */\n      add\n        /* \"#utility.yul\":2708:2730   */\n      swap1\n      pop\n        /* \"#utility.yul\":2625:2736   */\n      swap2\n      swap1\n      pop\n      jump\t// out\n        /* \"#utility.yul\":2774:3468   */\n    tag_175:\n        /* \"#utility.yul\":2910:2962   */\n      tag_225\n        /* \"#utility.yul\":2956:2961   */\n      dup2\n        /* \"#utility.yul\":2910:2962   */\n      tag_169\n      jump\t// in\n    tag_225:\n        /* \"#utility.yul\":2978:3062   */\n      tag_226\n        /* \"#utility.yul\":3055:3061   */\n      dup2\n        /* \"#utility.yul\":3050:3053   */\n      dup5\n        /* \"#utility.yul\":2978:3062   */\n      tag_170\n      jump\t// in\n    tag_226:\n        /* \"#utility.yul\":2971:3062   */\n      swap3\n      pop\n        /* \"#utility.yul\":3086:3140   */\n      tag_227\n        /* \"#utility.yul\":3134:3139   */\n      dup3\n        /* \"#utility.yul\":3086:3140   */\n      tag_171\n      jump\t// in\n    tag_227:\n        /* \"#utility.yul\":3163:3170   */\n      dup1\n        /* \"#utility.yul\":3194:3195   */\n      0x00\n        /* \"#utility.yul\":3179:3461   */\n    tag_228:\n        /* \"#utility.yul\":3204:3210   */\n      dup4\n        /* \"#utility.yul\":3201:3202   */\n      dup2\n        /* \"#utility.yul\":3198:3211   */\n      lt\n        /* \"#utility.yul\":3179:3461   */\n      iszero\n      tag_230\n      jumpi\n        /* \"#utility.yul\":3280:3286   */\n      dup2\n        /* \"#utility.yul\":3274:3287   */\n      mload\n        /* \"#utility.yul\":3307:3370   */\n      tag_231\n        /* \"#utility.yul\":3366:3369   */\n      dup8\n        /* \"#utility.yul\":3351:3364   */\n      dup3\n        /* \"#utility.yul\":3307:3370   */\n      tag_173\n      jump\t// in\n    tag_231:\n        /* \"#utility.yul\":3300:3370   */\n      swap7\n      pop\n        /* \"#utility.yul\":3393:3451   */\n      tag_232\n        /* \"#utility.yul\":3444:3450   */\n      dup4\n        /* \"#utility.yul\":3393:3451   */\n      tag_174\n      jump\t// in\n    tag_232:\n        /* \"#utility.yul\":3383:3451   */\n      swap3\n      pop\n        /* \"#utility.yul\":3239:3461   */\n      pop\n        /* \"#utility.yul\":3226:3227   */\n      0x01\n        /* \"#utility.yul\":3223:3224   */\n      dup2\n        /* \"#utility.yul\":3219:3228   */\n      add\n        /* \"#utility.yul\":3214:3228   */\n      swap1\n      pop\n        /* \"#utility.yul\":3179:3461   */\n      jump(tag_228)\n    tag_230:\n        /* \"#utility.yul\":3183:3197   */\n      pop\n        /* \"#utility.yul\":2886:3468   */\n      pop\n      pop\n      pop\n        /* \"#utility.yul\":2774:3468   */\n      pop\n      pop\n      jump\t// out\n        /* \"#utility.yul\":3474:3578   */\n    tag_176:\n        /* \"#utility.yul\":3539:3545   */\n      0x00\n        /* \"#utility.yul\":3567:3571   */\n      0x03\n        /* \"#utility.yul\":3557:3571   */\n      swap1\n      pop\n        /* \"#utility.yul\":3474:3578   */\n      swap2\n      swap1\n      pop\n      jump\t// out\n        /* \"#utility.yul\":3584:3727   */\n    tag_177:\n        /* \"#utility.yul\":3681:3692   */\n      0x00\n        /* \"#utility.yul\":3718:3721   */\n      dup2\n        /* \"#utility.yul\":3703:3721   */\n      swap1\n      pop\n        /* \"#utility.yul\":3584:3727   */\n      swap3\n      swap2\n      pop\n      pop\n      jump\t// out\n        /* \"#utility.yul\":3733:3831   */\n    tag_178:\n        /* \"#utility.yul\":3798:3802   */\n      0x00\n        /* \"#utility.yul\":3821:3824   */\n      dup2\n        /* \"#utility.yul\":3813:3824   */\n      swap1\n      pop\n        /* \"#utility.yul\":3733:3831   */\n      swap2\n      swap1\n      pop\n      jump\t// out\n        /* \"#utility.yul\":3837:3945   */\n    tag_179:\n        /* \"#utility.yul\":3914:3938   */\n      tag_237\n        /* \"#utility.yul\":3932:3937   */\n      dup2\n        /* \"#utility.yul\":3914:3938   */\n      tag_166\n      jump\t// in\n    tag_237:\n        /* \"#utility.yul\":3909:3912   */\n      dup3\n        /* \"#utility.yul\":3902:3939   */\n      mstore\n        /* \"#utility.yul\":3837:3945   */\n      pop\n      pop\n      jump\t// out\n        /* \"#utility.yul\":3951:4130   */\n    tag_180:\n        /* \"#utility.yul\":4020:4030   */\n      0x00\n        /* \"#utility.yul\":4041:4087   */\n      tag_239\n        /* \"#utility.yul\":4083:4086   */\n      dup4\n        /* \"#utility.yul\":4075:4081   */\n      dup4\n        /* \"#utility.yul\":4041:4087   */\n      tag_179\n      jump\t// in\n    tag_239:\n        /* \"#utility.yul\":4119:4123   */\n      0x20\n        /* \"#utility.yul\":4114:4117   */\n      dup4\n        /* \"#utility.yul\":4110:4124   */\n      add\n        /* \"#utility.yul\":4096:4124   */\n      swap1\n      pop\n        /* \"#utility.yul\":3951:4130   */\n      swap3\n      swap2\n      pop\n      pop\n      jump\t// out\n        /* \"#utility.yul\":4136:4247   */\n    tag_181:\n        /* \"#utility.yul\":4204:4208   */\n      0x00\n        /* \"#utility.yul\":4236:4240   */\n      0x20\n        /* \"#utility.yul\":4231:4234   */\n      dup3\n        /* \"#utility.yul\":4227:4241   */\n      add\n        /* \"#utility.yul\":4219:4241   */\n      swap1\n      pop\n        /* \"#utility.yul\":4136:4247   */\n      swap2\n      swap1\n      pop\n      jump\t// out\n        /* \"#utility.yul\":4285:4979   */\n    tag_182:\n        /* \"#utility.yul\":4421:4473   */\n      tag_242\n        /* \"#utility.yul\":4467:4472   */\n      dup2\n        /* \"#utility.yul\":4421:4473   */\n      tag_176\n      jump\t// in\n    tag_242:\n        /* \"#utility.yul\":4489:4573   */\n      tag_243\n        /* \"#utility.yul\":4566:4572   */\n      dup2\n        /* \"#utility.yul\":4561:4564   */\n      dup5\n        /* \"#utility.yul\":4489:4573   */\n      tag_177\n      jump\t// in\n    tag_243:\n        /* \"#utility.yul\":4482:4573   */\n      swap3\n      pop\n        /* \"#utility.yul\":4597:4651   */\n      tag_244\n        /* \"#utility.yul\":4645:4650   */\n      dup3\n        /* \"#utility.yul\":4597:4651   */\n      tag_178\n      jump\t// in\n    tag_244:\n        /* \"#utility.yul\":4674:4681   */\n      dup1\n        /* \"#utility.yul\":4705:4706   */\n      0x00\n        /* \"#utility.yul\":4690:4972   */\n    tag_245:\n        /* \"#utility.yul\":4715:4721   */\n      dup4\n        /* \"#utility.yul\":4712:4713   */\n      dup2\n        /* \"#utility.yul\":4709:4722   */\n      lt\n        /* \"#utility.yul\":4690:4972   */\n      iszero\n      tag_247\n      jumpi\n        /* \"#utility.yul\":4791:4797   */\n      dup2\n        /* \"#utility.yul\":4785:4798   */\n      mload\n        /* \"#utility.yul\":4818:4881   */\n      tag_248\n        /* \"#utility.yul\":4877:4880   */\n      dup8\n        /* \"#utility.yul\":4862:4875   */\n      dup3\n        /* \"#utility.yul\":4818:4881   */\n      tag_180\n      jump\t// in\n    tag_248:\n        /* \"#utility.yul\":4811:4881   */\n      swap7\n      pop\n        /* \"#utility.yul\":4904:4962   */\n      tag_249\n        /* \"#utility.yul\":4955:4961   */\n      dup4\n        /* \"#utility.yul\":4904:4962   */\n      tag_181\n      jump\t// in\n    tag_249:\n        /* \"#utility.yul\":4894:4962   */\n      swap3\n      pop\n        /* \"#utility.yul\":4750:4972   */\n      pop\n        /* \"#utility.yul\":4737:4738   */\n      0x01\n        /* \"#utility.yul\":4734:4735   */\n      dup2\n        /* \"#utility.yul\":4730:4739   */\n      add\n        /* \"#utility.yul\":4725:4739   */\n      swap1\n      pop\n        /* \"#utility.yul\":4690:4972   */\n      jump(tag_245)\n    tag_247:\n        /* \"#utility.yul\":4694:4708   */\n      pop\n        /* \"#utility.yul\":4397:4979   */\n      pop\n      pop\n      pop\n        /* \"#utility.yul\":4285:4979   */\n      pop\n      pop\n      jump\t// out\n        /* \"#utility.yul\":4985:5502   */\n    tag_32:\n        /* \"#utility.yul\":5198:5202   */\n      0x00\n        /* \"#utility.yul\":5236:5239   */\n      0xc0\n        /* \"#utility.yul\":5225:5234   */\n      dup3\n        /* \"#utility.yul\":5221:5240   */\n      add\n        /* \"#utility.yul\":5213:5240   */\n      swap1\n      pop\n        /* \"#utility.yul\":5250:5367   */\n      tag_251\n        /* \"#utility.yul\":5364:5365   */\n      0x00\n        /* \"#utility.yul\":5353:5362   */\n      dup4\n        /* \"#utility.yul\":5349:5366   */\n      add\n        /* \"#utility.yul\":5340:5346   */\n      dup6\n        /* \"#utility.yul\":5250:5367   */\n      tag_175\n      jump\t// in\n    tag_251:\n        /* \"#utility.yul\":5377:5495   */\n      tag_252\n        /* \"#utility.yul\":5491:5493   */\n      0x60\n        /* \"#utility.yul\":5480:5489   */\n      dup4\n        /* \"#utility.yul\":5476:5494   */\n      add\n        /* \"#utility.yul\":5467:5473   */\n      dup5\n        /* \"#utility.yul\":5377:5495   */\n      tag_182\n      jump\t// in\n    tag_252:\n        /* \"#utility.yul\":4985:5502   */\n      swap4\n      swap3\n      pop\n      pop\n      pop\n      jump\t// out\n        /* \"#utility.yul\":5508:5677   */\n    tag_183:\n        /* \"#utility.yul\":5592:5603   */\n      0x00\n        /* \"#utility.yul\":5626:5632   */\n      dup3\n        /* \"#utility.yul\":5621:5624   */\n      dup3\n        /* \"#utility.yul\":5614:5633   */\n      mstore\n        /* \"#utility.yul\":5666:5670   */\n      0x20\n        /* \"#utility.yul\":5661:5664   */\n      dup3\n        /* \"#utility.yul\":5657:5671   */\n      add\n        /* \"#utility.yul\":5642:5671   */\n      swap1\n      pop\n        /* \"#utility.yul\":5508:5677   */\n      swap3\n      swap2\n      pop\n      pop\n      jump\t// out\n        /* \"#utility.yul\":5683:5855   */\n    tag_184:\n        /* \"#utility.yul\":5823:5847   */\n      0x4e6f207265656e7472616e637920616c6c6f7765642100000000000000000000\n        /* \"#utility.yul\":5819:5820   */\n      0x00\n        /* \"#utility.yul\":5811:5817   */\n      dup3\n        /* \"#utility.yul\":5807:5821   */\n      add\n        /* \"#utility.yul\":5800:5848   */\n      mstore\n        /* \"#utility.yul\":5683:5855   */\n      pop\n      jump\t// out\n        /* \"#utility.yul\":5861:6227   */\n    tag_185:\n        /* \"#utility.yul\":6003:6006   */\n      0x00\n        /* \"#utility.yul\":6024:6091   */\n      tag_256\n        /* \"#utility.yul\":6088:6090   */\n      0x16\n        /* \"#utility.yul\":6083:6086   */\n      dup4\n        /* \"#utility.yul\":6024:6091   */\n      tag_183\n      jump\t// in\n    tag_256:\n        /* \"#utility.yul\":6017:6091   */\n      swap2\n      pop\n        /* \"#utility.yul\":6100:6193   */\n      tag_257\n        /* \"#utility.yul\":6189:6192   */\n      dup3\n        /* \"#utility.yul\":6100:6193   */\n      tag_184\n      jump\t// in\n    tag_257:\n        /* \"#utility.yul\":6218:6220   */\n      0x20\n        /* \"#utility.yul\":6213:6216   */\n      dup3\n        /* \"#utility.yul\":6209:6221   */\n      add\n        /* \"#utility.yul\":6202:6221   */\n      swap1\n      pop\n        /* \"#utility.yul\":5861:6227   */\n      swap2\n      swap1\n      pop\n      jump\t// out\n        /* \"#utility.yul\":6233:6652   */\n    tag_45:\n        /* \"#utility.yul\":6399:6403   */\n      0x00\n        /* \"#utility.yul\":6437:6439   */\n      0x20\n        /* \"#utility.yul\":6426:6435   */\n      dup3\n        /* \"#utility.yul\":6422:6440   */\n      add\n        /* \"#utility.yul\":6414:6440   */\n      swap1\n      pop\n        /* \"#utility.yul\":6486:6495   */\n      dup2\n        /* \"#utility.yul\":6480:6484   */\n      dup2\n        /* \"#utility.yul\":6476:6496   */\n      sub\n        /* \"#utility.yul\":6472:6473   */\n      0x00\n        /* \"#utility.yul\":6461:6470   */\n      dup4\n        /* \"#utility.yul\":6457:6474   */\n      add\n        /* \"#utility.yul\":6450:6497   */\n      mstore\n        /* \"#utility.yul\":6514:6645   */\n      tag_259\n        /* \"#utility.yul\":6640:6644   */\n      dup2\n        /* \"#utility.yul\":6514:6645   */\n      tag_185\n      jump\t// in\n    tag_259:\n        /* \"#utility.yul\":6506:6645   */\n      swap1\n      pop\n        /* \"#utility.yul\":6233:6652   */\n      swap2\n      swap1\n      pop\n      jump\t// out\n        /* \"#utility.yul\":6658:6830   */\n    tag_186:\n        /* \"#utility.yul\":6798:6822   */\n      0x4e6f2062616c616e636520746f20776974686472617700000000000000000000\n        /* \"#utility.yul\":6794:6795   */\n      0x00\n        /* \"#utility.yul\":6786:6792   */\n      dup3\n        /* \"#utility.yul\":6782:6796   */\n      add\n        /* \"#utility.yul\":6775:6823   */\n      mstore\n        /* \"#utility.yul\":6658:6830   */\n      pop\n      jump\t// out\n        /* \"#utility.yul\":6836:7202   */\n    tag_187:\n        /* \"#utility.yul\":6978:6981   */\n      0x00\n        /* \"#utility.yul\":6999:7066   */\n      tag_262\n        /* \"#utility.yul\":7063:7065   */\n      0x16\n        /* \"#utility.yul\":7058:7061   */\n      dup4\n        /* \"#utility.yul\":6999:7066   */\n      tag_183\n      jump\t// in\n    tag_262:\n        /* \"#utility.yul\":6992:7066   */\n      swap2\n      pop\n        /* \"#utility.yul\":7075:7168   */\n      tag_263\n        /* \"#utility.yul\":7164:7167   */\n      dup3\n        /* \"#utility.yul\":7075:7168   */\n      tag_186\n      jump\t// in\n    tag_263:\n        /* \"#utility.yul\":7193:7195   */\n      0x20\n        /* \"#utility.yul\":7188:7191   */\n      dup3\n        /* \"#utility.yul\":7184:7196   */\n      add\n        /* \"#utility.yul\":7177:7196   */\n      swap1\n      pop\n        /* \"#utility.yul\":6836:7202   */\n      swap2\n      swap1\n      pop\n      jump\t// out\n        /* \"#utility.yul\":7208:7627   */\n    tag_49:\n        /* \"#utility.yul\":7374:7378   */\n      0x00\n        /* \"#utility.yul\":7412:7414   */\n      0x20\n        /* \"#utility.yul\":7401:7410   */\n      dup3\n        /* \"#utility.yul\":7397:7415   */\n      add\n        /* \"#utility.yul\":7389:7415   */\n      swap1\n      pop\n        /* \"#utility.yul\":7461:7470   */\n      dup2\n        /* \"#utility.yul\":7455:7459   */\n      dup2\n        /* \"#utility.yul\":7451:7471   */\n      sub\n        /* \"#utility.yul\":7447:7448   */\n      0x00\n        /* \"#utility.yul\":7436:7445   */\n      dup4\n        /* \"#utility.yul\":7432:7449   */\n      add\n        /* \"#utility.yul\":7425:7472   */\n      mstore\n        /* \"#utility.yul\":7489:7620   */\n      tag_265\n        /* \"#utility.yul\":7615:7619   */\n      dup2\n        /* \"#utility.yul\":7489:7620   */\n      tag_187\n      jump\t// in\n    tag_265:\n        /* \"#utility.yul\":7481:7620   */\n      swap1\n      pop\n        /* \"#utility.yul\":7208:7627   */\n      swap2\n      swap1\n      pop\n      jump\t// out\n        /* \"#utility.yul\":7633:7813   */\n    tag_71:\n        /* \"#utility.yul\":7681:7758   */\n      0x4e487b7100000000000000000000000000000000000000000000000000000000\n        /* \"#utility.yul\":7678:7679   */\n      0x00\n        /* \"#utility.yul\":7671:7759   */\n      mstore\n        /* \"#utility.yul\":7778:7782   */\n      0x32\n        /* \"#utility.yul\":7775:7776   */\n      0x04\n        /* \"#utility.yul\":7768:7783   */\n      mstore\n        /* \"#utility.yul\":7802:7806   */\n      0x24\n        /* \"#utility.yul\":7799:7800   */\n      0x00\n        /* \"#utility.yul\":7792:7807   */\n      revert\n        /* \"#utility.yul\":7819:7990   */\n    tag_188:\n        /* \"#utility.yul\":7959:7982   */\n      0x646f6e6174652076616c7565206d757374203e20300000000000000000000000\n        /* \"#utility.yul\":7955:7956   */\n      0x00\n        /* \"#utility.yul\":7947:7953   */\n      dup3\n        /* \"#utility.yul\":7943:7957   */\n      add\n        /* \"#utility.yul\":7936:7983   */\n      mstore\n        /* \"#utility.yul\":7819:7990   */\n      pop\n      jump\t// out\n        /* \"#utility.yul\":7996:8362   */\n    tag_189:\n        /* \"#utility.yul\":8138:8141   */\n      0x00\n        /* \"#utility.yul\":8159:8226   */\n      tag_269\n        /* \"#utility.yul\":8223:8225   */\n      0x15\n        /* \"#utility.yul\":8218:8221   */\n      dup4\n        /* \"#utility.yul\":8159:8226   */\n      tag_183\n      jump\t// in\n    tag_269:\n        /* \"#utility.yul\":8152:8226   */\n      swap2\n      pop\n        /* \"#utility.yul\":8235:8328   */\n      tag_270\n        /* \"#utility.yul\":8324:8327   */\n      dup3\n        /* \"#utility.yul\":8235:8328   */\n      tag_188\n      jump\t// in\n    tag_270:\n        /* \"#utility.yul\":8353:8355   */\n      0x20\n        /* \"#utility.yul\":8348:8351   */\n      dup3\n        /* \"#utility.yul\":8344:8356   */\n      add\n        /* \"#utility.yul\":8337:8356   */\n      swap1\n      pop\n        /* \"#utility.yul\":7996:8362   */\n      swap2\n      swap1\n      pop\n      jump\t// out\n        /* \"#utility.yul\":8368:8787   */\n    tag_83:\n        /* \"#utility.yul\":8534:8538   */\n      0x00\n        /* \"#utility.yul\":8572:8574   */\n      0x20\n        /* \"#utility.yul\":8561:8570   */\n      dup3\n        /* \"#utility.yul\":8557:8575   */\n      add\n        /* \"#utility.yul\":8549:8575   */\n      swap1\n      pop\n        /* \"#utility.yul\":8621:8630   */\n      dup2\n        /* \"#utility.yul\":8615:8619   */\n      dup2\n        /* \"#utility.yul\":8611:8631   */\n      sub\n        /* \"#utility.yul\":8607:8608   */\n      0x00\n        /* \"#utility.yul\":8596:8605   */\n      dup4\n        /* \"#utility.yul\":8592:8609   */\n      add\n        /* \"#utility.yul\":8585:8632   */\n      mstore\n        /* \"#utility.yul\":8649:8780   */\n      tag_272\n        /* \"#utility.yul\":8775:8779   */\n      dup2\n        /* \"#utility.yul\":8649:8780   */\n      tag_189\n      jump\t// in\n    tag_272:\n        /* \"#utility.yul\":8641:8780   */\n      swap1\n      pop\n        /* \"#utility.yul\":8368:8787   */\n      swap2\n      swap1\n      pop\n      jump\t// out\n        /* \"#utility.yul\":8793:8973   */\n    tag_190:\n        /* \"#utility.yul\":8841:8918   */\n      0x4e487b7100000000000000000000000000000000000000000000000000000000\n        /* \"#utility.yul\":8838:8839   */\n      0x00\n        /* \"#utility.yul\":8831:8919   */\n      mstore\n        /* \"#utility.yul\":8938:8942   */\n      0x11\n        /* \"#utility.yul\":8935:8936   */\n      0x04\n        /* \"#utility.yul\":8928:8943   */\n      mstore\n        /* \"#utility.yul\":8962:8966   */\n      0x24\n        /* \"#utility.yul\":8959:8960   */\n      0x00\n        /* \"#utility.yul\":8952:8967   */\n      revert\n        /* \"#utility.yul\":8979:9170   */\n    tag_85:\n        /* \"#utility.yul\":9019:9022   */\n      0x00\n        /* \"#utility.yul\":9038:9058   */\n      tag_275\n        /* \"#utility.yul\":9056:9057   */\n      dup3\n        /* \"#utility.yul\":9038:9058   */\n      tag_166\n      jump\t// in\n    tag_275:\n        /* \"#utility.yul\":9033:9058   */\n      swap2\n      pop\n        /* \"#utility.yul\":9072:9092   */\n      tag_276\n        /* \"#utility.yul\":9090:9091   */\n      dup4\n        /* \"#utility.yul\":9072:9092   */\n      tag_166\n      jump\t// in\n    tag_276:\n        /* \"#utility.yul\":9067:9092   */\n      swap3\n      pop\n        /* \"#utility.yul\":9115:9116   */\n      dup3\n        /* \"#utility.yul\":9112:9113   */\n      dup3\n        /* \"#utility.yul\":9108:9117   */\n      add\n        /* \"#utility.yul\":9101:9117   */\n      swap1\n      pop\n        /* \"#utility.yul\":9136:9139   */\n      dup1\n        /* \"#utility.yul\":9133:9134   */\n      dup3\n        /* \"#utility.yul\":9130:9140   */\n      gt\n        /* \"#utility.yul\":9127:9163   */\n      iszero\n      tag_277\n      jumpi\n        /* \"#utility.yul\":9143:9161   */\n      tag_278\n      tag_190\n      jump\t// in\n    tag_278:\n        /* \"#utility.yul\":9127:9163   */\n    tag_277:\n        /* \"#utility.yul\":8979:9170   */\n      swap3\n      swap2\n      pop\n      pop\n      jump\t// out\n\n    auxdata: 0xa264697066735822122047b357dbc8393340904d013d3a5351fdef0865e953b76f48a26e52ed097972e464736f6c634300081e0033\n}\n",
				"bytecode": {
					"linkReferences": {},
					"object": "608060405234801561000f575f5ffd5b50335f73ffffffffffffffffffffffffffffffffffffffff168173ffffffffffffffffffffffffffffffffffffffff1603610081575f6040517f1e4fbdf70000000000000000000000000000000000000000000000000000000081526004016100789190610196565b60405180910390fd5b6100908161009660201b60201c565b506101af565b5f5f5f9054906101000a900473ffffffffffffffffffffffffffffffffffffffff169050815f5f6101000a81548173ffffffffffffffffffffffffffffffffffffffff021916908373ffffffffffffffffffffffffffffffffffffffff1602179055508173ffffffffffffffffffffffffffffffffffffffff168173ffffffffffffffffffffffffffffffffffffffff167f8be0079c531659141344cd1fd0a4f28419497f9722a3daafe3b4186f6b6457e060405160405180910390a35050565b5f73ffffffffffffffffffffffffffffffffffffffff82169050919050565b5f61018082610157565b9050919050565b61019081610176565b82525050565b5f6020820190506101a95f830184610187565b92915050565b611050806101bc5f395ff3fe60806040526004361061006f575f3560e01c80638da5cb5b1161004d5780638da5cb5b146100db578063d6387ed814610105578063ed88c68e14610130578063f2fde38b1461013a5761006f565b80633ccfd60b14610073578063410a1d3214610089578063715018a6146100c5575b5f5ffd5b34801561007e575f5ffd5b50610087610162565b005b348015610094575f5ffd5b506100af60048036038101906100aa9190610c50565b610279565b6040516100bc9190610c93565b60405180910390f35b3480156100d0575f5ffd5b506100d96102bf565b005b3480156100e6575f5ffd5b506100ef6102d2565b6040516100fc9190610cbb565b60405180910390f35b348015610110575f5ffd5b506101196102f9565b604051610127929190610e1e565b60405180910390f35b61013861044e565b005b348015610145575f5ffd5b50610160600480360381019061015b9190610c50565b61053c565b005b61016a6105c0565b60025f9054906101000a900460ff16156101b9576040517f08c379a00000000000000000000000000000000000000000000000000000000081526004016101b090610e9f565b60405180910390fd5b600160025f6101000a81548160ff0219169083151502179055505f4790505f8111610219576040517f08c379a000000000000000000000000000000000000000000000000000000000815260040161021090610f07565b60405180910390fd5b3373ffffffffffffffffffffffffffffffffffffffff166108fc8290811502906040515f60405180830381858888f1935050505015801561025c573d5f5f3e3d5ffd5b50505f60025f6101000a81548160ff021916908315150217905550565b5f60015f8373ffffffffffffffffffffffffffffffffffffffff1673ffffffffffffffffffffffffffffffffffffffff1681526020019081526020015f20549050919050565b6102c76105c0565b6102d05f610647565b565b5f5f5f9054906101000a900473ffffffffffffffffffffffffffffffffffffffff16905090565b610301610bae565b610309610bd0565b610311610bae565b610319610bd0565b5f5f90505b6003811015610441576003816003811061033b5761033a610f25565b5b015f9054906101000a900473ffffffffffffffffffffffffffffffffffffffff1683826003811061036f5761036e610f25565b5b602002019073ffffffffffffffffffffffffffffffffffffffff16908173ffffffffffffffffffffffffffffffffffffffff168152505060015f600383600381106103bd576103bc610f25565b5b015f9054906101000a900473ffffffffffffffffffffffffffffffffffffffff1673ffffffffffffffffffffffffffffffffffffffff1673ffffffffffffffffffffffffffffffffffffffff1681526020019081526020015f205482826003811061042b5761042a610f25565b5b602002018181525050808060010191505061031e565b5081819350935050509091565b5f3411610490576040517f08c379a000000000000000000000000000000000000000000000000000000000815260040161048790610f9c565b60405180910390fd5b3460015f3373ffffffffffffffffffffffffffffffffffffffff1673ffffffffffffffffffffffffffffffffffffffff1681526020019081526020015f205f8282546104dc9190610fe7565b925050819055506104ec33610708565b3373ffffffffffffffffffffffffffffffffffffffff167f5d8bc849764969eb1bcc6d0a2f55999d0167c1ccec240a4f39cf664ca9c4148e346040516105329190610c93565b60405180910390a2565b6105446105c0565b5f73ffffffffffffffffffffffffffffffffffffffff168173ffffffffffffffffffffffffffffffffffffffff16036105b4575f6040517f1e4fbdf70000000000000000000000000000000000000000000000000000000081526004016105ab9190610cbb565b60405180910390fd5b6105bd81610647565b50565b6105c8610963565b73ffffffffffffffffffffffffffffffffffffffff166105e66102d2565b73ffffffffffffffffffffffffffffffffffffffff161461064557610609610963565b6040517f118cdaa700000000000000000000000000000000000000000000000000000000815260040161063c9190610cbb565b60405180910390fd5b565b5f5f5f9054906101000a900473ffffffffffffffffffffffffffffffffffffffff169050815f5f6101000a81548173ffffffffffffffffffffffffffffffffffffffff021916908373ffffffffffffffffffffffffffffffffffffffff1602179055508173ffffffffffffffffffffffffffffffffffffffff168173ffffffffffffffffffffffffffffffffffffffff167f8be0079c531659141344cd1fd0a4f28419497f9722a3daafe3b4186f6b6457e060405160405180910390a35050565b5f600303610768578060035f6003811061072557610724610f25565b5b015f6101000a81548173ffffffffffffffffffffffffffffffffffffffff021916908373ffffffffffffffffffffffffffffffffffffffff160217905550610960565b60016003036107d25780600360016003811061078757610786610f25565b5b015f6101000a81548173ffffffffffffffffffffffffffffffffffffffff021916908373ffffffffffffffffffffffffffffffffffffffff1602179055506107cd61096a565b61095f565b600260030361083c578060036002600381106107f1576107f0610f25565b5b015f6101000a81548173ffffffffffffffffffffffffffffffffffffffff021916908373ffffffffffffffffffffffffffffffffffffffff16021790555061083761096a565b61095e565b6003800361095d575f60015f8373ffffffffffffffffffffffffffffffffffffffff1673ffffffffffffffffffffffffffffffffffffffff1681526020019081526020015f2054905060015f600360026003811061089d5761089c610f25565b5b015f9054906101000a900473ffffffffffffffffffffffffffffffffffffffff1673ffffffffffffffffffffffffffffffffffffffff1673ffffffffffffffffffffffffffffffffffffffff1681526020019081526020015f2054811061095b5781600360026003811061091457610913610f25565b5b015f6101000a81548173ffffffffffffffffffffffffffffffffffffffff021916908373ffffffffffffffffffffffffffffffffffffffff16021790555061095a61096a565b5b505b5b5b5b50565b5f33905090565b5f5f90505b6003811015610bab575f6001826109869190610fe7565b90505b6003811015610b9d5760015f600383600381106109a9576109a8610f25565b5b015f9054906101000a900473ffffffffffffffffffffffffffffffffffffffff1673ffffffffffffffffffffffffffffffffffffffff1673ffffffffffffffffffffffffffffffffffffffff1681526020019081526020015f205460015f60038560038110610a1b57610a1a610f25565b5b015f9054906101000a900473ffffffffffffffffffffffffffffffffffffffff1673ffffffffffffffffffffffffffffffffffffffff1673ffffffffffffffffffffffffffffffffffffffff1681526020019081526020015f20541015610b90575f60038360038110610a9157610a90610f25565b5b015f9054906101000a900473ffffffffffffffffffffffffffffffffffffffff16905060038260038110610ac857610ac7610f25565b5b015f9054906101000a900473ffffffffffffffffffffffffffffffffffffffff1660038460038110610afd57610afc610f25565b5b015f6101000a81548173ffffffffffffffffffffffffffffffffffffffff021916908373ffffffffffffffffffffffffffffffffffffffff1602179055508060038360038110610b5057610b4f610f25565b5b015f6101000a81548173ffffffffffffffffffffffffffffffffffffffff021916908373ffffffffffffffffffffffffffffffffffffffff160217905550505b8080600101915050610989565b50808060010191505061096f565b50565b6040518060600160405280600390602082028036833780820191505090505090565b6040518060600160405280600390602082028036833780820191505090505090565b5f5ffd5b5f73ffffffffffffffffffffffffffffffffffffffff82169050919050565b5f610c1f82610bf6565b9050919050565b610c2f81610c15565b8114610c39575f5ffd5b50565b5f81359050610c4a81610c26565b92915050565b5f60208284031215610c6557610c64610bf2565b5b5f610c7284828501610c3c565b91505092915050565b5f819050919050565b610c8d81610c7b565b82525050565b5f602082019050610ca65f830184610c84565b92915050565b610cb581610c15565b82525050565b5f602082019050610cce5f830184610cac565b92915050565b5f60039050919050565b5f81905092915050565b5f819050919050565b610cfa81610c15565b82525050565b5f610d0b8383610cf1565b60208301905092915050565b5f602082019050919050565b610d2c81610cd4565b610d368184610cde565b9250610d4182610ce8565b805f5b83811015610d71578151610d588782610d00565b9650610d6383610d17565b925050600181019050610d44565b505050505050565b5f60039050919050565b5f81905092915050565b5f819050919050565b610d9f81610c7b565b82525050565b5f610db08383610d96565b60208301905092915050565b5f602082019050919050565b610dd181610d79565b610ddb8184610d83565b9250610de682610d8d565b805f5b83811015610e16578151610dfd8782610da5565b9650610e0883610dbc565b925050600181019050610de9565b505050505050565b5f60c082019050610e315f830185610d23565b610e3e6060830184610dc8565b9392505050565b5f82825260208201905092915050565b7f4e6f207265656e7472616e637920616c6c6f77656421000000000000000000005f82015250565b5f610e89601683610e45565b9150610e9482610e55565b602082019050919050565b5f6020820190508181035f830152610eb681610e7d565b9050919050565b7f4e6f2062616c616e636520746f207769746864726177000000000000000000005f82015250565b5f610ef1601683610e45565b9150610efc82610ebd565b602082019050919050565b5f6020820190508181035f830152610f1e81610ee5565b9050919050565b7f4e487b71000000000000000000000000000000000000000000000000000000005f52603260045260245ffd5b7f646f6e6174652076616c7565206d757374203e203000000000000000000000005f82015250565b5f610f86601583610e45565b9150610f9182610f52565b602082019050919050565b5f6020820190508181035f830152610fb381610f7a565b9050919050565b7f4e487b71000000000000000000000000000000000000000000000000000000005f52601160045260245ffd5b5f610ff182610c7b565b9150610ffc83610c7b565b925082820190508082111561101457611013610fba565b5b9291505056fea264697066735822122047b357dbc8393340904d013d3a5351fdef0865e953b76f48a26e52ed097972e464736f6c634300081e0033",
					"opcodes": "PUSH1 0x80 PUSH1 0x40 MSTORE CALLVALUE DUP1 ISZERO PUSH2 0xF JUMPI PUSH0 PUSH0 REVERT JUMPDEST POP CALLER PUSH0 PUSH20 0xFFFFFFFFFFFFFFFFFFFFFFFFFFFFFFFFFFFFFFFF AND DUP2 PUSH20 0xFFFFFFFFFFFFFFFFFFFFFFFFFFFFFFFFFFFFFFFF AND SUB PUSH2 0x81 JUMPI PUSH0 PUSH1 0x40 MLOAD PUSH32 0x1E4FBDF700000000000000000000000000000000000000000000000000000000 DUP2 MSTORE PUSH1 0x4 ADD PUSH2 0x78 SWAP2 SWAP1 PUSH2 0x196 JUMP JUMPDEST PUSH1 0x40 MLOAD DUP1 SWAP2 SUB SWAP1 REVERT JUMPDEST PUSH2 0x90 DUP2 PUSH2 0x96 PUSH1 0x20 SHL PUSH1 0x20 SHR JUMP JUMPDEST POP PUSH2 0x1AF JUMP JUMPDEST PUSH0 PUSH0 PUSH0 SWAP1 SLOAD SWAP1 PUSH2 0x100 EXP SWAP1 DIV PUSH20 0xFFFFFFFFFFFFFFFFFFFFFFFFFFFFFFFFFFFFFFFF AND SWAP1 POP DUP2 PUSH0 PUSH0 PUSH2 0x100 EXP DUP2 SLOAD DUP2 PUSH20 0xFFFFFFFFFFFFFFFFFFFFFFFFFFFFFFFFFFFFFFFF MUL NOT AND SWAP1 DUP4 PUSH20 0xFFFFFFFFFFFFFFFFFFFFFFFFFFFFFFFFFFFFFFFF AND MUL OR SWAP1 SSTORE POP DUP2 PUSH20 0xFFFFFFFFFFFFFFFFFFFFFFFFFFFFFFFFFFFFFFFF AND DUP2 PUSH20 0xFFFFFFFFFFFFFFFFFFFFFFFFFFFFFFFFFFFFFFFF AND PUSH32 0x8BE0079C531659141344CD1FD0A4F28419497F9722A3DAAFE3B4186F6B6457E0 PUSH1 0x40 MLOAD PUSH1 0x40 MLOAD DUP1 SWAP2 SUB SWAP1 LOG3 POP POP JUMP JUMPDEST PUSH0 PUSH20 0xFFFFFFFFFFFFFFFFFFFFFFFFFFFFFFFFFFFFFFFF DUP3 AND SWAP1 POP SWAP2 SWAP1 POP JUMP JUMPDEST PUSH0 PUSH2 0x180 DUP3 PUSH2 0x157 JUMP JUMPDEST SWAP1 POP SWAP2 SWAP1 POP JUMP JUMPDEST PUSH2 0x190 DUP2 PUSH2 0x176 JUMP JUMPDEST DUP3 MSTORE POP POP JUMP JUMPDEST PUSH0 PUSH1 0x20 DUP3 ADD SWAP1 POP PUSH2 0x1A9 PUSH0 DUP4 ADD DUP5 PUSH2 0x187 JUMP JUMPDEST SWAP3 SWAP2 POP POP JUMP JUMPDEST PUSH2 0x1050 DUP1 PUSH2 0x1BC PUSH0 CODECOPY PUSH0 RETURN INVALID PUSH1 0x80 PUSH1 0x40 MSTORE PUSH1 0x4 CALLDATASIZE LT PUSH2 0x6F JUMPI PUSH0 CALLDATALOAD PUSH1 0xE0 SHR DUP1 PUSH4 0x8DA5CB5B GT PUSH2 0x4D JUMPI DUP1 PUSH4 0x8DA5CB5B EQ PUSH2 0xDB JUMPI DUP1 PUSH4 0xD6387ED8 EQ PUSH2 0x105 JUMPI DUP1 PUSH4 0xED88C68E EQ PUSH2 0x130 JUMPI DUP1 PUSH4 0xF2FDE38B EQ PUSH2 0x13A JUMPI PUSH2 0x6F JUMP JUMPDEST DUP1 PUSH4 0x3CCFD60B EQ PUSH2 0x73 JUMPI DUP1 PUSH4 0x410A1D32 EQ PUSH2 0x89 JUMPI DUP1 PUSH4 0x715018A6 EQ PUSH2 0xC5 JUMPI JUMPDEST PUSH0 PUSH0 REVERT JUMPDEST CALLVALUE DUP1 ISZERO PUSH2 0x7E JUMPI PUSH0 PUSH0 REVERT JUMPDEST POP PUSH2 0x87 PUSH2 0x162 JUMP JUMPDEST STOP JUMPDEST CALLVALUE DUP1 ISZERO PUSH2 0x94 JUMPI PUSH0 PUSH0 REVERT JUMPDEST POP PUSH2 0xAF PUSH1 0x4 DUP1 CALLDATASIZE SUB DUP2 ADD SWAP1 PUSH2 0xAA SWAP2 SWAP1 PUSH2 0xC50 JUMP JUMPDEST PUSH2 0x279 JUMP JUMPDEST PUSH1 0x40 MLOAD PUSH2 0xBC SWAP2 SWAP1 PUSH2 0xC93 JUMP JUMPDEST PUSH1 0x40 MLOAD DUP1 SWAP2 SUB SWAP1 RETURN JUMPDEST CALLVALUE DUP1 ISZERO PUSH2 0xD0 JUMPI PUSH0 PUSH0 REVERT JUMPDEST POP PUSH2 0xD9 PUSH2 0x2BF JUMP JUMPDEST STOP JUMPDEST CALLVALUE DUP1 ISZERO PUSH2 0xE6 JUMPI PUSH0 PUSH0 REVERT JUMPDEST POP PUSH2 0xEF PUSH2 0x2D2 JUMP JUMPDEST PUSH1 0x40 MLOAD PUSH2 0xFC SWAP2 SWAP1 PUSH2 0xCBB JUMP JUMPDEST PUSH1 0x40 MLOAD DUP1 SWAP2 SUB SWAP1 RETURN JUMPDEST CALLVALUE DUP1 ISZERO PUSH2 0x110 JUMPI PUSH0 PUSH0 REVERT JUMPDEST POP PUSH2 0x119 PUSH2 0x2F9 JUMP JUMPDEST PUSH1 0x40 MLOAD PUSH2 0x127 SWAP3 SWAP2 SWAP1 PUSH2 0xE1E JUMP JUMPDEST PUSH1 0x40 MLOAD DUP1 SWAP2 SUB SWAP1 RETURN JUMPDEST PUSH2 0x138 PUSH2 0x44E JUMP JUMPDEST STOP JUMPDEST CALLVALUE DUP1 ISZERO PUSH2 0x145 JUMPI PUSH0 PUSH0 REVERT JUMPDEST POP PUSH2 0x160 PUSH1 0x4 DUP1 CALLDATASIZE SUB DUP2 ADD SWAP1 PUSH2 0x15B SWAP2 SWAP1 PUSH2 0xC50 JUMP JUMPDEST PUSH2 0x53C JUMP JUMPDEST STOP JUMPDEST PUSH2 0x16A PUSH2 0x5C0 JUMP JUMPDEST PUSH1 0x2 PUSH0 SWAP1 SLOAD SWAP1 PUSH2 0x100 EXP SWAP1 DIV PUSH1 0xFF AND ISZERO PUSH2 0x1B9 JUMPI PUSH1 0x40 MLOAD PUSH32 0x8C379A000000000000000000000000000000000000000000000000000000000 DUP2 MSTORE PUSH1 0x4 ADD PUSH2 0x1B0 SWAP1 PUSH2 0xE9F JUMP JUMPDEST PUSH1 0x40 MLOAD DUP1 SWAP2 SUB SWAP1 REVERT JUMPDEST PUSH1 0x1 PUSH1 0x2 PUSH0 PUSH2 0x100 EXP DUP2 SLOAD DUP2 PUSH1 0xFF MUL NOT AND SWAP1 DUP4 ISZERO ISZERO MUL OR SWAP1 SSTORE POP PUSH0 SELFBALANCE SWAP1 POP PUSH0 DUP2 GT PUSH2 0x219 JUMPI PUSH1 0x40 MLOAD PUSH32 0x8C379A000000000000000000000000000000000000000000000000000000000 DUP2 MSTORE PUSH1 0x4 ADD PUSH2 0x210 SWAP1 PUSH2 0xF07 JUMP JUMPDEST PUSH1 0x40 MLOAD DUP1 SWAP2 SUB SWAP1 REVERT JUMPDEST CALLER PUSH20 0xFFFFFFFFFFFFFFFFFFFFFFFFFFFFFFFFFFFFFFFF AND PUSH2 0x8FC DUP3 SWAP1 DUP2 ISZERO MUL SWAP1 PUSH1 0x40 MLOAD PUSH0 PUSH1 0x40 MLOAD DUP1 DUP4 SUB DUP2 DUP6 DUP9 DUP9 CALL SWAP4 POP POP POP POP ISZERO DUP1 ISZERO PUSH2 0x25C JUMPI RETURNDATASIZE PUSH0 PUSH0 RETURNDATACOPY RETURNDATASIZE PUSH0 REVERT JUMPDEST POP POP PUSH0 PUSH1 0x2 PUSH0 PUSH2 0x100 EXP DUP2 SLOAD DUP2 PUSH1 0xFF MUL NOT AND SWAP1 DUP4 ISZERO ISZERO MUL OR SWAP1 SSTORE POP JUMP JUMPDEST PUSH0 PUSH1 0x1 PUSH0 DUP4 PUSH20 0xFFFFFFFFFFFFFFFFFFFFFFFFFFFFFFFFFFFFFFFF AND PUSH20 0xFFFFFFFFFFFFFFFFFFFFFFFFFFFFFFFFFFFFFFFF AND DUP2 MSTORE PUSH1 0x20 ADD SWAP1 DUP2 MSTORE PUSH1 0x20 ADD PUSH0 KECCAK256 SLOAD SWAP1 POP SWAP2 SWAP1 POP JUMP JUMPDEST PUSH2 0x2C7 PUSH2 0x5C0 JUMP JUMPDEST PUSH2 0x2D0 PUSH0 PUSH2 0x647 JUMP JUMPDEST JUMP JUMPDEST PUSH0 PUSH0 PUSH0 SWAP1 SLOAD SWAP1 PUSH2 0x100 EXP SWAP1 DIV PUSH20 0xFFFFFFFFFFFFFFFFFFFFFFFFFFFFFFFFFFFFFFFF AND SWAP1 POP SWAP1 JUMP JUMPDEST PUSH2 0x301 PUSH2 0xBAE JUMP JUMPDEST PUSH2 0x309 PUSH2 0xBD0 JUMP JUMPDEST PUSH2 0x311 PUSH2 0xBAE JUMP JUMPDEST PUSH2 0x319 PUSH2 0xBD0 JUMP JUMPDEST PUSH0 PUSH0 SWAP1 POP JUMPDEST PUSH1 0x3 DUP2 LT ISZERO PUSH2 0x441 JUMPI PUSH1 0x3 DUP2 PUSH1 0x3 DUP2 LT PUSH2 0x33B JUMPI PUSH2 0x33A PUSH2 0xF25 JUMP JUMPDEST JUMPDEST ADD PUSH0 SWAP1 SLOAD SWAP1 PUSH2 0x100 EXP SWAP1 DIV PUSH20 0xFFFFFFFFFFFFFFFFFFFFFFFFFFFFFFFFFFFFFFFF AND DUP4 DUP3 PUSH1 0x3 DUP2 LT PUSH2 0x36F JUMPI PUSH2 0x36E PUSH2 0xF25 JUMP JUMPDEST JUMPDEST PUSH1 0x20 MUL ADD SWAP1 PUSH20 0xFFFFFFFFFFFFFFFFFFFFFFFFFFFFFFFFFFFFFFFF AND SWAP1 DUP2 PUSH20 0xFFFFFFFFFFFFFFFFFFFFFFFFFFFFFFFFFFFFFFFF AND DUP2 MSTORE POP POP PUSH1 0x1 PUSH0 PUSH1 0x3 DUP4 PUSH1 0x3 DUP2 LT PUSH2 0x3BD JUMPI PUSH2 0x3BC PUSH2 0xF25 JUMP JUMPDEST JUMPDEST ADD PUSH0 SWAP1 SLOAD SWAP1 PUSH2 0x100 EXP SWAP1 DIV PUSH20 0xFFFFFFFFFFFFFFFFFFFFFFFFFFFFFFFFFFFFFFFF AND PUSH20 0xFFFFFFFFFFFFFFFFFFFFFFFFFFFFFFFFFFFFFFFF AND PUSH20 0xFFFFFFFFFFFFFFFFFFFFFFFFFFFFFFFFFFFFFFFF AND DUP2 MSTORE PUSH1 0x20 ADD SWAP1 DUP2 MSTORE PUSH1 0x20 ADD PUSH0 KECCAK256 SLOAD DUP3 DUP3 PUSH1 0x3 DUP2 LT PUSH2 0x42B JUMPI PUSH2 0x42A PUSH2 0xF25 JUMP JUMPDEST JUMPDEST PUSH1 0x20 MUL ADD DUP2 DUP2 MSTORE POP POP DUP1 DUP1 PUSH1 0x1 ADD SWAP2 POP POP PUSH2 0x31E JUMP JUMPDEST POP DUP2 DUP2 SWAP4 POP SWAP4 POP POP POP SWAP1 SWAP2 JUMP JUMPDEST PUSH0 CALLVALUE GT PUSH2 0x490 JUMPI PUSH1 0x40 MLOAD PUSH32 0x8C379A000000000000000000000000000000000000000000000000000000000 DUP2 MSTORE PUSH1 0x4 ADD PUSH2 0x487 SWAP1 PUSH2 0xF9C JUMP JUMPDEST PUSH1 0x40 MLOAD DUP1 SWAP2 SUB SWAP1 REVERT JUMPDEST CALLVALUE PUSH1 0x1 PUSH0 CALLER PUSH20 0xFFFFFFFFFFFFFFFFFFFFFFFFFFFFFFFFFFFFFFFF AND PUSH20 0xFFFFFFFFFFFFFFFFFFFFFFFFFFFFFFFFFFFFFFFF AND DUP2 MSTORE PUSH1 0x20 ADD SWAP1 DUP2 MSTORE PUSH1 0x20 ADD PUSH0 KECCAK256 PUSH0 DUP3 DUP3 SLOAD PUSH2 0x4DC SWAP2 SWAP1 PUSH2 0xFE7 JUMP JUMPDEST SWAP3 POP POP DUP2 SWAP1 SSTORE POP PUSH2 0x4EC CALLER PUSH2 0x708 JUMP JUMPDEST CALLER PUSH20 0xFFFFFFFFFFFFFFFFFFFFFFFFFFFFFFFFFFFFFFFF AND PUSH32 0x5D8BC849764969EB1BCC6D0A2F55999D0167C1CCEC240A4F39CF664CA9C4148E CALLVALUE PUSH1 0x40 MLOAD PUSH2 0x532 SWAP2 SWAP1 PUSH2 0xC93 JUMP JUMPDEST PUSH1 0x40 MLOAD DUP1 SWAP2 SUB SWAP1 LOG2 JUMP JUMPDEST PUSH2 0x544 PUSH2 0x5C0 JUMP JUMPDEST PUSH0 PUSH20 0xFFFFFFFFFFFFFFFFFFFFFFFFFFFFFFFFFFFFFFFF AND DUP2 PUSH20 0xFFFFFFFFFFFFFFFFFFFFFFFFFFFFFFFFFFFFFFFF AND SUB PUSH2 0x5B4 JUMPI PUSH0 PUSH1 0x40 MLOAD PUSH32 0x1E4FBDF700000000000000000000000000000000000000000000000000000000 DUP2 MSTORE PUSH1 0x4 ADD PUSH2 0x5AB SWAP2 SWAP1 PUSH2 0xCBB JUMP JUMPDEST PUSH1 0x40 MLOAD DUP1 SWAP2 SUB SWAP1 REVERT JUMPDEST PUSH2 0x5BD DUP2 PUSH2 0x647 JUMP JUMPDEST POP JUMP JUMPDEST PUSH2 0x5C8 PUSH2 0x963 JUMP JUMPDEST PUSH20 0xFFFFFFFFFFFFFFFFFFFFFFFFFFFFFFFFFFFFFFFF AND PUSH2 0x5E6 PUSH2 0x2D2 JUMP JUMPDEST PUSH20 0xFFFFFFFFFFFFFFFFFFFFFFFFFFFFFFFFFFFFFFFF AND EQ PUSH2 0x645 JUMPI PUSH2 0x609 PUSH2 0x963 JUMP JUMPDEST PUSH1 0x40 MLOAD PUSH32 0x118CDAA700000000000000000000000000000000000000000000000000000000 DUP2 MSTORE PUSH1 0x4 ADD PUSH2 0x63C SWAP2 SWAP1 PUSH2 0xCBB JUMP JUMPDEST PUSH1 0x40 MLOAD DUP1 SWAP2 SUB SWAP1 REVERT JUMPDEST JUMP JUMPDEST PUSH0 PUSH0 PUSH0 SWAP1 SLOAD SWAP1 PUSH2 0x100 EXP SWAP1 DIV PUSH20 0xFFFFFFFFFFFFFFFFFFFFFFFFFFFFFFFFFFFFFFFF AND SWAP1 POP DUP2 PUSH0 PUSH0 PUSH2 0x100 EXP DUP2 SLOAD DUP2 PUSH20 0xFFFFFFFFFFFFFFFFFFFFFFFFFFFFFFFFFFFFFFFF MUL NOT AND SWAP1 DUP4 PUSH20 0xFFFFFFFFFFFFFFFFFFFFFFFFFFFFFFFFFFFFFFFF AND MUL OR SWAP1 SSTORE POP DUP2 PUSH20 0xFFFFFFFFFFFFFFFFFFFFFFFFFFFFFFFFFFFFFFFF AND DUP2 PUSH20 0xFFFFFFFFFFFFFFFFFFFFFFFFFFFFFFFFFFFFFFFF AND PUSH32 0x8BE0079C531659141344CD1FD0A4F28419497F9722A3DAAFE3B4186F6B6457E0 PUSH1 0x40 MLOAD PUSH1 0x40 MLOAD DUP1 SWAP2 SUB SWAP1 LOG3 POP POP JUMP JUMPDEST PUSH0 PUSH1 0x3 SUB PUSH2 0x768 JUMPI DUP1 PUSH1 0x3 PUSH0 PUSH1 0x3 DUP2 LT PUSH2 0x725 JUMPI PUSH2 0x724 PUSH2 0xF25 JUMP JUMPDEST JUMPDEST ADD PUSH0 PUSH2 0x100 EXP DUP2 SLOAD DUP2 PUSH20 0xFFFFFFFFFFFFFFFFFFFFFFFFFFFFFFFFFFFFFFFF MUL NOT AND SWAP1 DUP4 PUSH20 0xFFFFFFFFFFFFFFFFFFFFFFFFFFFFFFFFFFFFFFFF AND MUL OR SWAP1 SSTORE POP PUSH2 0x960 JUMP JUMPDEST PUSH1 0x1 PUSH1 0x3 SUB PUSH2 0x7D2 JUMPI DUP1 PUSH1 0x3 PUSH1 0x1 PUSH1 0x3 DUP2 LT PUSH2 0x787 JUMPI PUSH2 0x786 PUSH2 0xF25 JUMP JUMPDEST JUMPDEST ADD PUSH0 PUSH2 0x100 EXP DUP2 SLOAD DUP2 PUSH20 0xFFFFFFFFFFFFFFFFFFFFFFFFFFFFFFFFFFFFFFFF MUL NOT AND SWAP1 DUP4 PUSH20 0xFFFFFFFFFFFFFFFFFFFFFFFFFFFFFFFFFFFFFFFF AND MUL OR SWAP1 SSTORE POP PUSH2 0x7CD PUSH2 0x96A JUMP JUMPDEST PUSH2 0x95F JUMP JUMPDEST PUSH1 0x2 PUSH1 0x3 SUB PUSH2 0x83C JUMPI DUP1 PUSH1 0x3 PUSH1 0x2 PUSH1 0x3 DUP2 LT PUSH2 0x7F1 JUMPI PUSH2 0x7F0 PUSH2 0xF25 JUMP JUMPDEST JUMPDEST ADD PUSH0 PUSH2 0x100 EXP DUP2 SLOAD DUP2 PUSH20 0xFFFFFFFFFFFFFFFFFFFFFFFFFFFFFFFFFFFFFFFF MUL NOT AND SWAP1 DUP4 PUSH20 0xFFFFFFFFFFFFFFFFFFFFFFFFFFFFFFFFFFFFFFFF AND MUL OR SWAP1 SSTORE POP PUSH2 0x837 PUSH2 0x96A JUMP JUMPDEST PUSH2 0x95E JUMP JUMPDEST PUSH1 0x3 DUP1 SUB PUSH2 0x95D JUMPI PUSH0 PUSH1 0x1 PUSH0 DUP4 PUSH20 0xFFFFFFFFFFFFFFFFFFFFFFFFFFFFFFFFFFFFFFFF AND PUSH20 0xFFFFFFFFFFFFFFFFFFFFFFFFFFFFFFFFFFFFFFFF AND DUP2 MSTORE PUSH1 0x20 ADD SWAP1 DUP2 MSTORE PUSH1 0x20 ADD PUSH0 KECCAK256 SLOAD SWAP1 POP PUSH1 0x1 PUSH0 PUSH1 0x3 PUSH1 0x2 PUSH1 0x3 DUP2 LT PUSH2 0x89D JUMPI PUSH2 0x89C PUSH2 0xF25 JUMP JUMPDEST JUMPDEST ADD PUSH0 SWAP1 SLOAD SWAP1 PUSH2 0x100 EXP SWAP1 DIV PUSH20 0xFFFFFFFFFFFFFFFFFFFFFFFFFFFFFFFFFFFFFFFF AND PUSH20 0xFFFFFFFFFFFFFFFFFFFFFFFFFFFFFFFFFFFFFFFF AND PUSH20 0xFFFFFFFFFFFFFFFFFFFFFFFFFFFFFFFFFFFFFFFF AND DUP2 MSTORE PUSH1 0x20 ADD SWAP1 DUP2 MSTORE PUSH1 0x20 ADD PUSH0 KECCAK256 SLOAD DUP2 LT PUSH2 0x95B JUMPI DUP2 PUSH1 0x3 PUSH1 0x2 PUSH1 0x3 DUP2 LT PUSH2 0x914 JUMPI PUSH2 0x913 PUSH2 0xF25 JUMP JUMPDEST JUMPDEST ADD PUSH0 PUSH2 0x100 EXP DUP2 SLOAD DUP2 PUSH20 0xFFFFFFFFFFFFFFFFFFFFFFFFFFFFFFFFFFFFFFFF MUL NOT AND SWAP1 DUP4 PUSH20 0xFFFFFFFFFFFFFFFFFFFFFFFFFFFFFFFFFFFFFFFF AND MUL OR SWAP1 SSTORE POP PUSH2 0x95A PUSH2 0x96A JUMP JUMPDEST JUMPDEST POP JUMPDEST JUMPDEST JUMPDEST JUMPDEST POP JUMP JUMPDEST PUSH0 CALLER SWAP1 POP SWAP1 JUMP JUMPDEST PUSH0 PUSH0 SWAP1 POP JUMPDEST PUSH1 0x3 DUP2 LT ISZERO PUSH2 0xBAB JUMPI PUSH0 PUSH1 0x1 DUP3 PUSH2 0x986 SWAP2 SWAP1 PUSH2 0xFE7 JUMP JUMPDEST SWAP1 POP JUMPDEST PUSH1 0x3 DUP2 LT ISZERO PUSH2 0xB9D JUMPI PUSH1 0x1 PUSH0 PUSH1 0x3 DUP4 PUSH1 0x3 DUP2 LT PUSH2 0x9A9 JUMPI PUSH2 0x9A8 PUSH2 0xF25 JUMP JUMPDEST JUMPDEST ADD PUSH0 SWAP1 SLOAD SWAP1 PUSH2 0x100 EXP SWAP1 DIV PUSH20 0xFFFFFFFFFFFFFFFFFFFFFFFFFFFFFFFFFFFFFFFF AND PUSH20 0xFFFFFFFFFFFFFFFFFFFFFFFFFFFFFFFFFFFFFFFF AND PUSH20 0xFFFFFFFFFFFFFFFFFFFFFFFFFFFFFFFFFFFFFFFF AND DUP2 MSTORE PUSH1 0x20 ADD SWAP1 DUP2 MSTORE PUSH1 0x20 ADD PUSH0 KECCAK256 SLOAD PUSH1 0x1 PUSH0 PUSH1 0x3 DUP6 PUSH1 0x3 DUP2 LT PUSH2 0xA1B JUMPI PUSH2 0xA1A PUSH2 0xF25 JUMP JUMPDEST JUMPDEST ADD PUSH0 SWAP1 SLOAD SWAP1 PUSH2 0x100 EXP SWAP1 DIV PUSH20 0xFFFFFFFFFFFFFFFFFFFFFFFFFFFFFFFFFFFFFFFF AND PUSH20 0xFFFFFFFFFFFFFFFFFFFFFFFFFFFFFFFFFFFFFFFF AND PUSH20 0xFFFFFFFFFFFFFFFFFFFFFFFFFFFFFFFFFFFFFFFF AND DUP2 MSTORE PUSH1 0x20 ADD SWAP1 DUP2 MSTORE PUSH1 0x20 ADD PUSH0 KECCAK256 SLOAD LT ISZERO PUSH2 0xB90 JUMPI PUSH0 PUSH1 0x3 DUP4 PUSH1 0x3 DUP2 LT PUSH2 0xA91 JUMPI PUSH2 0xA90 PUSH2 0xF25 JUMP JUMPDEST JUMPDEST ADD PUSH0 SWAP1 SLOAD SWAP1 PUSH2 0x100 EXP SWAP1 DIV PUSH20 0xFFFFFFFFFFFFFFFFFFFFFFFFFFFFFFFFFFFFFFFF AND SWAP1 POP PUSH1 0x3 DUP3 PUSH1 0x3 DUP2 LT PUSH2 0xAC8 JUMPI PUSH2 0xAC7 PUSH2 0xF25 JUMP JUMPDEST JUMPDEST ADD PUSH0 SWAP1 SLOAD SWAP1 PUSH2 0x100 EXP SWAP1 DIV PUSH20 0xFFFFFFFFFFFFFFFFFFFFFFFFFFFFFFFFFFFFFFFF AND PUSH1 0x3 DUP5 PUSH1 0x3 DUP2 LT PUSH2 0xAFD JUMPI PUSH2 0xAFC PUSH2 0xF25 JUMP JUMPDEST JUMPDEST ADD PUSH0 PUSH2 0x100 EXP DUP2 SLOAD DUP2 PUSH20 0xFFFFFFFFFFFFFFFFFFFFFFFFFFFFFFFFFFFFFFFF MUL NOT AND SWAP1 DUP4 PUSH20 0xFFFFFFFFFFFFFFFFFFFFFFFFFFFFFFFFFFFFFFFF AND MUL OR SWAP1 SSTORE POP DUP1 PUSH1 0x3 DUP4 PUSH1 0x3 DUP2 LT PUSH2 0xB50 JUMPI PUSH2 0xB4F PUSH2 0xF25 JUMP JUMPDEST JUMPDEST ADD PUSH0 PUSH2 0x100 EXP DUP2 SLOAD DUP2 PUSH20 0xFFFFFFFFFFFFFFFFFFFFFFFFFFFFFFFFFFFFFFFF MUL NOT AND SWAP1 DUP4 PUSH20 0xFFFFFFFFFFFFFFFFFFFFFFFFFFFFFFFFFFFFFFFF AND MUL OR SWAP1 SSTORE POP POP JUMPDEST DUP1 DUP1 PUSH1 0x1 ADD SWAP2 POP POP PUSH2 0x989 JUMP JUMPDEST POP DUP1 DUP1 PUSH1 0x1 ADD SWAP2 POP POP PUSH2 0x96F JUMP JUMPDEST POP JUMP JUMPDEST PUSH1 0x40 MLOAD DUP1 PUSH1 0x60 ADD PUSH1 0x40 MSTORE DUP1 PUSH1 0x3 SWAP1 PUSH1 0x20 DUP3 MUL DUP1 CALLDATASIZE DUP4 CALLDATACOPY DUP1 DUP3 ADD SWAP2 POP POP SWAP1 POP POP SWAP1 JUMP JUMPDEST PUSH1 0x40 MLOAD DUP1 PUSH1 0x60 ADD PUSH1 0x40 MSTORE DUP1 PUSH1 0x3 SWAP1 PUSH1 0x20 DUP3 MUL DUP1 CALLDATASIZE DUP4 CALLDATACOPY DUP1 DUP3 ADD SWAP2 POP POP SWAP1 POP POP SWAP1 JUMP JUMPDEST PUSH0 PUSH0 REVERT JUMPDEST PUSH0 PUSH20 0xFFFFFFFFFFFFFFFFFFFFFFFFFFFFFFFFFFFFFFFF DUP3 AND SWAP1 POP SWAP2 SWAP1 POP JUMP JUMPDEST PUSH0 PUSH2 0xC1F DUP3 PUSH2 0xBF6 JUMP JUMPDEST SWAP1 POP SWAP2 SWAP1 POP JUMP JUMPDEST PUSH2 0xC2F DUP2 PUSH2 0xC15 JUMP JUMPDEST DUP2 EQ PUSH2 0xC39 JUMPI PUSH0 PUSH0 REVERT JUMPDEST POP JUMP JUMPDEST PUSH0 DUP2 CALLDATALOAD SWAP1 POP PUSH2 0xC4A DUP2 PUSH2 0xC26 JUMP JUMPDEST SWAP3 SWAP2 POP POP JUMP JUMPDEST PUSH0 PUSH1 0x20 DUP3 DUP5 SUB SLT ISZERO PUSH2 0xC65 JUMPI PUSH2 0xC64 PUSH2 0xBF2 JUMP JUMPDEST JUMPDEST PUSH0 PUSH2 0xC72 DUP5 DUP3 DUP6 ADD PUSH2 0xC3C JUMP JUMPDEST SWAP2 POP POP SWAP3 SWAP2 POP POP JUMP JUMPDEST PUSH0 DUP2 SWAP1 POP SWAP2 SWAP1 POP JUMP JUMPDEST PUSH2 0xC8D DUP2 PUSH2 0xC7B JUMP JUMPDEST DUP3 MSTORE POP POP JUMP JUMPDEST PUSH0 PUSH1 0x20 DUP3 ADD SWAP1 POP PUSH2 0xCA6 PUSH0 DUP4 ADD DUP5 PUSH2 0xC84 JUMP JUMPDEST SWAP3 SWAP2 POP POP JUMP JUMPDEST PUSH2 0xCB5 DUP2 PUSH2 0xC15 JUMP JUMPDEST DUP3 MSTORE POP POP JUMP JUMPDEST PUSH0 PUSH1 0x20 DUP3 ADD SWAP1 POP PUSH2 0xCCE PUSH0 DUP4 ADD DUP5 PUSH2 0xCAC JUMP JUMPDEST SWAP3 SWAP2 POP POP JUMP JUMPDEST PUSH0 PUSH1 0x3 SWAP1 POP SWAP2 SWAP1 POP JUMP JUMPDEST PUSH0 DUP2 SWAP1 POP SWAP3 SWAP2 POP POP JUMP JUMPDEST PUSH0 DUP2 SWAP1 POP SWAP2 SWAP1 POP JUMP JUMPDEST PUSH2 0xCFA DUP2 PUSH2 0xC15 JUMP JUMPDEST DUP3 MSTORE POP POP JUMP JUMPDEST PUSH0 PUSH2 0xD0B DUP4 DUP4 PUSH2 0xCF1 JUMP JUMPDEST PUSH1 0x20 DUP4 ADD SWAP1 POP SWAP3 SWAP2 POP POP JUMP JUMPDEST PUSH0 PUSH1 0x20 DUP3 ADD SWAP1 POP SWAP2 SWAP1 POP JUMP JUMPDEST PUSH2 0xD2C DUP2 PUSH2 0xCD4 JUMP JUMPDEST PUSH2 0xD36 DUP2 DUP5 PUSH2 0xCDE JUMP JUMPDEST SWAP3 POP PUSH2 0xD41 DUP3 PUSH2 0xCE8 JUMP JUMPDEST DUP1 PUSH0 JUMPDEST DUP4 DUP2 LT ISZERO PUSH2 0xD71 JUMPI DUP2 MLOAD PUSH2 0xD58 DUP8 DUP3 PUSH2 0xD00 JUMP JUMPDEST SWAP7 POP PUSH2 0xD63 DUP4 PUSH2 0xD17 JUMP JUMPDEST SWAP3 POP POP PUSH1 0x1 DUP2 ADD SWAP1 POP PUSH2 0xD44 JUMP JUMPDEST POP POP POP POP POP POP JUMP JUMPDEST PUSH0 PUSH1 0x3 SWAP1 POP SWAP2 SWAP1 POP JUMP JUMPDEST PUSH0 DUP2 SWAP1 POP SWAP3 SWAP2 POP POP JUMP JUMPDEST PUSH0 DUP2 SWAP1 POP SWAP2 SWAP1 POP JUMP JUMPDEST PUSH2 0xD9F DUP2 PUSH2 0xC7B JUMP JUMPDEST DUP3 MSTORE POP POP JUMP JUMPDEST PUSH0 PUSH2 0xDB0 DUP4 DUP4 PUSH2 0xD96 JUMP JUMPDEST PUSH1 0x20 DUP4 ADD SWAP1 POP SWAP3 SWAP2 POP POP JUMP JUMPDEST PUSH0 PUSH1 0x20 DUP3 ADD SWAP1 POP SWAP2 SWAP1 POP JUMP JUMPDEST PUSH2 0xDD1 DUP2 PUSH2 0xD79 JUMP JUMPDEST PUSH2 0xDDB DUP2 DUP5 PUSH2 0xD83 JUMP JUMPDEST SWAP3 POP PUSH2 0xDE6 DUP3 PUSH2 0xD8D JUMP JUMPDEST DUP1 PUSH0 JUMPDEST DUP4 DUP2 LT ISZERO PUSH2 0xE16 JUMPI DUP2 MLOAD PUSH2 0xDFD DUP8 DUP3 PUSH2 0xDA5 JUMP JUMPDEST SWAP7 POP PUSH2 0xE08 DUP4 PUSH2 0xDBC JUMP JUMPDEST SWAP3 POP POP PUSH1 0x1 DUP2 ADD SWAP1 POP PUSH2 0xDE9 JUMP JUMPDEST POP POP POP POP POP POP JUMP JUMPDEST PUSH0 PUSH1 0xC0 DUP3 ADD SWAP1 POP PUSH2 0xE31 PUSH0 DUP4 ADD DUP6 PUSH2 0xD23 JUMP JUMPDEST PUSH2 0xE3E PUSH1 0x60 DUP4 ADD DUP5 PUSH2 0xDC8 JUMP JUMPDEST SWAP4 SWAP3 POP POP POP JUMP JUMPDEST PUSH0 DUP3 DUP3 MSTORE PUSH1 0x20 DUP3 ADD SWAP1 POP SWAP3 SWAP2 POP POP JUMP JUMPDEST PUSH32 0x4E6F207265656E7472616E637920616C6C6F7765642100000000000000000000 PUSH0 DUP3 ADD MSTORE POP JUMP JUMPDEST PUSH0 PUSH2 0xE89 PUSH1 0x16 DUP4 PUSH2 0xE45 JUMP JUMPDEST SWAP2 POP PUSH2 0xE94 DUP3 PUSH2 0xE55 JUMP JUMPDEST PUSH1 0x20 DUP3 ADD SWAP1 POP SWAP2 SWAP1 POP JUMP JUMPDEST PUSH0 PUSH1 0x20 DUP3 ADD SWAP1 POP DUP2 DUP2 SUB PUSH0 DUP4 ADD MSTORE PUSH2 0xEB6 DUP2 PUSH2 0xE7D JUMP JUMPDEST SWAP1 POP SWAP2 SWAP1 POP JUMP JUMPDEST PUSH32 0x4E6F2062616C616E636520746F20776974686472617700000000000000000000 PUSH0 DUP3 ADD MSTORE POP JUMP JUMPDEST PUSH0 PUSH2 0xEF1 PUSH1 0x16 DUP4 PUSH2 0xE45 JUMP JUMPDEST SWAP2 POP PUSH2 0xEFC DUP3 PUSH2 0xEBD JUMP JUMPDEST PUSH1 0x20 DUP3 ADD SWAP1 POP SWAP2 SWAP1 POP JUMP JUMPDEST PUSH0 PUSH1 0x20 DUP3 ADD SWAP1 POP DUP2 DUP2 SUB PUSH0 DUP4 ADD MSTORE PUSH2 0xF1E DUP2 PUSH2 0xEE5 JUMP JUMPDEST SWAP1 POP SWAP2 SWAP1 POP JUMP JUMPDEST PUSH32 0x4E487B7100000000000000000000000000000000000000000000000000000000 PUSH0 MSTORE PUSH1 0x32 PUSH1 0x4 MSTORE PUSH1 0x24 PUSH0 REVERT JUMPDEST PUSH32 0x646F6E6174652076616C7565206D757374203E20300000000000000000000000 PUSH0 DUP3 ADD MSTORE POP JUMP JUMPDEST PUSH0 PUSH2 0xF86 PUSH1 0x15 DUP4 PUSH2 0xE45 JUMP JUMPDEST SWAP2 POP PUSH2 0xF91 DUP3 PUSH2 0xF52 JUMP JUMPDEST PUSH1 0x20 DUP3 ADD SWAP1 POP SWAP2 SWAP1 POP JUMP JUMPDEST PUSH0 PUSH1 0x20 DUP3 ADD SWAP1 POP DUP2 DUP2 SUB PUSH0 DUP4 ADD MSTORE PUSH2 0xFB3 DUP2 PUSH2 0xF7A JUMP JUMPDEST SWAP1 POP SWAP2 SWAP1 POP JUMP JUMPDEST PUSH32 0x4E487B7100000000000000000000000000000000000000000000000000000000 PUSH0 MSTORE PUSH1 0x11 PUSH1 0x4 MSTORE PUSH1 0x24 PUSH0 REVERT JUMPDEST PUSH0 PUSH2 0xFF1 DUP3 PUSH2 0xC7B JUMP JUMPDEST SWAP2 POP PUSH2 0xFFC DUP4 PUSH2 0xC7B JUMP JUMPDEST SWAP3 POP DUP3 DUP3 ADD SWAP1 POP DUP1 DUP3 GT ISZERO PUSH2 0x1014 JUMPI PUSH2 0x1013 PUSH2 0xFBA JUMP JUMPDEST JUMPDEST SWAP3 SWAP2 POP POP JUMP INVALID LOG2 PUSH5 0x6970667358 0x22 SLT KECCAK256 SELFBALANCE 0xB3 JUMPI 0xDB 0xC8 CODECOPY CALLER BLOCKHASH SWAP1 0x4D ADD RETURNDATASIZE GASPRICE MSTORE8 MLOAD REVERT 0xEF ADDMOD PUSH6 0xE953B76F48A2 PUSH15 0x52ED097972E464736F6C634300081E STOP CALLER "
				},
				"gasEstimates": {
					"creation": {
						"codeDepositCost": "835200",
						"executionCost": "infinite",
						"totalCost": "infinite"
					},
					"external": {
						"donate()": "infinite",
						"getDonation(address)": "2852",
						"getTopDonors()": "infinite",
						"owner()": "2514",
						"renounceOwnership()": "infinite",
						"transferOwnership(address)": "infinite",
						"withdraw()": "infinite"
					},
					"internal": {
						"sortedDonors()": "infinite",
						"updateDonors(address)": "infinite"
					}
				},
				"methodIdentifiers": {
					"donate()": "ed88c68e",
					"getDonation(address)": "410a1d32",
					"getTopDonors()": "d6387ed8",
					"owner()": "8da5cb5b",
					"renounceOwnership()": "715018a6",
					"transferOwnership(address)": "f2fde38b",
					"withdraw()": "3ccfd60b"
				}
			},
			"storageLayout": {
				"storage": [
					{
						"astId": 8,
						"contract": "BeggingContract.sol:BeggingContract",
						"label": "_owner",
						"offset": 0,
						"slot": "0",
						"type": "t_address"
					},
					{
						"astId": 186,
						"contract": "BeggingContract.sol:BeggingContract",
						"label": "_balances",
						"offset": 0,
						"slot": "1",
						"type": "t_mapping(t_address,t_uint256)"
					},
					{
						"astId": 188,
						"contract": "BeggingContract.sol:BeggingContract",
						"label": "locked",
						"offset": 0,
						"slot": "2",
						"type": "t_bool"
					},
					{
						"astId": 192,
						"contract": "BeggingContract.sol:BeggingContract",
						"label": "topDonors",
						"offset": 0,
						"slot": "3",
						"type": "t_array(t_address)3_storage"
					}
				],
				"types": {
					"t_address": {
						"encoding": "inplace",
						"label": "address",
						"numberOfBytes": "20"
					},
					"t_array(t_address)3_storage": {
						"base": "t_address",
						"encoding": "inplace",
						"label": "address[3]",
						"numberOfBytes": "96"
					},
					"t_bool": {
						"encoding": "inplace",
						"label": "bool",
						"numberOfBytes": "1"
					},
					"t_mapping(t_address,t_uint256)": {
						"encoding": "mapping",
						"key": "t_address",
						"label": "mapping(address => uint256)",
						"numberOfBytes": "32",
						"value": "t_uint256"
					},
					"t_uint256": {
						"encoding": "inplace",
						"label": "uint256",
						"numberOfBytes": "32"
					}
				}
			},
			"userdoc": {
				"kind": "user",
				"methods": {},
				"version": 1
			}
		}
	}
}