{
	"6_BinarySearch.sol": {
		"BinarySearch": {
			"abi": [
				{
					"inputs": [
						{
							"internalType": "int256[]",
							"name": "array",
							"type": "int256[]"
						},
						{
							"internalType": "int256",
							"name": "target",
							"type": "int256"
						}
					],
					"name": "binarySearch",
					"outputs": [
						{
							"internalType": "int256",
							"name": "",
							"type": "int256"
						}
					],
					"stateMutability": "pure",
					"type": "function"
				}
			],
			"devdoc": {
				"kind": "dev",
				"methods": {},
				"version": 1
			},
			"evm": {
				"assembly": "    /* \"6_BinarySearch.sol\":58:911  contract BinarySearch {... */\n  mstore(0x40, 0x80)\n  callvalue\n  dup1\n  iszero\n  tag_1\n  jumpi\n  revert(0x00, 0x00)\ntag_1:\n  pop\n  dataSize(sub_0)\n  dup1\n  dataOffset(sub_0)\n  0x00\n  codecopy\n  0x00\n  return\nstop\n\nsub_0: assembly {\n        /* \"6_BinarySearch.sol\":58:911  contract BinarySearch {... */\n      mstore(0x40, 0x80)\n      callvalue\n      dup1\n      iszero\n      tag_1\n      jumpi\n      revert(0x00, 0x00)\n    tag_1:\n      pop\n      jumpi(tag_2, lt(calldatasize, 0x04))\n      shr(0xe0, calldataload(0x00))\n      dup1\n      0xf4353706\n      eq\n      tag_3\n      jumpi\n    tag_2:\n      revert(0x00, 0x00)\n        /* \"6_BinarySearch.sol\":89:906  function binarySearch(int[] memory array, int target) public pure returns (int) {... */\n    tag_3:\n      tag_4\n      0x04\n      dup1\n      calldatasize\n      sub\n      dup2\n      add\n      swap1\n      tag_5\n      swap2\n      swap1\n      tag_6\n      jump\t// in\n    tag_5:\n      tag_7\n      jump\t// in\n    tag_4:\n      mload(0x40)\n      tag_8\n      swap2\n      swap1\n      tag_9\n      jump\t// in\n    tag_8:\n      mload(0x40)\n      dup1\n      swap2\n      sub\n      swap1\n      return\n    tag_7:\n        /* \"6_BinarySearch.sol\":164:167  int */\n      0x00\n        /* \"6_BinarySearch.sol\":182:190  int left */\n      0x00\n        /* \"6_BinarySearch.sol\":193:194  0 */\n      0x00\n        /* \"6_BinarySearch.sol\":182:194  int left = 0 */\n      swap1\n      pop\n        /* \"6_BinarySearch.sol\":205:214  int right */\n      0x00\n        /* \"6_BinarySearch.sol\":236:237  1 */\n      0x01\n        /* \"6_BinarySearch.sol\":221:226  array */\n      dup6\n        /* \"6_BinarySearch.sol\":221:233  array.length */\n      mload\n        /* \"6_BinarySearch.sol\":221:237  array.length - 1 */\n      tag_11\n      swap2\n      swap1\n      tag_12\n      jump\t// in\n    tag_11:\n        /* \"6_BinarySearch.sol\":205:238  int right = int(array.length - 1) */\n      swap1\n      pop\n        /* \"6_BinarySearch.sol\":251:827  while (left <= right) {... */\n    tag_13:\n        /* \"6_BinarySearch.sol\":266:271  right */\n      dup1\n        /* \"6_BinarySearch.sol\":258:262  left */\n      dup3\n        /* \"6_BinarySearch.sol\":258:271  left <= right */\n      sgt\n        /* \"6_BinarySearch.sol\":251:827  while (left <= right) {... */\n      tag_14\n      jumpi\n        /* \"6_BinarySearch.sol\":288:295  int mid */\n      0x00\n        /* \"6_BinarySearch.sol\":322:323  2 */\n      0x02\n        /* \"6_BinarySearch.sol\":314:318  left */\n      dup4\n        /* \"6_BinarySearch.sol\":306:311  right */\n      dup4\n        /* \"6_BinarySearch.sol\":306:318  right - left */\n      tag_15\n      swap2\n      swap1\n      tag_16\n      jump\t// in\n    tag_15:\n        /* \"6_BinarySearch.sol\":305:323  (right - left) / 2 */\n      tag_17\n      swap2\n      swap1\n      tag_18\n      jump\t// in\n    tag_17:\n        /* \"6_BinarySearch.sol\":298:302  left */\n      dup4\n        /* \"6_BinarySearch.sol\":298:323  left + (right - left) / 2 */\n      tag_19\n      swap2\n      swap1\n      tag_20\n      jump\t// in\n    tag_19:\n        /* \"6_BinarySearch.sol\":288:323  int mid = left + (right - left) / 2 */\n      swap1\n      pop\n        /* \"6_BinarySearch.sol\":444:450  target */\n      dup5\n        /* \"6_BinarySearch.sol\":424:429  array */\n      dup7\n        /* \"6_BinarySearch.sol\":435:438  mid */\n      dup3\n        /* \"6_BinarySearch.sol\":424:440  array[uint(mid)] */\n      dup2\n      mload\n      dup2\n      lt\n      tag_21\n      jumpi\n      tag_22\n      tag_23\n      jump\t// in\n    tag_22:\n    tag_21:\n      0x20\n      mul\n      0x20\n      add\n      add\n      mload\n        /* \"6_BinarySearch.sol\":424:450  array[uint(mid)] == target */\n      sub\n        /* \"6_BinarySearch.sol\":420:522  if (array[uint(mid)] == target) {... */\n      tag_24\n      jumpi\n        /* \"6_BinarySearch.sol\":478:481  mid */\n      dup1\n        /* \"6_BinarySearch.sol\":471:481  return mid */\n      swap4\n      pop\n      pop\n      pop\n      pop\n      jump(tag_10)\n        /* \"6_BinarySearch.sol\":420:522  if (array[uint(mid)] == target) {... */\n    tag_24:\n        /* \"6_BinarySearch.sol\":629:635  target */\n      dup5\n        /* \"6_BinarySearch.sol\":610:615  array */\n      dup7\n        /* \"6_BinarySearch.sol\":621:624  mid */\n      dup3\n        /* \"6_BinarySearch.sol\":610:626  array[uint(mid)] */\n      dup2\n      mload\n      dup2\n      lt\n      tag_25\n      jumpi\n      tag_26\n      tag_23\n      jump\t// in\n    tag_26:\n    tag_25:\n      0x20\n      mul\n      0x20\n      add\n      add\n      mload\n        /* \"6_BinarySearch.sol\":610:635  array[uint(mid)] < target */\n      slt\n        /* \"6_BinarySearch.sol\":606:814  if (array[uint(mid)] < target) {... */\n      iszero\n      tag_27\n      jumpi\n        /* \"6_BinarySearch.sol\":669:670  1 */\n      0x01\n        /* \"6_BinarySearch.sol\":663:666  mid */\n      dup2\n        /* \"6_BinarySearch.sol\":663:670  mid + 1 */\n      tag_28\n      swap2\n      swap1\n      tag_20\n      jump\t// in\n    tag_28:\n        /* \"6_BinarySearch.sol\":656:670  left = mid + 1 */\n      swap3\n      pop\n        /* \"6_BinarySearch.sol\":606:814  if (array[uint(mid)] < target) {... */\n      jump(tag_29)\n    tag_27:\n        /* \"6_BinarySearch.sol\":797:798  1 */\n      0x01\n        /* \"6_BinarySearch.sol\":791:794  mid */\n      dup2\n        /* \"6_BinarySearch.sol\":791:798  mid - 1 */\n      tag_30\n      swap2\n      swap1\n      tag_16\n      jump\t// in\n    tag_30:\n        /* \"6_BinarySearch.sol\":783:798  right = mid - 1 */\n      swap2\n      pop\n        /* \"6_BinarySearch.sol\":606:814  if (array[uint(mid)] < target) {... */\n    tag_29:\n        /* \"6_BinarySearch.sol\":273:827  {... */\n      pop\n        /* \"6_BinarySearch.sol\":251:827  while (left <= right) {... */\n      jump(tag_13)\n    tag_14:\n        /* \"6_BinarySearch.sol\":894:896  -1 */\n      0xffffffffffffffffffffffffffffffffffffffffffffffffffffffffffffffff\n        /* \"6_BinarySearch.sol\":887:896  return -1 */\n      swap3\n      pop\n      pop\n      pop\n        /* \"6_BinarySearch.sol\":89:906  function binarySearch(int[] memory array, int target) public pure returns (int) {... */\n    tag_10:\n      swap3\n      swap2\n      pop\n      pop\n      jump\t// out\n        /* \"#utility.yul\":7:82   */\n    tag_31:\n        /* \"#utility.yul\":40:46   */\n      0x00\n        /* \"#utility.yul\":73:75   */\n      0x40\n        /* \"#utility.yul\":67:76   */\n      mload\n        /* \"#utility.yul\":57:76   */\n      swap1\n      pop\n        /* \"#utility.yul\":7:82   */\n      swap1\n      jump\t// out\n        /* \"#utility.yul\":88:205   */\n    tag_32:\n        /* \"#utility.yul\":197:198   */\n      0x00\n        /* \"#utility.yul\":194:195   */\n      0x00\n        /* \"#utility.yul\":187:199   */\n      revert\n        /* \"#utility.yul\":211:328   */\n    tag_33:\n        /* \"#utility.yul\":320:321   */\n      0x00\n        /* \"#utility.yul\":317:318   */\n      0x00\n        /* \"#utility.yul\":310:322   */\n      revert\n        /* \"#utility.yul\":334:451   */\n    tag_34:\n        /* \"#utility.yul\":443:444   */\n      0x00\n        /* \"#utility.yul\":440:441   */\n      0x00\n        /* \"#utility.yul\":433:445   */\n      revert\n        /* \"#utility.yul\":457:559   */\n    tag_35:\n        /* \"#utility.yul\":498:504   */\n      0x00\n        /* \"#utility.yul\":549:551   */\n      0x1f\n        /* \"#utility.yul\":545:552   */\n      not\n        /* \"#utility.yul\":540:542   */\n      0x1f\n        /* \"#utility.yul\":533:538   */\n      dup4\n        /* \"#utility.yul\":529:543   */\n      add\n        /* \"#utility.yul\":525:553   */\n      and\n        /* \"#utility.yul\":515:553   */\n      swap1\n      pop\n        /* \"#utility.yul\":457:559   */\n      swap2\n      swap1\n      pop\n      jump\t// out\n        /* \"#utility.yul\":565:745   */\n    tag_36:\n        /* \"#utility.yul\":613:690   */\n      0x4e487b7100000000000000000000000000000000000000000000000000000000\n        /* \"#utility.yul\":610:611   */\n      0x00\n        /* \"#utility.yul\":603:691   */\n      mstore\n        /* \"#utility.yul\":710:714   */\n      0x41\n        /* \"#utility.yul\":707:708   */\n      0x04\n        /* \"#utility.yul\":700:715   */\n      mstore\n        /* \"#utility.yul\":734:738   */\n      0x24\n        /* \"#utility.yul\":731:732   */\n      0x00\n        /* \"#utility.yul\":724:739   */\n      revert\n        /* \"#utility.yul\":751:1032   */\n    tag_37:\n        /* \"#utility.yul\":834:861   */\n      tag_58\n        /* \"#utility.yul\":856:860   */\n      dup3\n        /* \"#utility.yul\":834:861   */\n      tag_35\n      jump\t// in\n    tag_58:\n        /* \"#utility.yul\":826:832   */\n      dup2\n        /* \"#utility.yul\":822:862   */\n      add\n        /* \"#utility.yul\":964:970   */\n      dup2\n        /* \"#utility.yul\":952:962   */\n      dup2\n        /* \"#utility.yul\":949:971   */\n      lt\n        /* \"#utility.yul\":928:946   */\n      0xffffffffffffffff\n        /* \"#utility.yul\":916:926   */\n      dup3\n        /* \"#utility.yul\":913:947   */\n      gt\n        /* \"#utility.yul\":910:972   */\n      or\n        /* \"#utility.yul\":907:995   */\n      iszero\n      tag_59\n      jumpi\n        /* \"#utility.yul\":975:993   */\n      tag_60\n      tag_36\n      jump\t// in\n    tag_60:\n        /* \"#utility.yul\":907:995   */\n    tag_59:\n        /* \"#utility.yul\":1015:1025   */\n      dup1\n        /* \"#utility.yul\":1011:1013   */\n      0x40\n        /* \"#utility.yul\":1004:1026   */\n      mstore\n        /* \"#utility.yul\":794:1032   */\n      pop\n        /* \"#utility.yul\":751:1032   */\n      pop\n      pop\n      jump\t// out\n        /* \"#utility.yul\":1038:1167   */\n    tag_38:\n        /* \"#utility.yul\":1072:1078   */\n      0x00\n        /* \"#utility.yul\":1099:1119   */\n      tag_62\n      tag_31\n      jump\t// in\n    tag_62:\n        /* \"#utility.yul\":1089:1119   */\n      swap1\n      pop\n        /* \"#utility.yul\":1128:1161   */\n      tag_63\n        /* \"#utility.yul\":1156:1160   */\n      dup3\n        /* \"#utility.yul\":1148:1154   */\n      dup3\n        /* \"#utility.yul\":1128:1161   */\n      tag_37\n      jump\t// in\n    tag_63:\n        /* \"#utility.yul\":1038:1167   */\n      swap2\n      swap1\n      pop\n      jump\t// out\n        /* \"#utility.yul\":1173:1483   */\n    tag_39:\n        /* \"#utility.yul\":1249:1253   */\n      0x00\n        /* \"#utility.yul\":1339:1357   */\n      0xffffffffffffffff\n        /* \"#utility.yul\":1331:1337   */\n      dup3\n        /* \"#utility.yul\":1328:1358   */\n      gt\n        /* \"#utility.yul\":1325:1381   */\n      iszero\n      tag_65\n      jumpi\n        /* \"#utility.yul\":1361:1379   */\n      tag_66\n      tag_36\n      jump\t// in\n    tag_66:\n        /* \"#utility.yul\":1325:1381   */\n    tag_65:\n        /* \"#utility.yul\":1411:1415   */\n      0x20\n        /* \"#utility.yul\":1403:1409   */\n      dup3\n        /* \"#utility.yul\":1399:1416   */\n      mul\n        /* \"#utility.yul\":1391:1416   */\n      swap1\n      pop\n        /* \"#utility.yul\":1471:1475   */\n      0x20\n        /* \"#utility.yul\":1465:1469   */\n      dup2\n        /* \"#utility.yul\":1461:1476   */\n      add\n        /* \"#utility.yul\":1453:1476   */\n      swap1\n      pop\n        /* \"#utility.yul\":1173:1483   */\n      swap2\n      swap1\n      pop\n      jump\t// out\n        /* \"#utility.yul\":1489:1606   */\n    tag_40:\n        /* \"#utility.yul\":1598:1599   */\n      0x00\n        /* \"#utility.yul\":1595:1596   */\n      0x00\n        /* \"#utility.yul\":1588:1600   */\n      revert\n        /* \"#utility.yul\":1612:1688   */\n    tag_41:\n        /* \"#utility.yul\":1648:1655   */\n      0x00\n        /* \"#utility.yul\":1677:1682   */\n      dup2\n        /* \"#utility.yul\":1666:1682   */\n      swap1\n      pop\n        /* \"#utility.yul\":1612:1688   */\n      swap2\n      swap1\n      pop\n      jump\t// out\n        /* \"#utility.yul\":1694:1814   */\n    tag_42:\n        /* \"#utility.yul\":1766:1789   */\n      tag_70\n        /* \"#utility.yul\":1783:1788   */\n      dup2\n        /* \"#utility.yul\":1766:1789   */\n      tag_41\n      jump\t// in\n    tag_70:\n        /* \"#utility.yul\":1759:1764   */\n      dup2\n        /* \"#utility.yul\":1756:1790   */\n      eq\n        /* \"#utility.yul\":1746:1808   */\n      tag_71\n      jumpi\n        /* \"#utility.yul\":1804:1805   */\n      0x00\n        /* \"#utility.yul\":1801:1802   */\n      0x00\n        /* \"#utility.yul\":1794:1806   */\n      revert\n        /* \"#utility.yul\":1746:1808   */\n    tag_71:\n        /* \"#utility.yul\":1694:1814   */\n      pop\n      jump\t// out\n        /* \"#utility.yul\":1820:1957   */\n    tag_43:\n        /* \"#utility.yul\":1865:1870   */\n      0x00\n        /* \"#utility.yul\":1903:1909   */\n      dup2\n        /* \"#utility.yul\":1890:1910   */\n      calldataload\n        /* \"#utility.yul\":1881:1910   */\n      swap1\n      pop\n        /* \"#utility.yul\":1919:1951   */\n      tag_73\n        /* \"#utility.yul\":1945:1950   */\n      dup2\n        /* \"#utility.yul\":1919:1951   */\n      tag_42\n      jump\t// in\n    tag_73:\n        /* \"#utility.yul\":1820:1957   */\n      swap3\n      swap2\n      pop\n      pop\n      jump\t// out\n        /* \"#utility.yul\":1979:2686   */\n    tag_44:\n        /* \"#utility.yul\":2074:2079   */\n      0x00\n        /* \"#utility.yul\":2099:2179   */\n      tag_75\n        /* \"#utility.yul\":2115:2178   */\n      tag_76\n        /* \"#utility.yul\":2171:2177   */\n      dup5\n        /* \"#utility.yul\":2115:2178   */\n      tag_39\n      jump\t// in\n    tag_76:\n        /* \"#utility.yul\":2099:2179   */\n      tag_38\n      jump\t// in\n    tag_75:\n        /* \"#utility.yul\":2090:2179   */\n      swap1\n      pop\n        /* \"#utility.yul\":2199:2204   */\n      dup1\n        /* \"#utility.yul\":2228:2234   */\n      dup4\n        /* \"#utility.yul\":2221:2226   */\n      dup3\n        /* \"#utility.yul\":2214:2235   */\n      mstore\n        /* \"#utility.yul\":2262:2266   */\n      0x20\n        /* \"#utility.yul\":2255:2260   */\n      dup3\n        /* \"#utility.yul\":2251:2267   */\n      add\n        /* \"#utility.yul\":2244:2267   */\n      swap1\n      pop\n        /* \"#utility.yul\":2315:2319   */\n      0x20\n        /* \"#utility.yul\":2307:2313   */\n      dup5\n        /* \"#utility.yul\":2303:2320   */\n      mul\n        /* \"#utility.yul\":2295:2301   */\n      dup4\n        /* \"#utility.yul\":2291:2321   */\n      add\n        /* \"#utility.yul\":2344:2347   */\n      dup6\n        /* \"#utility.yul\":2336:2342   */\n      dup2\n        /* \"#utility.yul\":2333:2348   */\n      gt\n        /* \"#utility.yul\":2330:2452   */\n      iszero\n      tag_77\n      jumpi\n        /* \"#utility.yul\":2363:2442   */\n      tag_78\n      tag_40\n      jump\t// in\n    tag_78:\n        /* \"#utility.yul\":2330:2452   */\n    tag_77:\n        /* \"#utility.yul\":2478:2484   */\n      dup4\n        /* \"#utility.yul\":2461:2680   */\n    tag_79:\n        /* \"#utility.yul\":2495:2501   */\n      dup2\n        /* \"#utility.yul\":2490:2493   */\n      dup2\n        /* \"#utility.yul\":2487:2502   */\n      lt\n        /* \"#utility.yul\":2461:2680   */\n      iszero\n      tag_81\n      jumpi\n        /* \"#utility.yul\":2570:2573   */\n      dup1\n        /* \"#utility.yul\":2599:2635   */\n      tag_82\n        /* \"#utility.yul\":2631:2634   */\n      dup9\n        /* \"#utility.yul\":2619:2629   */\n      dup3\n        /* \"#utility.yul\":2599:2635   */\n      tag_43\n      jump\t// in\n    tag_82:\n        /* \"#utility.yul\":2594:2597   */\n      dup5\n        /* \"#utility.yul\":2587:2636   */\n      mstore\n        /* \"#utility.yul\":2665:2669   */\n      0x20\n        /* \"#utility.yul\":2660:2663   */\n      dup5\n        /* \"#utility.yul\":2656:2670   */\n      add\n        /* \"#utility.yul\":2649:2670   */\n      swap4\n      pop\n        /* \"#utility.yul\":2537:2680   */\n      pop\n        /* \"#utility.yul\":2521:2525   */\n      0x20\n        /* \"#utility.yul\":2516:2519   */\n      dup2\n        /* \"#utility.yul\":2512:2526   */\n      add\n        /* \"#utility.yul\":2505:2526   */\n      swap1\n      pop\n        /* \"#utility.yul\":2461:2680   */\n      jump(tag_79)\n    tag_81:\n        /* \"#utility.yul\":2465:2486   */\n      pop\n        /* \"#utility.yul\":2080:2686   */\n      pop\n      pop\n        /* \"#utility.yul\":1979:2686   */\n      swap4\n      swap3\n      pop\n      pop\n      pop\n      jump\t// out\n        /* \"#utility.yul\":2708:3076   */\n    tag_45:\n        /* \"#utility.yul\":2778:2783   */\n      0x00\n        /* \"#utility.yul\":2827:2830   */\n      dup3\n        /* \"#utility.yul\":2820:2824   */\n      0x1f\n        /* \"#utility.yul\":2812:2818   */\n      dup4\n        /* \"#utility.yul\":2808:2825   */\n      add\n        /* \"#utility.yul\":2804:2831   */\n      slt\n        /* \"#utility.yul\":2794:2916   */\n      tag_84\n      jumpi\n        /* \"#utility.yul\":2835:2914   */\n      tag_85\n      tag_34\n      jump\t// in\n    tag_85:\n        /* \"#utility.yul\":2794:2916   */\n    tag_84:\n        /* \"#utility.yul\":2952:2958   */\n      dup2\n        /* \"#utility.yul\":2939:2959   */\n      calldataload\n        /* \"#utility.yul\":2977:3070   */\n      tag_86\n        /* \"#utility.yul\":3066:3069   */\n      dup5\n        /* \"#utility.yul\":3058:3064   */\n      dup3\n        /* \"#utility.yul\":3051:3055   */\n      0x20\n        /* \"#utility.yul\":3043:3049   */\n      dup7\n        /* \"#utility.yul\":3039:3056   */\n      add\n        /* \"#utility.yul\":2977:3070   */\n      tag_44\n      jump\t// in\n    tag_86:\n        /* \"#utility.yul\":2968:3070   */\n      swap2\n      pop\n        /* \"#utility.yul\":2784:3076   */\n      pop\n        /* \"#utility.yul\":2708:3076   */\n      swap3\n      swap2\n      pop\n      pop\n      jump\t// out\n        /* \"#utility.yul\":3082:3762   */\n    tag_6:\n        /* \"#utility.yul\":3173:3179   */\n      0x00\n        /* \"#utility.yul\":3181:3187   */\n      0x00\n        /* \"#utility.yul\":3230:3232   */\n      0x40\n        /* \"#utility.yul\":3218:3227   */\n      dup4\n        /* \"#utility.yul\":3209:3216   */\n      dup6\n        /* \"#utility.yul\":3205:3228   */\n      sub\n        /* \"#utility.yul\":3201:3233   */\n      slt\n        /* \"#utility.yul\":3198:3317   */\n      iszero\n      tag_88\n      jumpi\n        /* \"#utility.yul\":3236:3315   */\n      tag_89\n      tag_32\n      jump\t// in\n    tag_89:\n        /* \"#utility.yul\":3198:3317   */\n    tag_88:\n        /* \"#utility.yul\":3384:3385   */\n      0x00\n        /* \"#utility.yul\":3373:3382   */\n      dup4\n        /* \"#utility.yul\":3369:3386   */\n      add\n        /* \"#utility.yul\":3356:3387   */\n      calldataload\n        /* \"#utility.yul\":3414:3432   */\n      0xffffffffffffffff\n        /* \"#utility.yul\":3406:3412   */\n      dup2\n        /* \"#utility.yul\":3403:3433   */\n      gt\n        /* \"#utility.yul\":3400:3517   */\n      iszero\n      tag_90\n      jumpi\n        /* \"#utility.yul\":3436:3515   */\n      tag_91\n      tag_33\n      jump\t// in\n    tag_91:\n        /* \"#utility.yul\":3400:3517   */\n    tag_90:\n        /* \"#utility.yul\":3541:3618   */\n      tag_92\n        /* \"#utility.yul\":3610:3617   */\n      dup6\n        /* \"#utility.yul\":3601:3607   */\n      dup3\n        /* \"#utility.yul\":3590:3599   */\n      dup7\n        /* \"#utility.yul\":3586:3608   */\n      add\n        /* \"#utility.yul\":3541:3618   */\n      tag_45\n      jump\t// in\n    tag_92:\n        /* \"#utility.yul\":3531:3618   */\n      swap3\n      pop\n        /* \"#utility.yul\":3327:3628   */\n      pop\n        /* \"#utility.yul\":3667:3669   */\n      0x20\n        /* \"#utility.yul\":3693:3745   */\n      tag_93\n        /* \"#utility.yul\":3737:3744   */\n      dup6\n        /* \"#utility.yul\":3728:3734   */\n      dup3\n        /* \"#utility.yul\":3717:3726   */\n      dup7\n        /* \"#utility.yul\":3713:3735   */\n      add\n        /* \"#utility.yul\":3693:3745   */\n      tag_43\n      jump\t// in\n    tag_93:\n        /* \"#utility.yul\":3683:3745   */\n      swap2\n      pop\n        /* \"#utility.yul\":3638:3755   */\n      pop\n        /* \"#utility.yul\":3082:3762   */\n      swap3\n      pop\n      swap3\n      swap1\n      pop\n      jump\t// out\n        /* \"#utility.yul\":3768:3883   */\n    tag_46:\n        /* \"#utility.yul\":3853:3876   */\n      tag_95\n        /* \"#utility.yul\":3870:3875   */\n      dup2\n        /* \"#utility.yul\":3853:3876   */\n      tag_41\n      jump\t// in\n    tag_95:\n        /* \"#utility.yul\":3848:3851   */\n      dup3\n        /* \"#utility.yul\":3841:3877   */\n      mstore\n        /* \"#utility.yul\":3768:3883   */\n      pop\n      pop\n      jump\t// out\n        /* \"#utility.yul\":3889:4107   */\n    tag_9:\n        /* \"#utility.yul\":3980:3984   */\n      0x00\n        /* \"#utility.yul\":4018:4020   */\n      0x20\n        /* \"#utility.yul\":4007:4016   */\n      dup3\n        /* \"#utility.yul\":4003:4021   */\n      add\n        /* \"#utility.yul\":3995:4021   */\n      swap1\n      pop\n        /* \"#utility.yul\":4031:4100   */\n      tag_97\n        /* \"#utility.yul\":4097:4098   */\n      0x00\n        /* \"#utility.yul\":4086:4095   */\n      dup4\n        /* \"#utility.yul\":4082:4099   */\n      add\n        /* \"#utility.yul\":4073:4079   */\n      dup5\n        /* \"#utility.yul\":4031:4100   */\n      tag_46\n      jump\t// in\n    tag_97:\n        /* \"#utility.yul\":3889:4107   */\n      swap3\n      swap2\n      pop\n      pop\n      jump\t// out\n        /* \"#utility.yul\":4113:4190   */\n    tag_47:\n        /* \"#utility.yul\":4150:4157   */\n      0x00\n        /* \"#utility.yul\":4179:4184   */\n      dup2\n        /* \"#utility.yul\":4168:4184   */\n      swap1\n      pop\n        /* \"#utility.yul\":4113:4190   */\n      swap2\n      swap1\n      pop\n      jump\t// out\n        /* \"#utility.yul\":4196:4376   */\n    tag_48:\n        /* \"#utility.yul\":4244:4321   */\n      0x4e487b7100000000000000000000000000000000000000000000000000000000\n        /* \"#utility.yul\":4241:4242   */\n      0x00\n        /* \"#utility.yul\":4234:4322   */\n      mstore\n        /* \"#utility.yul\":4341:4345   */\n      0x11\n        /* \"#utility.yul\":4338:4339   */\n      0x04\n        /* \"#utility.yul\":4331:4346   */\n      mstore\n        /* \"#utility.yul\":4365:4369   */\n      0x24\n        /* \"#utility.yul\":4362:4363   */\n      0x00\n        /* \"#utility.yul\":4355:4370   */\n      revert\n        /* \"#utility.yul\":4382:4576   */\n    tag_12:\n        /* \"#utility.yul\":4422:4426   */\n      0x00\n        /* \"#utility.yul\":4442:4462   */\n      tag_101\n        /* \"#utility.yul\":4460:4461   */\n      dup3\n        /* \"#utility.yul\":4442:4462   */\n      tag_47\n      jump\t// in\n    tag_101:\n        /* \"#utility.yul\":4437:4462   */\n      swap2\n      pop\n        /* \"#utility.yul\":4476:4496   */\n      tag_102\n        /* \"#utility.yul\":4494:4495   */\n      dup4\n        /* \"#utility.yul\":4476:4496   */\n      tag_47\n      jump\t// in\n    tag_102:\n        /* \"#utility.yul\":4471:4496   */\n      swap3\n      pop\n        /* \"#utility.yul\":4520:4521   */\n      dup3\n        /* \"#utility.yul\":4517:4518   */\n      dup3\n        /* \"#utility.yul\":4513:4522   */\n      sub\n        /* \"#utility.yul\":4505:4522   */\n      swap1\n      pop\n        /* \"#utility.yul\":4544:4545   */\n      dup2\n        /* \"#utility.yul\":4538:4542   */\n      dup2\n        /* \"#utility.yul\":4535:4546   */\n      gt\n        /* \"#utility.yul\":4532:4569   */\n      iszero\n      tag_103\n      jumpi\n        /* \"#utility.yul\":4549:4567   */\n      tag_104\n      tag_48\n      jump\t// in\n    tag_104:\n        /* \"#utility.yul\":4532:4569   */\n    tag_103:\n        /* \"#utility.yul\":4382:4576   */\n      swap3\n      swap2\n      pop\n      pop\n      jump\t// out\n        /* \"#utility.yul\":4582:4954   */\n    tag_16:\n        /* \"#utility.yul\":4621:4625   */\n      0x00\n        /* \"#utility.yul\":4641:4660   */\n      tag_106\n        /* \"#utility.yul\":4658:4659   */\n      dup3\n        /* \"#utility.yul\":4641:4660   */\n      tag_41\n      jump\t// in\n    tag_106:\n        /* \"#utility.yul\":4636:4660   */\n      swap2\n      pop\n        /* \"#utility.yul\":4674:4693   */\n      tag_107\n        /* \"#utility.yul\":4691:4692   */\n      dup4\n        /* \"#utility.yul\":4674:4693   */\n      tag_41\n      jump\t// in\n    tag_107:\n        /* \"#utility.yul\":4669:4693   */\n      swap3\n      pop\n        /* \"#utility.yul\":4717:4718   */\n      dup3\n        /* \"#utility.yul\":4714:4715   */\n      dup3\n        /* \"#utility.yul\":4710:4719   */\n      sub\n        /* \"#utility.yul\":4702:4719   */\n      swap1\n      pop\n        /* \"#utility.yul\":4911:4912   */\n      dup2\n        /* \"#utility.yul\":4905:4909   */\n      dup2\n        /* \"#utility.yul\":4901:4913   */\n      slt\n        /* \"#utility.yul\":4897:4898   */\n      0x00\n        /* \"#utility.yul\":4894:4895   */\n      dup5\n        /* \"#utility.yul\":4890:4899   */\n      slt\n        /* \"#utility.yul\":4886:4914   */\n      and\n        /* \"#utility.yul\":4869:4870   */\n      dup3\n        /* \"#utility.yul\":4863:4867   */\n      dup3\n        /* \"#utility.yul\":4859:4871   */\n      sgt\n        /* \"#utility.yul\":4854:4855   */\n      0x00\n        /* \"#utility.yul\":4851:4852   */\n      dup6\n        /* \"#utility.yul\":4847:4856   */\n      slt\n        /* \"#utility.yul\":4840:4857   */\n      iszero\n        /* \"#utility.yul\":4836:4872   */\n      and\n        /* \"#utility.yul\":4820:4924   */\n      or\n        /* \"#utility.yul\":4817:4947   */\n      iszero\n      tag_108\n      jumpi\n        /* \"#utility.yul\":4927:4945   */\n      tag_109\n      tag_48\n      jump\t// in\n    tag_109:\n        /* \"#utility.yul\":4817:4947   */\n    tag_108:\n        /* \"#utility.yul\":4582:4954   */\n      swap3\n      swap2\n      pop\n      pop\n      jump\t// out\n        /* \"#utility.yul\":4960:5140   */\n    tag_49:\n        /* \"#utility.yul\":5008:5085   */\n      0x4e487b7100000000000000000000000000000000000000000000000000000000\n        /* \"#utility.yul\":5005:5006   */\n      0x00\n        /* \"#utility.yul\":4998:5086   */\n      mstore\n        /* \"#utility.yul\":5105:5109   */\n      0x12\n        /* \"#utility.yul\":5102:5103   */\n      0x04\n        /* \"#utility.yul\":5095:5110   */\n      mstore\n        /* \"#utility.yul\":5129:5133   */\n      0x24\n        /* \"#utility.yul\":5126:5127   */\n      0x00\n        /* \"#utility.yul\":5119:5134   */\n      revert\n        /* \"#utility.yul\":5146:5531   */\n    tag_18:\n        /* \"#utility.yul\":5185:5186   */\n      0x00\n        /* \"#utility.yul\":5202:5221   */\n      tag_112\n        /* \"#utility.yul\":5219:5220   */\n      dup3\n        /* \"#utility.yul\":5202:5221   */\n      tag_41\n      jump\t// in\n    tag_112:\n        /* \"#utility.yul\":5197:5221   */\n      swap2\n      pop\n        /* \"#utility.yul\":5235:5254   */\n      tag_113\n        /* \"#utility.yul\":5252:5253   */\n      dup4\n        /* \"#utility.yul\":5235:5254   */\n      tag_41\n      jump\t// in\n    tag_113:\n        /* \"#utility.yul\":5230:5254   */\n      swap3\n      pop\n        /* \"#utility.yul\":5273:5274   */\n      dup3\n        /* \"#utility.yul\":5263:5298   */\n      tag_114\n      jumpi\n        /* \"#utility.yul\":5278:5296   */\n      tag_115\n      tag_49\n      jump\t// in\n    tag_115:\n        /* \"#utility.yul\":5263:5298   */\n    tag_114:\n        /* \"#utility.yul\":5464:5465   */\n      0x01\n        /* \"#utility.yul\":5461:5462   */\n      0x00\n        /* \"#utility.yul\":5457:5466   */\n      sub\n        /* \"#utility.yul\":5454:5455   */\n      dup4\n        /* \"#utility.yul\":5451:5467   */\n      eq\n        /* \"#utility.yul\":5370:5436   */\n      0x8000000000000000000000000000000000000000000000000000000000000000\n        /* \"#utility.yul\":5367:5368   */\n      dup4\n        /* \"#utility.yul\":5364:5437   */\n      eq\n        /* \"#utility.yul\":5347:5477   */\n      and\n        /* \"#utility.yul\":5344:5500   */\n      iszero\n      tag_116\n      jumpi\n        /* \"#utility.yul\":5480:5498   */\n      tag_117\n      tag_48\n      jump\t// in\n    tag_117:\n        /* \"#utility.yul\":5344:5500   */\n    tag_116:\n        /* \"#utility.yul\":5523:5524   */\n      dup3\n        /* \"#utility.yul\":5520:5521   */\n      dup3\n        /* \"#utility.yul\":5515:5525   */\n      sdiv\n        /* \"#utility.yul\":5510:5525   */\n      swap1\n      pop\n        /* \"#utility.yul\":5146:5531   */\n      swap3\n      swap2\n      pop\n      pop\n      jump\t// out\n        /* \"#utility.yul\":5537:5912   */\n    tag_20:\n        /* \"#utility.yul\":5576:5579   */\n      0x00\n        /* \"#utility.yul\":5595:5614   */\n      tag_119\n        /* \"#utility.yul\":5612:5613   */\n      dup3\n        /* \"#utility.yul\":5595:5614   */\n      tag_41\n      jump\t// in\n    tag_119:\n        /* \"#utility.yul\":5590:5614   */\n      swap2\n      pop\n        /* \"#utility.yul\":5628:5647   */\n      tag_120\n        /* \"#utility.yul\":5645:5646   */\n      dup4\n        /* \"#utility.yul\":5628:5647   */\n      tag_41\n      jump\t// in\n    tag_120:\n        /* \"#utility.yul\":5623:5647   */\n      swap3\n      pop\n        /* \"#utility.yul\":5670:5671   */\n      dup3\n        /* \"#utility.yul\":5667:5668   */\n      dup3\n        /* \"#utility.yul\":5663:5672   */\n      add\n        /* \"#utility.yul\":5656:5672   */\n      swap1\n      pop\n        /* \"#utility.yul\":5868:5869   */\n      dup3\n        /* \"#utility.yul\":5863:5866   */\n      dup2\n        /* \"#utility.yul\":5859:5870   */\n      slt\n        /* \"#utility.yul\":5852:5871   */\n      iszero\n        /* \"#utility.yul\":5848:5849   */\n      0x00\n        /* \"#utility.yul\":5845:5846   */\n      dup4\n        /* \"#utility.yul\":5841:5850   */\n      slt\n        /* \"#utility.yul\":5837:5872   */\n      and\n        /* \"#utility.yul\":5820:5821   */\n      dup4\n        /* \"#utility.yul\":5815:5818   */\n      dup3\n        /* \"#utility.yul\":5811:5822   */\n      slt\n        /* \"#utility.yul\":5806:5807   */\n      0x00\n        /* \"#utility.yul\":5803:5804   */\n      dup5\n        /* \"#utility.yul\":5799:5808   */\n      slt\n        /* \"#utility.yul\":5792:5809   */\n      iszero\n        /* \"#utility.yul\":5788:5823   */\n      and\n        /* \"#utility.yul\":5772:5882   */\n      or\n        /* \"#utility.yul\":5769:5905   */\n      iszero\n      tag_121\n      jumpi\n        /* \"#utility.yul\":5885:5903   */\n      tag_122\n      tag_48\n      jump\t// in\n    tag_122:\n        /* \"#utility.yul\":5769:5905   */\n    tag_121:\n        /* \"#utility.yul\":5537:5912   */\n      swap3\n      swap2\n      pop\n      pop\n      jump\t// out\n        /* \"#utility.yul\":5918:6098   */\n    tag_23:\n        /* \"#utility.yul\":5966:6043   */\n      0x4e487b7100000000000000000000000000000000000000000000000000000000\n        /* \"#utility.yul\":5963:5964   */\n      0x00\n        /* \"#utility.yul\":5956:6044   */\n      mstore\n        /* \"#utility.yul\":6063:6067   */\n      0x32\n        /* \"#utility.yul\":6060:6061   */\n      0x04\n        /* \"#utility.yul\":6053:6068   */\n      mstore\n        /* \"#utility.yul\":6087:6091   */\n      0x24\n        /* \"#utility.yul\":6084:6085   */\n      0x00\n        /* \"#utility.yul\":6077:6092   */\n      revert\n\n    auxdata: 0xa2646970667358221220e46e90d3e1a2ba0f65469ac50b75f61c18bbe4b7c583db85f494d35e151c6ada64736f6c634300081e0033\n}\n",
				"bytecode": {
					"linkReferences": {},
					"object": "6080604052348015600e575f5ffd5b5061053d8061001c5f395ff3fe608060405234801561000f575f5ffd5b5060043610610029575f3560e01c8063f43537061461002d575b5f5ffd5b610047600480360381019061004291906102d9565b61005d565b6040516100549190610342565b60405180910390f35b5f5f5f90505f600185516100719190610391565b90505b808213610119575f6002838361008a91906103c4565b6100949190610431565b8361009f9190610499565b9050848682815181106100b5576100b46104da565b5b6020026020010151036100cd5780935050505061013f565b848682815181106100e1576100e06104da565b5b60200260200101511215610103576001816100fc9190610499565b9250610113565b60018161011091906103c4565b91505b50610074565b7fffffffffffffffffffffffffffffffffffffffffffffffffffffffffffffffff925050505b92915050565b5f604051905090565b5f5ffd5b5f5ffd5b5f5ffd5b5f601f19601f8301169050919050565b7f4e487b71000000000000000000000000000000000000000000000000000000005f52604160045260245ffd5b6101a08261015a565b810181811067ffffffffffffffff821117156101bf576101be61016a565b5b80604052505050565b5f6101d1610145565b90506101dd8282610197565b919050565b5f67ffffffffffffffff8211156101fc576101fb61016a565b5b602082029050602081019050919050565b5f5ffd5b5f819050919050565b61022381610211565b811461022d575f5ffd5b50565b5f8135905061023e8161021a565b92915050565b5f610256610251846101e2565b6101c8565b905080838252602082019050602084028301858111156102795761027861020d565b5b835b818110156102a2578061028e8882610230565b84526020840193505060208101905061027b565b5050509392505050565b5f82601f8301126102c0576102bf610156565b5b81356102d0848260208601610244565b91505092915050565b5f5f604083850312156102ef576102ee61014e565b5b5f83013567ffffffffffffffff81111561030c5761030b610152565b5b610318858286016102ac565b925050602061032985828601610230565b9150509250929050565b61033c81610211565b82525050565b5f6020820190506103555f830184610333565b92915050565b5f819050919050565b7f4e487b71000000000000000000000000000000000000000000000000000000005f52601160045260245ffd5b5f61039b8261035b565b91506103a68361035b565b92508282039050818111156103be576103bd610364565b5b92915050565b5f6103ce82610211565b91506103d983610211565b925082820390508181125f8412168282135f8512151617156103fe576103fd610364565b5b92915050565b7f4e487b71000000000000000000000000000000000000000000000000000000005f52601260045260245ffd5b5f61043b82610211565b915061044683610211565b92508261045657610455610404565b5b60015f0383147f80000000000000000000000000000000000000000000000000000000000000008314161561048e5761048d610364565b5b828205905092915050565b5f6104a382610211565b91506104ae83610211565b92508282019050828112155f8312168382125f8412151617156104d4576104d3610364565b5b92915050565b7f4e487b71000000000000000000000000000000000000000000000000000000005f52603260045260245ffdfea2646970667358221220e46e90d3e1a2ba0f65469ac50b75f61c18bbe4b7c583db85f494d35e151c6ada64736f6c634300081e0033",
					"opcodes": "PUSH1 0x80 PUSH1 0x40 MSTORE CALLVALUE DUP1 ISZERO PUSH1 0xE JUMPI PUSH0 PUSH0 REVERT JUMPDEST POP PUSH2 0x53D DUP1 PUSH2 0x1C PUSH0 CODECOPY PUSH0 RETURN INVALID PUSH1 0x80 PUSH1 0x40 MSTORE CALLVALUE DUP1 ISZERO PUSH2 0xF JUMPI PUSH0 PUSH0 REVERT JUMPDEST POP PUSH1 0x4 CALLDATASIZE LT PUSH2 0x29 JUMPI PUSH0 CALLDATALOAD PUSH1 0xE0 SHR DUP1 PUSH4 0xF4353706 EQ PUSH2 0x2D JUMPI JUMPDEST PUSH0 PUSH0 REVERT JUMPDEST PUSH2 0x47 PUSH1 0x4 DUP1 CALLDATASIZE SUB DUP2 ADD SWAP1 PUSH2 0x42 SWAP2 SWAP1 PUSH2 0x2D9 JUMP JUMPDEST PUSH2 0x5D JUMP JUMPDEST PUSH1 0x40 MLOAD PUSH2 0x54 SWAP2 SWAP1 PUSH2 0x342 JUMP JUMPDEST PUSH1 0x40 MLOAD DUP1 SWAP2 SUB SWAP1 RETURN JUMPDEST PUSH0 PUSH0 PUSH0 SWAP1 POP PUSH0 PUSH1 0x1 DUP6 MLOAD PUSH2 0x71 SWAP2 SWAP1 PUSH2 0x391 JUMP JUMPDEST SWAP1 POP JUMPDEST DUP1 DUP3 SGT PUSH2 0x119 JUMPI PUSH0 PUSH1 0x2 DUP4 DUP4 PUSH2 0x8A SWAP2 SWAP1 PUSH2 0x3C4 JUMP JUMPDEST PUSH2 0x94 SWAP2 SWAP1 PUSH2 0x431 JUMP JUMPDEST DUP4 PUSH2 0x9F SWAP2 SWAP1 PUSH2 0x499 JUMP JUMPDEST SWAP1 POP DUP5 DUP7 DUP3 DUP2 MLOAD DUP2 LT PUSH2 0xB5 JUMPI PUSH2 0xB4 PUSH2 0x4DA JUMP JUMPDEST JUMPDEST PUSH1 0x20 MUL PUSH1 0x20 ADD ADD MLOAD SUB PUSH2 0xCD JUMPI DUP1 SWAP4 POP POP POP POP PUSH2 0x13F JUMP JUMPDEST DUP5 DUP7 DUP3 DUP2 MLOAD DUP2 LT PUSH2 0xE1 JUMPI PUSH2 0xE0 PUSH2 0x4DA JUMP JUMPDEST JUMPDEST PUSH1 0x20 MUL PUSH1 0x20 ADD ADD MLOAD SLT ISZERO PUSH2 0x103 JUMPI PUSH1 0x1 DUP2 PUSH2 0xFC SWAP2 SWAP1 PUSH2 0x499 JUMP JUMPDEST SWAP3 POP PUSH2 0x113 JUMP JUMPDEST PUSH1 0x1 DUP2 PUSH2 0x110 SWAP2 SWAP1 PUSH2 0x3C4 JUMP JUMPDEST SWAP2 POP JUMPDEST POP PUSH2 0x74 JUMP JUMPDEST PUSH32 0xFFFFFFFFFFFFFFFFFFFFFFFFFFFFFFFFFFFFFFFFFFFFFFFFFFFFFFFFFFFFFFFF SWAP3 POP POP POP JUMPDEST SWAP3 SWAP2 POP POP JUMP JUMPDEST PUSH0 PUSH1 0x40 MLOAD SWAP1 POP SWAP1 JUMP JUMPDEST PUSH0 PUSH0 REVERT JUMPDEST PUSH0 PUSH0 REVERT JUMPDEST PUSH0 PUSH0 REVERT JUMPDEST PUSH0 PUSH1 0x1F NOT PUSH1 0x1F DUP4 ADD AND SWAP1 POP SWAP2 SWAP1 POP JUMP JUMPDEST PUSH32 0x4E487B7100000000000000000000000000000000000000000000000000000000 PUSH0 MSTORE PUSH1 0x41 PUSH1 0x4 MSTORE PUSH1 0x24 PUSH0 REVERT JUMPDEST PUSH2 0x1A0 DUP3 PUSH2 0x15A JUMP JUMPDEST DUP2 ADD DUP2 DUP2 LT PUSH8 0xFFFFFFFFFFFFFFFF DUP3 GT OR ISZERO PUSH2 0x1BF JUMPI PUSH2 0x1BE PUSH2 0x16A JUMP JUMPDEST JUMPDEST DUP1 PUSH1 0x40 MSTORE POP POP POP JUMP JUMPDEST PUSH0 PUSH2 0x1D1 PUSH2 0x145 JUMP JUMPDEST SWAP1 POP PUSH2 0x1DD DUP3 DUP3 PUSH2 0x197 JUMP JUMPDEST SWAP2 SWAP1 POP JUMP JUMPDEST PUSH0 PUSH8 0xFFFFFFFFFFFFFFFF DUP3 GT ISZERO PUSH2 0x1FC JUMPI PUSH2 0x1FB PUSH2 0x16A JUMP JUMPDEST JUMPDEST PUSH1 0x20 DUP3 MUL SWAP1 POP PUSH1 0x20 DUP2 ADD SWAP1 POP SWAP2 SWAP1 POP JUMP JUMPDEST PUSH0 PUSH0 REVERT JUMPDEST PUSH0 DUP2 SWAP1 POP SWAP2 SWAP1 POP JUMP JUMPDEST PUSH2 0x223 DUP2 PUSH2 0x211 JUMP JUMPDEST DUP2 EQ PUSH2 0x22D JUMPI PUSH0 PUSH0 REVERT JUMPDEST POP JUMP JUMPDEST PUSH0 DUP2 CALLDATALOAD SWAP1 POP PUSH2 0x23E DUP2 PUSH2 0x21A JUMP JUMPDEST SWAP3 SWAP2 POP POP JUMP JUMPDEST PUSH0 PUSH2 0x256 PUSH2 0x251 DUP5 PUSH2 0x1E2 JUMP JUMPDEST PUSH2 0x1C8 JUMP JUMPDEST SWAP1 POP DUP1 DUP4 DUP3 MSTORE PUSH1 0x20 DUP3 ADD SWAP1 POP PUSH1 0x20 DUP5 MUL DUP4 ADD DUP6 DUP2 GT ISZERO PUSH2 0x279 JUMPI PUSH2 0x278 PUSH2 0x20D JUMP JUMPDEST JUMPDEST DUP4 JUMPDEST DUP2 DUP2 LT ISZERO PUSH2 0x2A2 JUMPI DUP1 PUSH2 0x28E DUP9 DUP3 PUSH2 0x230 JUMP JUMPDEST DUP5 MSTORE PUSH1 0x20 DUP5 ADD SWAP4 POP POP PUSH1 0x20 DUP2 ADD SWAP1 POP PUSH2 0x27B JUMP JUMPDEST POP POP POP SWAP4 SWAP3 POP POP POP JUMP JUMPDEST PUSH0 DUP3 PUSH1 0x1F DUP4 ADD SLT PUSH2 0x2C0 JUMPI PUSH2 0x2BF PUSH2 0x156 JUMP JUMPDEST JUMPDEST DUP2 CALLDATALOAD PUSH2 0x2D0 DUP5 DUP3 PUSH1 0x20 DUP7 ADD PUSH2 0x244 JUMP JUMPDEST SWAP2 POP POP SWAP3 SWAP2 POP POP JUMP JUMPDEST PUSH0 PUSH0 PUSH1 0x40 DUP4 DUP6 SUB SLT ISZERO PUSH2 0x2EF JUMPI PUSH2 0x2EE PUSH2 0x14E JUMP JUMPDEST JUMPDEST PUSH0 DUP4 ADD CALLDATALOAD PUSH8 0xFFFFFFFFFFFFFFFF DUP2 GT ISZERO PUSH2 0x30C JUMPI PUSH2 0x30B PUSH2 0x152 JUMP JUMPDEST JUMPDEST PUSH2 0x318 DUP6 DUP3 DUP7 ADD PUSH2 0x2AC JUMP JUMPDEST SWAP3 POP POP PUSH1 0x20 PUSH2 0x329 DUP6 DUP3 DUP7 ADD PUSH2 0x230 JUMP JUMPDEST SWAP2 POP POP SWAP3 POP SWAP3 SWAP1 POP JUMP JUMPDEST PUSH2 0x33C DUP2 PUSH2 0x211 JUMP JUMPDEST DUP3 MSTORE POP POP JUMP JUMPDEST PUSH0 PUSH1 0x20 DUP3 ADD SWAP1 POP PUSH2 0x355 PUSH0 DUP4 ADD DUP5 PUSH2 0x333 JUMP JUMPDEST SWAP3 SWAP2 POP POP JUMP JUMPDEST PUSH0 DUP2 SWAP1 POP SWAP2 SWAP1 POP JUMP JUMPDEST PUSH32 0x4E487B7100000000000000000000000000000000000000000000000000000000 PUSH0 MSTORE PUSH1 0x11 PUSH1 0x4 MSTORE PUSH1 0x24 PUSH0 REVERT JUMPDEST PUSH0 PUSH2 0x39B DUP3 PUSH2 0x35B JUMP JUMPDEST SWAP2 POP PUSH2 0x3A6 DUP4 PUSH2 0x35B JUMP JUMPDEST SWAP3 POP DUP3 DUP3 SUB SWAP1 POP DUP2 DUP2 GT ISZERO PUSH2 0x3BE JUMPI PUSH2 0x3BD PUSH2 0x364 JUMP JUMPDEST JUMPDEST SWAP3 SWAP2 POP POP JUMP JUMPDEST PUSH0 PUSH2 0x3CE DUP3 PUSH2 0x211 JUMP JUMPDEST SWAP2 POP PUSH2 0x3D9 DUP4 PUSH2 0x211 JUMP JUMPDEST SWAP3 POP DUP3 DUP3 SUB SWAP1 POP DUP2 DUP2 SLT PUSH0 DUP5 SLT AND DUP3 DUP3 SGT PUSH0 DUP6 SLT ISZERO AND OR ISZERO PUSH2 0x3FE JUMPI PUSH2 0x3FD PUSH2 0x364 JUMP JUMPDEST JUMPDEST SWAP3 SWAP2 POP POP JUMP JUMPDEST PUSH32 0x4E487B7100000000000000000000000000000000000000000000000000000000 PUSH0 MSTORE PUSH1 0x12 PUSH1 0x4 MSTORE PUSH1 0x24 PUSH0 REVERT JUMPDEST PUSH0 PUSH2 0x43B DUP3 PUSH2 0x211 JUMP JUMPDEST SWAP2 POP PUSH2 0x446 DUP4 PUSH2 0x211 JUMP JUMPDEST SWAP3 POP DUP3 PUSH2 0x456 JUMPI PUSH2 0x455 PUSH2 0x404 JUMP JUMPDEST JUMPDEST PUSH1 0x1 PUSH0 SUB DUP4 EQ PUSH32 0x8000000000000000000000000000000000000000000000000000000000000000 DUP4 EQ AND ISZERO PUSH2 0x48E JUMPI PUSH2 0x48D PUSH2 0x364 JUMP JUMPDEST JUMPDEST DUP3 DUP3 SDIV SWAP1 POP SWAP3 SWAP2 POP POP JUMP JUMPDEST PUSH0 PUSH2 0x4A3 DUP3 PUSH2 0x211 JUMP JUMPDEST SWAP2 POP PUSH2 0x4AE DUP4 PUSH2 0x211 JUMP JUMPDEST SWAP3 POP DUP3 DUP3 ADD SWAP1 POP DUP3 DUP2 SLT ISZERO PUSH0 DUP4 SLT AND DUP4 DUP3 SLT PUSH0 DUP5 SLT ISZERO AND OR ISZERO PUSH2 0x4D4 JUMPI PUSH2 0x4D3 PUSH2 0x364 JUMP JUMPDEST JUMPDEST SWAP3 SWAP2 POP POP JUMP JUMPDEST PUSH32 0x4E487B7100000000000000000000000000000000000000000000000000000000 PUSH0 MSTORE PUSH1 0x32 PUSH1 0x4 MSTORE PUSH1 0x24 PUSH0 REVERT INVALID LOG2 PUSH5 0x6970667358 0x22 SLT KECCAK256 RETF PUSH15 0x90D3E1A2BA0F65469AC50B75F61C18 0xBB RETF 0xB7 0xC5 DUP4 0xDB DUP6 DELEGATECALL SWAP5 0xD3 MCOPY ISZERO SHR PUSH11 0xDA64736F6C634300081E00 CALLER "
				},
				"gasEstimates": {
					"creation": {
						"codeDepositCost": "268200",
						"executionCost": "304",
						"totalCost": "268504"
					},
					"external": {
						"binarySearch(int256[],int256)": "infinite"
					}
				},
				"methodIdentifiers": {
					"binarySearch(int256[],int256)": "f4353706"
				}
			},
			"storageLayout": {
				"storage": [],
				"types": null
			},
			"userdoc": {
				"kind": "user",
				"methods": {},
				"version": 1
			}
		}
	}
}